:020000040800F2
:1000000028200020552F0008490400084B04000850
:100010004F040008530400085704000800000000C3
:100020000000000000000000000000005B04000869
:100030005D040008000000005F040008D52C0008E3
:100040006F2F00086F2F00086F2F00086F2F000818
:100050006F2F00086F2F00086F2F00086F2F000808
:100060006F2F00086F2F00086F2F0008430E000845
:100070006F2F00086F2F00086F2F00086F2F0008E8
:100080006F2F00086F2F00086F2F00086F2F0008D8
:100090006F2F00086F2F00086F2F00086F2F0008C8
:1000A0006F2F00087F1800086F2F00086F2F0008BF
:1000B000111B0008371B00086F2F00086F2F000866
:1000C0006F2F00086F2F00086F2F00086F2F000898
:1000D0006F2F0008C92E00086F2F0008D5110008E7
:1000E0006F2F00086F2F00086F2F000800F002F834
:1000F00000F090F80AA090E8000C82448344AAF132
:100100000107DA4501D100F085F8AFF2090EBAE82F
:100110000F0013F0010F18BFFB1A43F0010318473B
:100120005888000078880000103A24BF78C878C149
:10013000FAD8520724BF30C830C144BF04680C60ED
:10014000704700000023002400250026103A28BF35
:1001500078C1FBD8520728BF30C148BF0B60704739
:100160006E2904F0D287702904F01786662907F0FB
:100170002085652907F01D85672907F01A85612903
:1001800007F0198503681B0A28BF41F0800169291F
:1001900004F08885642904F08585752904F082853A
:1001A0006F2905F0C182782904F0E385E92905F07B
:1001B0005B82E42905F05882F52905F05582EF2984
:1001C00005F0BE82F82904F0E2850368DB0928BF48
:1001D00041F08001632905F0D384732905F0D884A8
:1001E000E32905F0E384F32905F0E8840020704753
:1001F0001FB505F0AFFA04000020002106F07AFDDB
:10020000401C60600020002106F05EFDE0601FBD24
:1002100010B510BD05F06CFD1146FFF7E9FF00F0C9
:1002200080F805F093FD03B4FFF7F2FF03BC02F082
:10023000F1FD000010B56D4802F05CF9002002F0FD
:100240005CF910BD10B5002002F054F9002002F056
:1002500054F910BD10B5664802F04CF9002002F0C8
:100260004CF910BD10B5614802F044F9614802F044
:1002700044F910BD10B55D4802F03CF95E4802F04B
:100280003CF910BD30B585B01421684604F073FE0A
:100290005A485BA14269684604F0C6FC6A460021E0
:1002A0003C2001F0BBF9554855A18269684604F02D
:1002B000BBFC6A4610213C2001F0B0F94F4850A128
:1002C0008268684604F0B0FC6A4620213C2001F0B8
:1002D000A5F94A49C86907F0ABF9044622460B461E
:1002E00048A1684604F0A0FC6A463021282001F0AD
:1002F00095F905B030BD10B544A20021042001F0ED
:100300008DF944A21021042001F088F943A2202194
:10031000042001F083F943A23021042001F07EF98A
:1003200010BD86B04FF4612002F082FD4FF46120D1
:1003300000F093FF4FF4407002F02AFE02F0BEFC82
:1003400000F0FEFE00F07CF901F08AF901F0A9FA54
:10035000FFF7D1FF01F04FFB01F0B8FC02F00FF9FD
:1003600001F08DFE02F027FC3FE0FFF78BFF01F06C
:100370002BF802F004FA02F031FB002402F038FB03
:100380000446002C31D02948006808B9012000E05B
:10039000002026490860142101A804F0ECFD224643
:1003A00023A101A804F040FC01A800F0AFFF052C38
:1003B00002D1FFF73FFF17E0072C02D1FFF74AFFFA
:1003C00012E0082C02D1FFF74DFF0DE0062C02D100
:1003D000FFF750FF08E00E2C02D1FFF733FF03E0D8
:1003E0000021084602F023FC00BFBEE7000048439E
:1003F000000048C32CF905BF2CF9053FD40E00209E
:100400002564200025302E3266200000204C454611
:10041000543A00002052494748543A00205345526C
:10042000564F3A00204449533A00000090012142BF
:10043000200D0A202564206973207072657373652E
:1004400064200D0A00000000704700BFFEE700BFF7
:10045000FEE700BFFEE700BFFEE77047704770474A
:100460000CB50020019000906C48006840F480308A
:100470006A49086000BF6948006800F400300090D5
:100480000198401C0190009818B90198B0F5A06F30
:10049000F1D16248006800F4003010B101200090F2
:1004A00001E0002000900098012843D15C480068DA
:1004B00040F010005A4908600846006820F0030028
:1004C00008600846006840F0020008605348406831
:1004D000524948600846406848600846406840F411
:1004E000806048600846406820F47C1048600846F8
:1004F000406840F4E81048600846006840F08070AA
:10050000086000BF4548006800F000700028F9D07E
:100510004248406820F0030040494860084640686F
:1005200040F00200486000BF3C48406800F00C000A
:100530000828F9D10CBD10B5FFF792FF10BD10B51A
:100540003648006840F001003449086008464068B9
:10055000344908403149486008460068324908403B
:100560002E4908600846006820F48020086008468C
:10057000406820F4FE0048604FF41F008860FFF7D9
:10058000DAFF4FF000602949086010BD10B5002166
:1005900000200022214B5B6803F00C0121B10429EB
:1005A00006D0082928D107E0214B224C236027E000
:1005B0001F4B204C236023E0184B5B6803F4701042
:1005C000164B5B6803F48032022303EB904022B9A0
:1005D000194B4343174C23600DE0104B5B6803F449
:1005E000003323B1144B4343124C236003E0104B00
:1005F0004343104C236003E00D4B0E4C236000BFBF
:1006000000BF064B5B68C3F303130C4CE15C094B62
:100610001B68CB40074C236010BD00000010024057
:10062000002002400000FFF8FFFFF6FE08ED00E0AA
:1006300000127A000000002000093D0004000020A4
:1006400008B50121042003F02DF81020ADF80000BA
:100650008DF8030003208DF802006946104802F06F
:1006600065FD10210E4802F00EFE08BD08B50121FF
:10067000102003F017F84FF40050ADF800001020E0
:100680008DF8030003208DF802006946054802F04A
:100690004DFD4FF40051034802F0F5FD08BD000088
:1006A0000008014000100140F748806940F0080050
:1006B000F5498861F548006820F0F000F3490860CA
:1006C000F148806940F40070EF4988610846C068CD
:1006D00040F40070C8600846C06820F40070C8602C
:1006E000EB480068EB490840E949086008460068A3
:1006F00008600846006820F480700860081D0068E3
:1007000020F00200091D08600846006820F46020FF
:1007100008600846006840F46020086008460068E9
:1007200040F4801008600846006820F4006008600B
:10073000D7482830006820F47000D5492831086077
:100740000846006800200860D1480C30006820F09E
:100750007040CF490C3108600846006840F0605096
:100760000860CB48001D006840F00100C849091D21
:1007700008600846006840F00800086000BFC448F0
:10078000001D006800F008000028F8D1C048001DD6
:10079000006840F00400BE49091D086000BFBC4865
:1007A000001D006800F004000028F8D1B84830307F
:1007B000006820F01F00B649303108600846006824
:1007C00040F00900086070470146B148001D00680C
:1007D00040F48000AE4A121D106000BFAC48001FFC
:1007E000006800F002000028F8D0A94848300068EE
:1007F00080B270472DE9FE4F0920FFF7E5FF00901A
:1008000007F082F8019006F013FF80464FF0663241
:10081000A14B06F019FD06460022A04B06F014FD80
:10082000044600229E4B06F05DFB824606F078FAF5
:1008300002900298BDE8FE8F10B59348406940F0E1
:1008400001009149486100BF9648806800F00100AE
:100850000028F9D19348406840F00F009149486062
:100860008B484830086100204861C86088600846AD
:10087000806840F00200886008468068886008460A
:10088000806888600846806888600846806888605C
:100890000846806840F0800088600846806840F420
:1008A000807088600846806840F4806088600846F0
:1008B000806840F4005088600B21032002F064FA45
:1008C00010BD7148806940F008006F4988616F4829
:1008D000006820F0F0006D4908606B48806940F4C2
:1008E0000070694988610846C06840F40070C860BB
:1008F0000846C06820F40070C860002064490860A1
:10090000081D006840F00200091D086008460068E4
:1009100040F4807008600846006820F46020086099
:100920000846006840F4602008600846006840F40B
:10093000801008600846006820F4006008600846DF
:10094000006840F4000008600846006840F00100BC
:1009500008600846006840F00800086000BF4C4886
:10096000001D006800F008000028F8D14848001D6C
:10097000006840F004004649091D086000BF444873
:10098000001D006800F004000028F8D1704710B581
:10099000FFF797FFFFF750FF0E20434981F844000F
:1009A0001421414880F845101A2180F84610292169
:1009B00080F84710362180F84810442180F849100B
:1009C000542180F84A10FC2180F84B100920364948
:1009D00008753648486210213348417534498162B0
:1009E00002203149087710BD70B505462E48007FBA
:1009F00000FB05F42B48C06800287DD1B4F57A7F50
:100A00005AD94FF47A70B4FBF0F02749C8834FF4F9
:100A10007A70B4FBF0F100FB114060B12248C08B4A
:100A2000401C2149C8834FF47A70B4FBF0F100FBFD
:100A300011401D4908844FF47A741A48806820F0E8
:100A400001001849886000BF1648806800F0010066
:100A50000028F9D11348806840F0040011498860EB
:100A60000846806840F020008860124848610846C7
:100A7000C460406840F00F0048600846806840F05D
:100A80000100886043E0000000100240000C0140BB
:100A900004240140FFFFF00066660A400000264083
:100AA0000000B04000000240140000208000002040
:100AB00068000020000100200120F749C8830C8451
:100AC000F648806820F00100F449886000BFF348D0
:100AD000806800F001000028F9D1F048806820F01B
:100AE0000400EE4988600846806820F02000886095
:100AF000EB484861084600E018E0C460406840F0F8
:100B00000F0048600846806840F001008860E548B2
:100B1000006840F00200E34908600846006840F4BD
:100B20008000086002F0EFF8DB49C86470BD2DE971
:100B3000FC47814600244FF47A7109FB01F000EB79
:100B4000D071C1F34F0AD448C08B01287ED1B9F1CE
:100B5000020F05D0B9F1030F02D0B9F1040FF5D19E
:100B6000B9F1040F27D11AE0CF48D049097850F8DD
:100B70002100CB4931F814100144CB48CB4A1278FC
:100B800040F82210601C84B2C348017FC748007837
:100B9000401C90FBF1F201FB1200C4490870BE48F2
:100BA000008CA042E0DCBC48408CBB49098C084466
:100BB000B949488462E0B9F1020F2BD14FF0000A25
:100BC0001CE0B948B949097850F8210004EB0A0142
:100BD000B34A32F811100844B349B44A127841F8C4
:100BE0002200601C84B2AC48017FB0480078401CF1
:100BF00090FBF1F201FB1200AC490870A648008C92
:100C0000A042DEDCA448408CA349098C0844A249D8
:100C1000488433E0B9F1030F30D14FF4FA7A1EE083
:100C2000A148A249097850F8210004EB0A019C4A26
:100C300032F8111008449C499C4A127841F822006D
:100C4000601C84B29448017F984800E076E0007808
:100C5000401C90FBF1F201FB1200944908708E4891
:100C6000008CA0EB0A00A042DADC8B48408C8A4959
:100C7000098CA1EB0A01084487494884002449E013
:100C80008548408C8449097F90FBF1F081B282480D
:100C9000243050F8240001817F49243151F8241078
:100CA000088906F0BDFA05460E467F4951F8240032
:100CB00006F0B6FA07462A46334606F013F9CDE9A0
:100CC000000106F02DF87449243151F824104860D1
:100CD000714A243252F8242051686F4A243252F863
:100CE0002420D06806F024FE05466B48243050F8D6
:100CF00024000169284606F0C7FC6749243151F8F1
:100D0000241048616948007810B169A003F080FFA1
:100D1000601C84B26048007FA042B1DC00205E49C4
:100D20004884002407E000205F4941F824005F491F
:100D30000870601C84B2082CF5DB26E01CE05A48E1
:100D40005A49097850F8210004EB0A01544A32F854
:100D5000111001445448554A127840F82210601C82
:100D600084B24D48017F51480078401C90FBF1F25D
:100D700001FB12004D490870B4F5FA7FDFDB4648ED
:100D8000408C00F5FA7044494884BDE8FC872DE9A1
:100D9000F0478CB04FF0000A3F48026D406A01896D
:100DA00047A003F035FF00BF44E03B49243151F830
:100DB0002A10486906F03CFC04460D4636492431A9
:100DC00051F82A10086906F033FC06460F463249EE
:100DD000243151F82A10486806F02AFC80468946DA
:100DE0002D49243151F82A10C86806F021FCCDE9BC
:100DF0000A012949243151F82A10486806F018FCE4
:100E0000CDE90289CDE90467CDE90645CDE90801C0
:100E1000DDE90A01CDE900011F48243050F82A001D
:100E200001782F48DDE9082303F0F2FE0AF1010002
:100E300000F0FF0A1848007F5045B6DC0CB0BDE852
:100E4000F08710B51548006800F0020018B312488A
:100E5000C08B012846D11348006820F002001149D8
:100E600008600E48806820F001000C498860084640
:100E7000806800F0200018B10320FFF758FE02E060
:100E80000420FFF754FE01F03EFF0349C96C401AED
:100E90000149086529E02EE014000020000002400E
:100EA00000010020082401400009002098000020D3
:100EB000616463B4E6D4DABCC6CAFDB4EDCEF30017
:100EC000B2C9BCAFB4CECAFD25642CD7DCBBA8B771
:100ED000D1CAB1BCE43A25642075732E0A00000023
:100EE000348900080120FFF722FEA148C08B401E74
:100EF0009F49C88327E09F48006800F0040010B3B2
:100F00009B48C08B01281BD19948008CB0F5FA7F13
:100F100016DC9948006820F002009749086095485F
:100F2000806820F00100934988600220FFF7FFFDF0
:100F300001F0E9FE8E49C96C401A8D49086502E04E
:100F40000120FFF7F4FD8B48406840F00F0089490D
:100F5000486010BD8848006820F00200864908609B
:100F600070472DE9F04105460E4600240027082E63
:100F700000DD0826002451E0285D11284CDC781C97
:100F8000C7B2062C16DA7C482C30006804EB8402C9
:100F90001F219140884378492C310860285D04EB7B
:100FA0008401884074492C310968084372492C3106
:100FB000086031E00C2C17DA6F4828300068A11F58
:100FC00001EB81021F21914088436B492831086061
:100FD000285D04EB8401884067492831096808438B
:100FE00065492831086017E0634824300068A4F19F
:100FF0000C0101EB81021F21914088435E4924319D
:101000000860285D04EB840188405B49243109684D
:101010000843594924310860601CC4B2B442ABDBB8
:1010200055482430006820F470005349243108608A
:1010300008460168781E41EA00504F492431086093
:1010400039464EA003F0E4FDBDE8F0812DE9FC47F0
:1010500005460C460026072C00DD07240A2D14DA6D
:1010600005EB4500C6B24448083000680721B1408E
:1010700088434149083108600846006804FA06F1CF
:1010800008433D490831086015E0A5F10A0000EB6E
:101090004000C6B23848001D00680721B1408843AF
:1010A0003549091D08600846006804FA06F108433E
:1010B0003149091D08602E494431085D06F024FCC1
:1010C0008246344906F042FB814606F0B1FACDE98A
:1010D000000127484430025D29462FA003F098FD07
:1010E000BDE8FC872DE9F04107460D4600240026A7
:1010F00008E03846FFF768FB0444C82001F013FEFF
:10110000701CC6B2AE42F4DB94FBF5F430480068C4
:10111000201A10F1050F04DB2D480068201A05285D
:101120000BDD2B48006804EB8000052190FBF1F0FB
:10113000274908602046BDE8F08125480068FAE7A5
:1011400010B50B49086880470948017F4268143090
:1011500090470749496A087805498A6805219047F8
:101160000349896A087802498A680521904710BDB9
:10117000140000200000024008240140D3D0D0A772
:10118000D7AABBBBCDA8B5C0CAFDC4BFA3BA25644E
:10119000200A000000004041B5DA2564B8F6CDA869
:1011A000B5C0B2C9D1F9CAB1BCE4C9E8D6C3CEAAA8
:1011B0002564D6DCC6DAA3ACB2C9D1F9CAB1BCE4A5
:1011C000A3BA25302E3266207573A1A30A00000051
:1011D0009C00002010B540F225515A4802F086FCD0
:1011E000B0B1584802F002FCC4B257480088C82881
:1011F00008DA554801880088401C534A108053483B
:10120000445405E05048008840F400404E490880AE
:1012100010BD70B58CB006460C4615460121084637
:1012200002F033FA304602F0A5FC0194029510203A
:1012300003900020049005908020069000200790E5
:10124000089009904FF480500A9000200B9001A95B
:10125000304602F031FD0CB070BD10B586B00446CA
:101260000121082002F01EFA0121880402F027FA69
:10127000344802F07BFA4FF48060ADF8140003208C
:101280008DF8160018208DF8170005A9304801F0D8
:101290004DFF4FF40060ADF8140004208DF81700E6
:1012A00005A92B4801F042FF01940020ADF8080089
:1012B000ADF80A00ADF80C00ADF810000C20ADF848
:1012C0000E0001A91F4802F094FA012280211D4856
:1012D00002F04CFB1F4A1B49091D1F48FFF799FFED
:1012E0000121184802F011FB06B010BD70B504468C
:1012F0000D460021204602F00AFD2946204602F054
:101300001BFD0121204602F002FD70BD0FB438B56F
:1013100005A800900F48009A049903F063FC002090
:10132000009000BF0C4802F009FD0028FAD10948DE
:1013300003F002FEC4B221460748FFF7D7FF38BCCE
:101340005DF814FB00480040A000002020090020A8
:10135000000C0140E80900201C00024070B5044662
:101360000E461EB10120FE49086002E00020FC4943
:101370000860012001F0D7FC00251DE00020F9499C
:101380000860012001F0CFFC04F0800020B10120B2
:10139000F449091F086003E00020F249091F0860B2
:1013A000012001F0C0FC0120EE49086001F0BBFC07
:1013B0006006040E681CC5B2082DDFDB0120E84979
:1013C000086001F0B0FC70BD70B500241CE004F1B1
:1013D000B001C8B20021FFF7C1FF00210846FFF7A6
:1013E000BDFF00211020FFF7B9FF002508E0DE490E
:1013F00001EBC501085D0121FFF7B0FF681CC5B214
:10140000802DF4DB601CC4B2082CE0DB70BD10B58D
:1014100000218D20FFF7A2FF00211420FFF79EFF7F
:101420000021AF20FFF79AFF10BD10B500218D20DD
:10143000FFF794FF00211020FFF790FF0021AE205E
:10144000FFF78CFF10BD70B500240CE0002506E00E
:101450000020C54901EBC5010855681CC5B2802DA7
:10146000F6DB601CC4B2082CF0DBFFF7ADFF70BDEB
:10147000F0B5144600267F2801DC3F2900DDF0BDD1
:101480000B46CF1701EB5777FF10C7F10707FAB2EA
:10149000CF1701EB5777FF10A1EBC707FDB2C5F1DE
:1014A00007070123BB40DEB24CB1AF4B03EBC003D7
:1014B0009B5C3343AC4F07EBC007BB5408E0AA4B1F
:1014C00003EBC0039B5CB343A74F07EBC007BB54C0
:1014D00000BFD4E72DE9F04F80460C4615461E4666
:1014E000A346A5F12000C5B200273EE00C2E07D18F
:1014F00005EB45009D4901EB800010F8079004E0E2
:101500009B4800EB051010F807904FF0000A26E00A
:1015100009F0800028B121464046099AFFF7A8FF4C
:1015200009E0099808B9012000E0002002462146A0
:101530004046FFF79DFF4FEA49604FEA1069601C83
:10154000C4B2A4EB0B00B04205D15C4608F1010027
:1015500000F0FF0806E00AF1010000F0FF0ABAF10E
:10156000080FD5DB00BF781CC7B2B742BEDBBDE8B1
:10157000F08F10B50246012000E050430B1EA1F190
:101580000104E1B2F9D110BD2DE9FF4F81B007464A
:1015900091461E460E9D4FF0000A002439E0301B94
:1015A000401EC1B20A20FFF7E4FFB9FBF0F00A21A8
:1015B000B0FBF1F201FB1208BAF1000F16D1701E58
:1015C000A04213DDB8F1000F0ED10120AB4605EBB0
:1015D000DB71491001FB04710090C8B22B46202238
:1015E0000299FFF777FF12E04FF0010A0120AB46A6
:1015F00005EBDB71491001FB04710090C8B208F1E2
:101600003001CAB22B460299FFF764FF00BF601C8D
:10161000C4B2B442C3DB05B0BDE8F08FF8B50546EF
:101620000E46144618E07A2D03DD002506F1100061
:10163000C6B23A2E04DD002005460646FFF703FF3A
:101640000120009022780C2331462846FFF742FF04
:1016500005F10800C5B2641C20780028E3D1F8BD6C
:1016600010B54448806940F00100424988614FF05C
:101670000070414948603F48806940F008003D499A
:1016800088613E4800683E4908403C490860084679
:1016900000683C490843394908603648806940F091
:1016A0000400344988613848006820F070403649A9
:1016B00008600846006840F0005008600020294992
:1016C00008390860314801F02EFB01203049C1F88B
:1016D0008C010021AE20FFF741FE0021D520FFF74D
:1016E0003DFE00215020FFF739FE0021A820FFF722
:1016F00035FE00213F20FFF731FE0021D320FFF708
:101700002DFE00210846FFF729FE00214020FFF7AB
:1017100025FE00218D20FFF721FE00211420FFF778
:101720001DFE00212020FFF719FE00210220FFF7F7
:1017300015FE0021A120FFF711FE0021C020FFF7B8
:101740000DFE0021DA20FFF709FE00211220FFF72D
:1017500005FE00218120FFF701FE0021EF2019E0A6
:10176000BC01214294812142B00A0020AA7C0008D9
:101770001E8100080010024000000140000C0140E2
:10178000FF0F00FF0020220004080140A086010096
:1017900000802142FFF7E2FD0021D920FFF7DEFDA6
:1017A0000021F120FFF7DAFD0021DB20FFF7D6FD55
:1017B00000213020FFF7D2FD0021A420FFF7CEFD4D
:1017C0000021A620FFF7CAFD0021AF20FFF7C6FDCC
:1017D000FFF739FE10BD000070B505460C464E48B7
:1017E000806940F400604C4988610846806940F097
:1017F000040088614948006820F470404749086047
:101800000846006840F43040086045480580001FE5
:10181000048043481038008840F4C04040491039E3
:1018200008800846008840F400600880081D008891
:1018300040F48050091D088039481830008840F471
:10184000004037491831088035482038008840F07A
:101850000100334920390880802031492C39088023
:101860000846008840F0010008804FF42F602C49A2
:10187000143108801921032001F086FA70BD284830
:101880001C38008826481C38008820F001002449B4
:101890001C390880081D008820F00100091D0880FF
:1018A000704710B5232149F63F40FFF795FF10BD63
:1018B0001B4A1432108070472DE9FC5F824619499B
:1018C000504606F001F9009005F0B2FE8046164A37
:1018D000164B05F0B9FC06460022154B05F002FB3D
:1018E000044605F01DFA83461249584606F020F8D2
:1018F0000446114905F0C8FE0190019805F0E8FF83
:101900000446FFF7D5FFBDE8FC9F4FF42F60044964
:1019100014310880704700000010024004080140A4
:101920002C2C01400000B4426E861BF0F9210940C6
:101930000080664033B31B4500002F4530B589B0A9
:1019400005460C460121042001F0B9FE01210820C2
:1019500001F0A8FEC020ADF8200018208DF823006B
:1019600003208DF8220008A9674801F0DFFB4FF43F
:101970004070ADF8200008A9634801F0D7FBADF82E
:101980001850ADF814400020ADF81A00ADF816005C
:1019900005A95E4802F0ECFA6020ADF804000120D1
:1019A000ADF806000020ADF80C0001A9574802F080
:1019B0001CFB01A9554802F05AFB01A9534802F04B
:1019C000A3FB01A9514802F0EAFB08214F4802F0AD
:1019D0005BFF08214D4802F060FF08214B4802F0F0
:1019E00069FF0821494802F06EFF0121474802F0D3
:1019F0001BFE09B030BD10B5002141F6FF00FFF716
:101A00009DFF10BDB0F5C85F01DD4FF4C8503F49E0
:101A1000383108807047B0F5C85F01DD4FF4C85019
:101A20003A49343108807047B0F5C85F01DD4FF4A2
:101A3000C85036493C3108807047B0F5C85F01DDB9
:101A40004FF4C85031494031088070474FF4C851B5
:101A50002E4A40321180C0F5C851121F11807047C4
:101A60004FF4C851294A38321180C0F5C851121FAD
:101A700011807047C0F5C851244A403211804FF49C
:101A8000C851121F11807047C0F5C8511F4A383223
:101A900011804FF4C851121F118070474FF4C85085
:101AA0001A4940310880091F0880091F0880091F52
:101AB000088070471549403108800021134A3C32A4
:101AC0001180704711493831088000210F4A3432A3
:101AD0001180704700210D4A40321180111F08808B
:101AE00070470021094A38321180111F0880704761
:101AF0000020064940310880091F0880091F08801E
:101B0000091F088070470000000C014000080040D9
:101B10004FF08040008A00F0010018B142F21070CE
:101B2000810688844FF08040008A20F001004FF049
:101B30008041088270477748008800F0010020B19A
:101B400042F210707349143108807248008820F006
:101B5000010070490880704710B56F48C06940F0B7
:101B600001006D49C8610846806940F00400886141
:101B70006A48006820F0FF0068490860084600686D
:101B800040F044000860C804808940F00100C904A6
:101B90008881002008854FF6FF70888508460088F8
:101BA00020F4407008800846008820F0600008801B
:101BB0000846008B40F0010008830846008B40F483
:101BC000807008830846008C20F0020008840846D4
:101BD000008C20F0200008840846008940F00300B3
:101BE000088142F2107088848006008840F001006D
:101BF00008801C210A2001F0C7F810BD10B5464826
:101C0000C06940F002004449C8610846806940F05C
:101C1000040088614148006820F07F403F49086027
:101C20000846006840F0884008603A48001F008875
:101C300040F001003749091F08800020354918315C
:101C400008804FF6FF70091D088042F2107031497C
:101C5000143108802F481038008820F440702D4936
:101C6000103908800846008820F060000880294864
:101C70000830008840F001002649083108800846F5
:101C8000008840F48070088022481030008820F0DE
:101C900002002049103108800846008820F020000A
:101CA00008801C480838008840F0030019490839AA
:101CB000088018481038008840F001001549103994
:101CC00008801D210A2001F05FF810BD10B5FFF754
:101CD00043FFFFF793FF10BD0146022902D00329FD
:101CE00013D108E04FF08042928C10B242F2107291
:101CF00093069A840BE0074A1432128810B242F21B
:101D00001072044B14331A8001E0002000BF00BFA2
:101D1000704700001004004000100240000801401D
:101D200010B5022000F0FFFF10BD08B501210C2006
:101D300001F0B8FC0420ADF8000010208DF803007D
:101D400003208DF802006946F84801F0EFF90421FC
:101D5000F64801F098FA0120ADF8000010208DF847
:101D6000030003208DF802006946F14801F0DEF916
:101D70000121EF4801F087FA08BD10B5EC48006872
:101D800020F00F00EA4908600846006840F00300B0
:101D900008600120E7490860E749C1F88801FFF7BA
:101DA000BFFF0020E3490860FFF7BAFF0020E249C7
:101DB000C1F8880110BD10B5DD48006820F00F00A3
:101DC000DB4908600846006840F003000860002016
:101DD000DA490860DA49C1F88001FFF7A1FF012064
:101DE000D6490860D649C1F88001FFF799FF10BDB8
:101DF00010B50024CE48006820F00F00CC490860E0
:101E00000846006840F0080008600120C9490860E1
:101E1000FFF786FF0120C849C1F88801FFF780FF5E
:101E200007E0601CC4B2FA2C03DDFFF7C4FF0120F9
:101E300010BDC048803800680028F2D1BF49086052
:101E400000BFF5E710B50020BC490860B84800683D
:101E500020F00F00B64908600846006840F0030013
:101E600008600020B649C1F88001FFF759FF012042
:101E7000B2490860FFF754FF0020AF49C1F888015C
:101E800010BD10B50020AD490860A948006820F0D9
:101E90000F00A74908600846006840F0030008608A
:101EA0000120A749C1F88001FFF73AFF0120A349AB
:101EB0000860FFF735FF00209F49C1F8880110BD79
:101EC00070B504469A48006820F00F0098490860F1
:101ED0000846006840F00300086000209749086049
:101EE000002511E0E009934908606006040E012016
:101EF0009149C1F88801FFF713FF00208F4908605E
:101F0000FFF70EFF681CC5B2082DEBDB70BD70B586
:101F1000054600248648006820F00F0084490860C8
:101F20000846006840F008000860002614E0002021
:101F300082490860FFF7F4FE01207F49C1F888015B
:101F40006006040E7B488038006808B1601CC4B28B
:101F5000FFF7E6FE701CC6B2082EE8DB15B9FFF7E6
:101F600090FF01E0FFF76EFF204670BD70B505469B
:101F70000C46FFF702FFD020FFF7A2FFFFF738FF64
:101F800018B1FFF718FF012070BD2846FFF798FF32
:101F9000FFF72EFF2046FFF793FFFFF729FF18B149
:101FA000FFF709FF0120EFE7FFF705FF0020EBE750
:101FB00070B504460025BC2C01DB012510E0622C25
:101FC00001DB02250CE02A2C01DB032508E0142CA0
:101FD00001DB042504E00A2C01DB052500E00625D1
:101FE00029461A20FFF7C2FF70BD70B50446B4F54C
:101FF0007A7F01DD4FF47A74042C00DA04244FF464
:102000007A7090FBF4F0401EC5B229461920FFF704
:10201000ADFF0546264604EBD671C1F34F00FFF72E
:10202000C7FF70BD70B50446FFF7A7FED020FFF7CD
:1020300047FFFFF7DDFE2046FFF742FFFFF7D8FE20
:10204000FFF79BFED120FFF73BFFFFF7D1FE0020FB
:10205000FFF75DFF0546FFF7AEFE284670BD10B5E1
:102060000446E006010E1C20FFF780FF10BD10B5EE
:102070000446E006010E1B20FFF778FF10BD38B5BF
:102080000121084601F00EFB0121042001F00AFBAA
:102090000820ADF8000010208DF8030003208DF813
:1020A00002006946214801F041F80121254801F06C
:1020B0000EF900202149091D0860FFF736FE802136
:1020C0006B20FFF753FF642000F049FE00216B20D6
:1020D000FFF74CFF0320FFF7CAFF0020FFF7BFFF09
:1020E0003220FFF782FF00213820FFF73FFF002159
:1020F0006A20FFF73BFF00212320FFF737FF8021F5
:102100003720FFF733FF7520FFF78CFF0446682C5C
:102110001AD101216B20FFF729FF00216C20FFF766
:1021200025FF3220FFF761FF10E0000000080140AA
:10213000000C01408081214200002142880121429F
:102140000080214200023000012038BD0020FCE761
:102150002DE9F04106460F4614461D46FFF70DFED9
:10216000002141EA4601C8B2FFF7AAFEFFF740FE90
:1021700020B1FFF720FE0120BDE8F0813846FFF7CF
:102180009FFEFFF735FEFFF7F8FD012101EB460149
:10219000C8B2FFF795FEFFF72BFE0DE0012C04D12E
:1021A0000020FFF7B4FE287003E00120FFF7AFFE28
:1021B0002870601EC4B26D1C002CEFD1FFF7FBFD30
:1021C0000020D9E72DE9F84F6B4602224121682013
:1021D000FFF7BEFF9DF801009DF8001040EA0120C6
:1021E0000FFA80FA504605F004F880460022BB4BF7
:1021F00004F078FE0646BA4ABA4B04F0C3FD044622
:1022000004F08EFD8346B849584605F091FB04461C
:1022100005F05EFB00B2BDE8F88F2DE9FC410446F5
:102220000D4616466B46062243216820FFF790FFB5
:102230000746BFB99DF801009DF8001040EA012053
:1022400000B220809DF803009DF8021040EA0120B2
:1022500000B228809DF805009DF8041040EA012096
:1022600000B230803846BDE8FC812DE9FC410446CF
:102270000D4616466B4606223B216820FFF768FF95
:102280000746BFB99DF801009DF8001040EA012003
:1022900000B220809DF803009DF8021040EA012062
:1022A00000B228809DF805009DF8041040EA012046
:1022B00000B230803846BDE8FC812DE9F04105468A
:1022C0000E4617469846FFF758FD002141EA4501A2
:1022D000C8B2FFF7F5FDFFF78BFD20B1FFF76BFDEF
:1022E0000120BDE8F0813046FFF7EAFDFFF780FDF1
:1022F00000240CE018F80400FFF7E2FDFFF778FD7A
:1023000018B1FFF758FD0120EBE7601CC4B2BC42D6
:10231000F0DBFFF750FD0020E3E710B504467348FB
:10232000047000BF724801F009FD0028FAD10121B4
:102330006F48FEF7DBFF10BDF0B589B006460F46CB
:1023400015461C2D01DD09B0F0BD002101AAE81CD5
:10235000115488208DF804008DF805608DF8065022
:10236000002405E0395DE01C01AA1154601CC4B2D0
:10237000AC42F7DB00240AE001A9E81C085C095D17
:102380000844C1B201AAE81C1154601CC4B2E81C84
:102390008442F1DB002405E001A9085DFFF7BDFFE1
:1023A000601CC4B2281D8442F6DB00BFCBE72DE9D8
:1023B000FE4304460D4617461E46DDE90A89200AFB
:1023C0008DF80000E0B28DF80100280A8DF80200B7
:1023D000E8B28DF80300380A8DF80400F8B28DF8E1
:1023E0000500300A8DF80600F0B28DF807004FEABC
:1023F00018208DF8080008F0FF008DF809004FEA5A
:1024000019208DF80A0009F0FF008DF80B000C224E
:102410006946A120FFF790FFBDE8FE832DE9F04F4C
:1024200087B004460D4616461F46DDE911ABDDF8C0
:1024300040904FF0000806E000200DF8080008F179
:10244000010000F0FF08B8F11C0FF5DB200A8DF841
:102450000000E0B28DF80100280A8DF80200E8B211
:102460008DF80300300A8DF80400F0B28DF80500F5
:10247000380A8DF80600F8B28DF807004FEA1920E7
:102480008DF8080009F0FF008DF809004FEA1A20C6
:102490008DF80A000AF0FF008DF80B004FEA1B20B0
:1024A0008DF812000BF0FF008DF813001398000A4E
:1024B0008DF814001398C0B28DF815001498000A16
:1024C0008DF816001498C0B28DF817001C226946CA
:1024D000AF20FFF731FF07B0BDE8F08F0040754037
:1024E000A4703D0AD74342400000C842E8090020DA
:1024F0001C000240D349C8607047D2490861704748
:1025000010B50246881AD04B186018460068CF4BA9
:102510001B68C01A00EB40008000CB4B1B680524F1
:1025200004FB0300CA4B1B681844C94B1860C6481B
:102530000068C64B1860C648006810BD10B502465A
:10254000881AC44B186018460068C34B1B68C01A31
:1025500000EB40008000BF4B1B68052404FB030018
:10256000BE4B1B681844BD4B1860BA480068BA4B94
:102570001860BA48006810BD02460846704700203F
:10258000B74948600860AFF24B0088600020B54949
:1025900048600860AFF25B0088604FF42F60B2497A
:1025A00048600860AFF22F0088600020A5490860ED
:1025B00048604861886108614FF07C50C8604FF402
:1025C0002F60886070472DE9F04F8BB083468A46B4
:1025D000504605F02DF8CDE9000104F043FB80469C
:1025E0004FF06042A14B04F02FFE064600224FF050
:1025F000804304F077FC4FF060429D4BCDE902012F
:1026000004F070FC00229B4BCDE9040104F01AFF9A
:10261000CDE90801584605F00BF8CDE90601DDE9E2
:10262000082304F011FE044604F0B4FD8C49486010
:10263000504604F0FDFFCDE9000104F013FB4FF01C
:1026400060428A4BCDE9020104F0FEFD00224FF00A
:102650008043CDE9040104F045FC4FF06042844B17
:10266000CDE9060104F03EFC06460022814B04F051
:1026700089FB80468946584604F0DAFF0446424604
:102680004B4604F0E1FDCDE9080104F083FD7549F6
:1026900048607949504605F04BF90546774904F002
:1026A000F3FF044605F014F96F4948600BB0BDE82C
:1026B000F08F70B504460D461646002C04DA6142D0
:1026C00088B2FFF707FA02E0A0B2FFF7F3F9002D96
:1026D00004DA694288B2FFF704FA02E0A8B2FFF711
:1026E000F1F967490E8070BD41F270705549096873
:1026F0004242914202DA4142524A1160514909680C
:10270000814201DD4F4908604E49096811F5616F4A
:1027100007DD4C490968B1F5616F02DA0021494AC9
:102720001160484949684242914202DA4142454AB1
:10273000516044494968814201DD4249486041494C
:10274000496811F5616F07DD3E494968B1F5616F70
:1027500002DA00213B4A51603A498968B1F5487F65
:1027600003DA4FF44871374A916036498968B1F508
:10277000965F03DD4FF49651324A916070472DE920
:10278000FC5F0220FFF7A8FAA0F51C50103834496E
:1027900008600320FFF7A0FA42F21071081A3149CD
:1027A00008602F4909682F4A1268881804F021FD33
:1027B0008046344A344B04F047FD06460022334B32
:1027C00004F090FB04460D461E49C86904F030FF32
:1027D000824622462B4604F0D5FACDE9000104F0EA
:1027E0009FFA1849C8610A461169D068FFF7EBFEE5
:1027F0001C48006813494861194800688861194BF2
:10280000596818689A6890470E490860144B5968CF
:1028100018689A6890470B494860134B59681868C4
:102820009A689047104948600846406805498860A2
:10283000FFF75AFF034B9A6859681868FFF739FF8A
:10284000BDE8FC9FD40E0020A4000020AC000020B6
:10285000A8000020B0000020B8000020B400002034
:10286000B00E0020BC0E0020C80E0020CEF7C33FE3
:10287000F97EC23F0000F03F33B31B4500002F45F7
:10288000402C0140D34D621058B93440006088405C
:1028900038B50446012000900020FB494870012013
:1028A00000902DE0BDF80000204018B10120F7494C
:1028B000086002E00020F54908600120F449086042
:1028C000322000F030FA0020F249C1F8B001322085
:1028D00000F029FA0120EF49C1F8B001EE48D0F824
:1028E000340130B1E8484078BDF800100843E649AB
:1028F0004870BDF800004FF6FF7101EA40000090FB
:10290000BDF80000FF28CDDD38BD10B50020DF493F
:10291000091D0860E1490878FFF7BAFFDF494878E8
:10292000FFF7B6FF0120DE49C1F8BC01D648407868
:10293000732801D1002010BD0120FCE71CB5002048
:102940000190012000900020D049091D0860D34962
:102950000878FFF79DFFD1494878FFF799FF0220DB
:10296000019032E00120009023E00120C849086076
:102970000020C849C1F8B001322000F0D4F901208C
:10298000C449C1F8B001C448D0F8340150B1BE48C0
:102990009DF80410405CBDF800100843BA499DF84A
:1029A00004208854BDF800004FF6FF7101EA400092
:1029B0000090BDF80000FF28D7DD322000F0B3F909
:1029C0009DF80400401CC0B201909DF80400092845
:1029D000C8DB0120AD49091D08601CBD002004E0D2
:1029E0000021A94A1154411CC8B20928F8DB7047DC
:1029F00010B5FFF7F3FFFFF7A1FFA348C078A24986
:102A0000097940EA0120A749088000240FE0A64880
:102A100010F81400401E012101FA00F0A1490988B4
:102A2000084010B9601CC0B210BD601CC4B2102CAC
:102A3000EDDB0020F8E701469348405C704710B595
:102A400000209249091D0860102000F06CF9012057
:102A5000FFF71EFF4220FFF71BFF0020FFF718FFC4
:102A60000020FFF715FF0020FFF712FF01208C491F
:102A7000C1F8BC01102000F056F910BD10B50020BF
:102A80008249091D0860102000F04DF90120FFF770
:102A9000FFFE4320FFF7FCFE0020FFF7F9FE0120B8
:102AA000FFF7F6FE0020FFF7F3FE0020FFF7F0FE31
:102AB0000020FFF7EDFE0020FFF7EAFE0020FFF701
:102AC000E7FE01207649C1F8BC01102000F02BF987
:102AD00010BD10B500206D49091D08600120FFF7E9
:102AE000D7FE4420FFF7D4FE0020FFF7D1FE0120DF
:102AF000FFF7CEFEEE20FFF7CBFE0020FFF7C8FE6B
:102B00000020FFF7C5FE0020FFF7C2FE0020FFF700
:102B1000BFFE01206249C1F8BC01102000F003F99A
:102B200010BD10B500205949091D0860102000F0A3
:102B3000FAF80120FFF7ACFE4D20FFF7A9FE0020B8
:102B4000FFF7A6FE0020FFF7A3FE0120FFF7A0FE7F
:102B500001205349C1F8BC01102000F0E4F810BD79
:102B600010B500204949091D0860102000F0DBF86D
:102B70000120FFF78DFE4320FFF78AFE0020FFF7BC
:102B800087FE0020FFF784FE5A20FFF781FE5A20BF
:102B9000FFF77EFE5A20FFF77BFE5A20FFF778FEF4
:102BA0005A20FFF775FE01203D49C1F8BC011020F5
:102BB00000F0B9F810BD08B501213C4800F087FBD2
:102BC00001211C2000F06EFD4FF44040ADF80000E4
:102BD00010208DF8030003208DF802006946344868
:102BE00000F0A4FA4FF48050ADF800006946314877
:102BF00000F09CFA4FF40050ADF8000004208DF86E
:102C0000030003208DF8020069462B4800F08EFA7D
:102C1000FFF715FFFFF713FFFFF711FFFFF72EFF79
:102C2000FFF757FFFFF77DFFFFF79AFF08BD70B56D
:102C300005460C4600201549091D0860102000F0CB
:102C400072F80120FFF724FE4220FFF721FE00204A
:102C5000FFF71EFE2846FFF71BFE2046FFF718FE73
:102C60000020FFF715FE0020FFF712FE0020FFF7FF
:102C70000FFE0020FFF70CFE01200949C1F8BC013E
:102C8000102000F050F870BDF40E0020B8812142F1
:102C9000B00121420000214200002242BE0000207B
:102CA00000802142BC000020C00000200002300053
:102CB000000C014000080140001001402D484FF079
:102CC000E0214861002088610846006940F0030067
:102CD000086170474FF0E021086927490968491CDD
:102CE000254A116070474FF0E02080692149081A99
:102CF00042F22831B0FBF1F01F49096801EB810174
:102D000000EB410070474FF0E02080691949081A34
:102D10000921B0FBF1F11848006840F271225043DC
:102D200001EB0010704730B5134B19684FF0E023EA
:102D30009B69104CE21A00BF4FF0E0239B690D4CD9
:102D4000E41A0D4B1B685B1A41F2F9556B4304EB17
:102D500003139B1A00EBC004A342EDD330BD30B582
:102D600004464FF47A7004FB00F52846FFF7DBFFBA
:102D700030BD0000905F0100E000002030BF7047D0
:102D800072B6704762B6704770B503461F48405C24
:102D900040EA0310C2B21D484254CC1701EBD46480
:102DA0006411A40004F1E024D4F800410A46CD17D0
:102DB00001EBD5656D11A1EB45160125B5402C43FE
:102DC0000846CD1701EBD5656D11AD0005F1E02585
:102DD000C5F8004170BD30B5C31700EBD3635C117B
:102DE0000B4B53F824300246C41700EBD464641133
:102DF000A0EB44150124AC4023430146C41700EB6B
:102E0000D4646511024C44F8253030BD00E400E084
:102E100080E100E000BF704700BF4A4A128802F01C
:102E20004002002AF9D0C2B2464B1B1D1A807047DF
:102E300010B586B00446012144F2040000F032FCD3
:102E40004FF40070ADF8140003208DF81600182020
:102E50008DF8170005A93C4800F068F94FF4806030
:102E6000ADF8140004208DF8170005A9364800F0CD
:102E70005DF925208DF8000003208DF801008DF804
:102E8000020001208DF80300684600F086F80194E6
:102E90000020ADF80800ADF80A00ADF80C00ADF860
:102EA00010000C20ADF80E0001A9264800F0A1FC8E
:102EB000012240F22551234800F033FD0121214831
:102EC00000F023FD06B010BD10B540F225511D489D
:102ED00000F00CFE10B31B4800F088FDC4B21B4884
:102EE000008800F40040C8B91848008800F4804009
:102EF00060B10A2C03D000201449088020E0134858
:102F0000008840F400401149088019E00D2C06D1DA
:102F10000E48008840F480400C49088010E00B48BF
:102F20000088C0F30D000A490C5408480088401C72
:102F30000649088008460088C72801DD002008806F
:102F400010BD00000038014000080140E8000020EA
:102F5000FD0E00200948804709480047FEE7FEE7CC
:102F6000FEE7FEE7FEE7FEE7FEE7FEE7FEE7FEE739
:102F700004480549034A054B704700003F05000817
:102F8000ED00000828100020282000202810002034
:102F900031490143314A1160704770B50021002367
:102FA0000F22C47804B32D4C246804F4E064C4F503
:102FB000E064210AC1F10403CA40447804FA03F131
:102FC0008478144021430901254C0678A1550478E2
:102FD00004F01F050124AC4005786D11AD0005F12A
:102FE000E025C5F8004109E0047804F01F0501243C
:102FF000AC401C4D0678761145F8264070BD1A4A43
:103000000A400243154B1B1F1A60704739B1134A1F
:10301000121D12680243114B1B1D1A6006E00F4A75
:10302000121D126882430D4B1B1D1A607047042845
:1030300008D14FF0E021096941F004014FF0E0228E
:10304000116107E04FF0E021096921F004014FF020
:10305000E0221161704700000000FA050CED00E06D
:1030600000E400E080E100E080FFFF1F10B50446AF
:10307000CC48844208D10121042000F02DFB00211E
:10308000042000F029FB46E0C748844208D1012112
:10309000082000F021FB0021082000F01DFB3AE091
:1030A000C248844208D10121102000F015FB002104
:1030B000102000F011FB2EE0BD48844208D1012110
:1030C000202000F009FB0021202000F005FB22E079
:1030D000B848844208D10121402000F0FDFA0021C7
:1030E000402000F0F9FA16E0B348844208D10121EB
:1030F000802000F0F1FA0021802000F0EDFA0AE0D3
:10310000AE48844207D10121801500F0E5FA002184
:10311000A01500F0E1FA10BD10B50121084600F03D
:10312000DBFA0021012000F0D7FA10BD2DE9F041B3
:10313000024600250026002000230024002791F8E5
:1031400003C00CF00F0591F803C00CF0100CBCF19B
:10315000000F03D091F802C04CEA050591F800C0B9
:10316000BCF1000F31D0146800202BE04FF0010CAF
:103170000CFA00F3B1F800C00CEA03069E4220D11D
:1031800083004FF00F0C0CFA03F7BC4305FA03FC65
:103190004CEA040491F803C0BCF1280F06D14FF0AB
:1031A000010C0CFA00FCC2F814C00AE091F803C04C
:1031B000BCF1480F05D14FF0010C0CFA00FCC2F82D
:1031C00010C0401C0828D1D31460B1F800C0BCF175
:1031D000FF0F34DD546800202EE000F1080C4FF0A2
:1031E000010808FA0CF3B1F800C00CEA03069E428D
:1031F00021D183004FF00F0C0CFA03F7BC4305FA02
:1032000003FC4CEA040491F803C0BCF1280F05D17B
:1032100000F1080C08FA0CF8C2F8148091F803C009
:10322000BCF1480F07D100F1080C4FF0010808FA73
:103230000CF8C2F81080401C0828CED35460BDE8BA
:10324000F0814FF6FF710180022181700421C1706D
:1032500070470246002093680B400BB1012000E04C
:10326000002070470146886880B2704702460020FF
:10327000D3680B400BB1012000E0002070470146ED
:10328000C86880B2704701617047416170470AB1F8
:10329000016100E041617047C16070474FF48032C6
:1032A0000A43826181618261826982697047024654
:1032B0000020434B18684FF68073184040EA021014
:1032C00008433F4B186070473E49C8617047F0B5EE
:1032D0000A46002300240021002500F00046B6F134
:1032E000004F02D1364EF16901E0354E7168C0F3EE
:1032F000034583B200F44016B6F5401F08D121F013
:1033000070612F4E766826F070662D4F7E6012E059
:1033100000F48016B6F5801F06D1032606FA05F4E0
:10332000A14341F0706106E0460D360103FA06F64E
:10333000B14341F0706122B1460D360103FA06F641
:10334000314300F00046B6F1004F02D11C4EF1614E
:1033500001E01B4E7160F0BD30B500228B071C0FE1
:103360000F2303FA04F2164B08338C1053F8243061
:103370009343134C08348D1044F8253023468C10A9
:1033800053F824308C07240F00FA04F423430C4C28
:1033900008348D1044F8253030BD0A49DC3108600E
:1033A0007047000000080140000C0140001001407F
:1033B0000014014000180140001C014000200140A1
:1033C0000000014000002042DF48006840F001009A
:1033D000DD49086008464068DC490840DA49486031
:1033E00008460068DA490840D7490860084600687E
:1033F00020F4802008600846406820F4FE00486001
:103400004FF41F0088607047CF49096821F480316C
:10341000CD4A11601146096821F480211160B0F590
:10342000803F03D0B0F5802F0ED106E0C649096871
:1034300041F48031C44A116007E0C349096841F48E
:10344000A021C14A116000E000BF00BF704710B565
:1034500001460022002300204A11012A02D1BA4C61
:10346000236806E0022A02D1B74C236A01E0B64C79
:10347000636A01F01F02012494401C400CB101203A
:1034800000E0002010BD38B5002000900024002589
:1034900000BF3120FFF7DBFF05460098401C00907D
:1034A0000098B0F5A06F01D0002DF2D03120FFF7C9
:1034B000CEFF08B1012400E00024204638BD0146BB
:1034C0000020A14A106820F0F80040EAC100106016
:1034D0007047A04908607047024600209A4B586820
:1034E00020F47C1042EA01031843974B5860704760
:1034F00098490866704701460020934A506820F0BA
:1035000003000843506070478F48406800F00C008B
:103510007047014600208C4A506820F0F0000843B4
:103520005060704701460020874A506820F4E060F0
:1035300008435060704701460020834A506820F4D9
:10354000605040EAC1005060704729B17E4A527A0B
:1035500002437D4B5A7204E07B4A527A82437A4B93
:103560005A7270477B49D831086070470146002085
:10357000754A506820F4404008435060704700216D
:10358000714A20321170704A82F82010012802D04E
:1035900004280AD104E001216B4A2032117005E0B1
:1035A0000521694A2032117000E000BF00BF70475A
:1035B0006949086070476449096A0143624A1162B7
:1035C0007047654944390860704730B500210022D2
:1035D000002400235C4D6D6805F00C0121B1042925
:1035E00005D0082923D105E05C4D056022E05B4D44
:1035F00005601FE0544D6D6805F47012524D6D6802
:1036000005F48034022505EB92421CB9544D554314
:1036100005600BE04C4D6D6805F400351DB1504D53
:103620005543056002E04D4D5543056002E04B4DAA
:10363000056000BF00BF444D6D6805F0F001090949
:10364000484D6B5C0568DD4045603F4D6D6805F495
:10365000E061090A434D6B5C4568DD4085603A4D89
:103660006D6805F46051C90A3E4D6B5C4568DD40EC
:10367000C560354D6D6805F44041890B3A4D6B5C72
:10368000C568B5FBF3F5056130BD29B12E4A526915
:1036900002432D4B5A6104E02B4A526982432A4B64
:1036A0005A61704729B1284A92690243264B9A61B0
:1036B00004E0254A92698243234B9A61704729B1FD
:1036C000214AD2690243204BDA6104E01E4AD269E2
:1036D00082431D4BDA61704729B11B4AD26802430D
:1036E000194BDA6004E0184AD2688243164BDA605C
:1036F000704729B1144A12690243134B1A6104E05E
:10370000114A12698243104B1A61704712494039BD
:10371000086070470F49C86470470B49C87170470B
:103720000948406A40F08070074948627047014686
:103730000020054A92680A400AB1012000E00020FA
:103740007047014988727047001002400000FFF87E
:10375000FFFFF6FE000042428004424200127A005F
:1037600000093D00EA000020FA00002010B50446E0
:10377000FB48844209D101218803FFF7ADFF0021F6
:103780004FF48040FFF7A8FF32E0F648844209D1A9
:1037900001214804FFF7ADFF00214FF40030FFF78F
:1037A000A8FF25E0F048844209D101218804FFF7F1
:1037B000A0FF00214FF48020FFF79BFF18E0EB48AB
:1037C000844209D10121C804FFF793FF00214FF47F
:1037D0000020FFF78EFF0BE0E548844208D101216D
:1037E0000805FFF786FF00214FF48010FFF781FFE7
:1037F00010BD2DE9F04786B005460E460024A246CE
:1038000000BFA1460027B08900B100BF2F462C8A17
:103810004CF6FF700440F08804432C82AC894EF6CD
:10382000F3100440B0883189084371890843044388
:10383000AC81AC8A4FF6FF400440B0890443AC82AF
:1038400001A8FFF7C2FEC648874202D1DDF810A0EA
:1038500001E0DDF80CA0A88900F4004040B10AEBBB
:10386000CA0000EB0A1031684900B0FBF1F807E02C
:103870000AEBCA0000EB0A1031688900B0FBF1F8CE
:103880006420B8FBF0F004012009642101FB1089D9
:10389000A88900F4004040B1322000EBC900B0FB21
:1038A000F1F000F00700044308E0322000EB0910BB
:1038B0006421B0FBF1F000F00F0004432C8106B04E
:1038C000BDE8F0874FF41651016000218180C1806E
:1038D00001810C21418100218181704710B5024690
:1038E0000020108A4FF2FF0318400B884C882343B6
:1038F0008C882343CC8823431843108210BD0021B9
:10390000018041808180C180704721B1828942F469
:103910000052828104E082894DF6FF731A40828151
:103920007047F0B50346002400260025002040F62D
:103930006A17B94200D100BF1846C1F3421401F022
:103940001F06012707FA06F5012C01D10C3004E00F
:10395000022C01D1103000E014301AB107682F4357
:10396000076002E00768AF430760F0BD1AB1838AC1
:103970000B43838202E0838A8B4383827047028AEF
:103980004FF6F0731A400282028A0A43028270479D
:1039900082894FF2FF731A40828182890A438281B1
:1039A000704721B1828942F00202828104E082895B
:1039B0004FF6FD731A4082817047028A4FF6DF731B
:1039C0001A400282028A0A430282704721B1028AA7
:1039D00042F48042028204E0028A4BF6FF731A40EE
:1039E00002827047C1F308028280704701468888CE
:1039F000C0F308007047818941F00101818170475F
:103A0000028BD2B20283028B42EA01220283704708
:103A1000028B02F47F420283028B0A4302837047C7
:103A200021B1828A42F02002828204E0828A4FF62B
:103A3000DF731A408282704721B1828A42F01002FD
:103A4000828204E0828A4FF6EF731A4082827047C6
:103A500021B1828A42F00802828204E0828A4FF613
:103A6000F7731A408282704721B1828942F4004282
:103A7000828103E08289C2F30E028281704721B104
:103A8000828A42F40062828204E0828A4FF2FF73EB
:103A90001A4082827047828A4FF6FB731A408282F4
:103AA000828A0A438282704721B1828A42F00202EE
:103AB000828204E0828A4FF6FD731A408282704748
:103AC00002460020B1F5007F00D100BF13880B40F3
:103AD0000BB1012000E00020704701F40072B2F544
:103AE000007F00D100BFCA430280704770B5024614
:103AF000002400230025002040F66A16B14200D1C0
:103B000000BFC1F3421501F01F03012606FA03F3BB
:103B1000012D02D19689334006E0022D02D1168A8A
:103B2000334001E0968A33400C12012606FA04F471
:103B30001688344013B10CB1012000E0002070BDA4
:103B400010B50022002340F66A14A14200D100BF44
:103B50000A1201249440A3B2DC43048010BD00008B
:103B6000003801400044004000480040004C004044
:103B70000050004001684FF6FE72114001600021C4
:103B8000016041608160C1608D49884208D18C49E3
:103B90000839496841F00F01894A083A51608AE0C2
:103BA00087491431884208D185490839496841F06C
:103BB000F001834A083A51607DE08149283188420A
:103BC00008D17F490839496841F470617C4A083A54
:103BD000516070E07A493C31884208D1784908390F
:103BE000496841F47041764A083A516063E074498B
:103BF0005031884208D172490839496841F470212E
:103C00006F4A083A516056E06D496431884208D1E4
:103C10006B490839496841F47001694A083A5160B2
:103C200049E067497831884208D1654908394968CF
:103C300041F07061624A083A51603CE06149884253
:103C400006D1011F096841F00F01021F116032E027
:103C50005C491431884208D15A49091F096841F06A
:103C6000F001584A121F116025E056492831884258
:103C700008D15449091F096841F47061514A121F63
:103C8000116018E04F493C31884208D14D49091F65
:103C9000096841F470414B4A121F11600BE0494919
:103CA0005031884207D14749091F096841F4702102
:103CB000444A121F1160704710B50022026847F68F
:103CC000F0739A430C6A8B6823430C6923434C6955
:103CD00023438C692343CC6923434C6A23438C6A76
:103CE00023431A430260CB6843600B6883604B68D0
:103CF000C36010BD0021016041608160C16001614D
:103D000041618161C161016241628162704721B19B
:103D1000026842F00102026004E002684FF6FE739E
:103D20001A40026070471AB103680B43036002E057
:103D300003688B43036070474160704701464868E1
:103D400080B2704701460020002201F080531BB171
:103D50001C4B083B1A6802E0194B083B1A6802EA40
:103D600001030BB1012000E00020704700F08051FA
:103D700019B11449091F086002E011490839486067
:103D8000704701460020002201F080531BB10D4B0B
:103D9000083B1A6802E00A4B083B1A6802EA010372
:103DA0000BB1012000E00020704700F0805119B1F4
:103DB0000449091F086002E001490839486070475A
:103DC000080002400804024010B50446FE48844240
:103DD00008D10121C014FFF77FFC0021E014FFF798
:103DE0007BFCC4E0B4F1804F08D101210846FFF705
:103DF00080FC00210120FFF77CFCB8E0F3488442FE
:103E000008D101210220FFF774FC00210220FFF7F6
:103E100070FCACE0EE48844208D101210420FFF799
:103E200068FC00210420FFF764FCA0E0E94884421C
:103E300008D101210820FFF75CFC00210820FFF7D2
:103E400058FC94E0E448844208D101211020FFF797
:103E500050FC00211020FFF74CFC88E0DF48844232
:103E600008D101212020FFF744FC00212020FFF78A
:103E700040FC7CE0DA48844208D101214014FFF77D
:103E80002BFC00216014FFF727FC70E0D54884422A
:103E900009D10121C804FFF71FFC00214FF40020C5
:103EA000FFF71AFC63E0D048844209D101210805DC
:103EB000FFF712FC00214FF48010FFF70DFC56E0D5
:103EC000CA48844209D101214805FFF705FC0021B9
:103ED0004FF40010FFF700FC49E0C548844208D1C8
:103EE00001214020FFF705FC00214020FFF701FCE5
:103EF0003DE0C048844208D101218020FFF7F9FB52
:103F000000218020FFF7F5FB31E0BB48844208D157
:103F100001218015FFF7EDFB0021A015FFF7E9FB5C
:103F200025E0B648844209D101210804FFF7D4FBFB
:103F300000214FF48030FFF7CFFB18E0B0488442F7
:103F400009D101214804FFF7C7FB00214FF40030DD
:103F5000FFF7C2FB0BE0AB48844208D10121880483
:103F6000FFF7BAFB00214FF48020FFF7B5FB10BD2F
:103F700000220288944B98420ED0994B98420BD065
:103F8000B0F1804F08D0914B984205D0904B9842A9
:103F900002D0904B984204D14FF68F731A404B8851
:103FA0001A438D4B984207D08C4B984204D04FF661
:103FB000FF431A40CB881A4302808B8883850B8885
:103FC0000385814B98420BD0854B984208D08B4B90
:103FD000984205D08A4B984202D08A4B984201D130
:103FE0000B7A038601238382704770B50024002278
:103FF0000023058C4FF6FE7635400584028C8388BD
:10400000048B4FF68F752C40B51E2C400D882C4329
:10401000751E2A400D892A434D882A436A4DA842BD
:104020000BD06F4DA84208D0744DA84205D0744DF6
:10403000A84202D0734DA84213D14FF6F7752A401B
:104040004D892A434FF6FB752A408D882A434FF647
:10405000FF652B404FF6FF552B408D892B43CD89B3
:104060002B4383800483CD888586028470BD70B520
:10407000002400220023058C4FF6EF76354005849E
:10408000028C8388048B48F6FF752C404FF6FF4561
:104090002C400D884FF6FF7606EA05252C434FF697
:1040A000DF752A400D8906EA05152A434D8806EA80
:1040B00005152A43444DA84202D0494DA8421DD1BE
:1040C0004FF67F752A404D894FF6FF7606EA0515B3
:1040D0002A434FF6BF752A408D8806EA05152A4304
:1040E0004FF6FF352B404FF2FF752B408D8906EAC6
:1040F00085052B43CD8906EA85052B438380048300
:10410000CD880587028470BD70B50024002200238D
:10411000058C4FF6FF6635400584028C8388848BBE
:104120004FF68F752C404FF6FC752C400D882C43B4
:104130004FF6FF552A400D894FF6FF7606EA052512
:104140002A434D8806EA05252A431F4DA84202D07E
:10415000234DA8421DD14FF2FF752A404D894FF6DD
:10416000FF7606EA05252A434FF6FF352A408D885B
:1041700006EA05252A434EF6FF752B404DF6FF75DE
:104180002B408D8906EA05152B43CD8906EA0515D6
:104190002B4383808483CD888587028470BD70B56E
:1041A000002200230024058C4EF6FF76354005845E
:1041B000038C8488828B48F6FF752A404FF6FF45B2
:1041C0002A400D8820E00000002C0140000400403F
:1041D00000080040000C00400010004000140040A7
:1041E00000340140004C01400050014000540140A7
:1041F00000180040001C004000200040004001402A
:1042000000440140004801404FF6FF7606EA0525CC
:104210002A434DF6FF752B400D8906EA05352B43E1
:104220004D8806EA05352B43FA4DA84202D0FA4DD7
:10423000A84208D14BF6FF752C408D894FF6FF76CA
:1042400006EA85152C4384808283CD88A0F84050EF
:10425000038470BD828B4FF2FF331A408283828BBE
:104260004FF6FF7303EA01231A4382837047F0B5C8
:104270000C461546002200210026078C4EF6FF7CD6
:1042800007EA0C070784828B018C4FF6FF7707EA59
:10429000043640F6FF473A404FF6FF7707EA052716
:1042A0003A434FF6FF7707EA03373A43D94FB8420C
:1042B0000ED0D94FB8420BD0B0F1804F08D0D74FB5
:1042C000B84205D0D64FB84202D0D64FB84206D138
:1042D0004DF6FF77394046F48057394305E047F6FD
:1042E000FF57394044F48057394382830184F0BD3D
:1042F000828B4FF6F3731A408283828B0A43828348
:104300007047F0B50C461546002200210026078CA8
:104310004FF6FF6C07EA0C070784828B018C4FF67F
:10432000FF7707EA04264FF60C773A404FF6FF77FF
:1043300007EA03172F433A43B64FB8420ED0B64FA1
:10434000B8420BD0B0F1804F08D0B44FB84205D07E
:10435000B34FB84202D0B34FB84206D14FF6FF5721
:10436000394046F48077394305E04FF2FF57394032
:1043700044F48077394382830184F0BD028B4FF28D
:10438000FF331A400283028B4FF6FF7303EA0123C7
:104390001A4302837047F0B50C46154600220021EF
:1043A0000026078C4FF6EF7C07EA0C070784028B88
:1043B000018C4FF6FF7707EA041640F6FF473A40B4
:1043C0004FF6FF7707EA03373A434FF6FF7707EADE
:1043D00005273A438F4FB8420ED08F4FB8420BD0CB
:1043E000B0F1804F08D08D4FB84205D08C4FB84205
:1043F00002D08C4FB84206D14FF6DF77394046F0F5
:104400001007394305E04FF65F77394044F0100755
:10441000394302830184F0BD028B4FF6F3731A40D7
:104420000283028B0A4302837047F0B50C4615469F
:1044300000220021068C4FF6FE773E400684028B58
:10444000018C4FF60C7632407E1C06EA03162E4392
:104450003243704EB0420ED06F4EB0420BD0B0F12E
:10446000804F08D06D4EB04205D06D4EB04202D0A4
:104470006C4EB04206D14FF6FD76314044F0010655
:10448000314305E04FF6F576314044F00106314303
:1044900002830184F0BD70B505460C465D48854237
:1044A0000ED05D4885420BD0B5F1804F08D05B48F7
:1044B000854205D05A48854202D05A48854200D1EB
:1044C00000E000BF208850B92389A288618828466F
:1044D000FFF7ABFFE1882846FFF79EFF25E0208825
:1044E00004280AD12389A28861882846FFF753FF50
:1044F000E1882846FFF742FF17E0208808280AD104
:104500002389A28861882846FFF7FBFEE1882846B8
:10451000FFF7EEFE09E02389A28861882846FFF7AD
:10452000A6FEE1882846FFF795FE70BD2DE9F04113
:1045300005460C4600260127608808B9022600E0DF
:104540000026A088012801D1022700E00127208849
:10455000A0B92389A28861882846FFF766FFE18811
:104560002846FFF759FF23893A4631462846FFF788
:1045700012FFE1882846FFF701FF13E02389A28894
:1045800061882846FFF707FFE1882846FFF7F6FE17
:1045900023893A4631462846FFF747FFE1882846F7
:1045A000FFF73AFFBDE8F0810A884B881A438B88F1
:1045B0001A43CB881A430B891A434B891A438B89B8
:1045C0001A43A0F8442070474FF6FF718180002104
:1045D0000180C180418001727047002101804180CB
:1045E0008180C180018141818181C1817047002129
:1045F00001804180012181800021C18001817047BB
:104600000021018041808180C180018141818181BF
:1046100070470000002C01400034014000040040BD
:1046200000080040000C004021B1028842F0010265
:10463000028004E002884FF6FE731A400280704741
:1046400031B1B0F8442042F40042A0F8442005E023
:10465000B0F84420C2F30E02A0F8442070471AB10B
:1046600083890B43838102E083898B438381704775
:104670008182704741EA0203A0F8483070471AB1BE
:1046800083890B43838102E083898B438381704755
:1046900001894FF6F8721140018170470A460021E6
:1046A00001894FF68F73194011430181704730B56E
:1046B00004460D4629462046FFF7F0FF208940F0CA
:1046C0000700208130BD2DE9F04104460D46164615
:1046D0001F46602D06D13B46012231462046FFF79A
:1046E0005AFE05E03B46012231462046FFF79DFE7B
:1046F00029462046FFF7D2FF208940F0070020819D
:10470000BDE8F08130B50C4600210189C9B24FF6F1
:10471000FF7505EA0325154325432943018130BD73
:104720002DE9F04105460E461746984600244346BB
:104730003A4631462846FFF7E5FF2C894FF6F870D8
:10474000044044F007044FF68F70044044F07004B6
:104750002C81BDE8F081F0B504460D4616461F4693
:104760003B46324629462046FFF7CCFF208940F4DD
:1047700080402081F0BD0185828270470A46002179
:1047800001884FF68F731940114301807047F0B5CF
:104790000C4615461E460021002200230189028B8B
:1047A000038C4FF6F877394021434FF6FC473A40E7
:1047B00040F201173A434FF6DD773B404FF6FF7763
:1047C00007EA06172F433B43018102830384F0BDB0
:1047D0000A460021018B4FF68F7319401143018364
:1047E00070470A460021018B48F6FF7319404FF6C7
:1047F000FF7303EA02231943018370470A4600212D
:10480000818B4FF68F7319401143818370470A469D
:104810000021818B48F6FF7319404FF6FF7303EABE
:10482000022319438183704721B1028842F080023C
:10483000028004E002884FF67F731A4002807047BE
:1048400021B1828842F00402828004E082884FF61F
:10485000FB731A408280704721B1828842F00802BF
:10486000828004E082884FF6F7731A408280704796
:1048700021B1828842F00102828004E082884FF6F2
:10488000FE731A40828070470A460021018B4FF662
:10489000F77319401143018370470A460021018BC9
:1048A0004FF2FF7319404FF6FF7303EA02231943D7
:1048B000018370470A460021818B4FF6F773194038
:1048C0001143818370470A460021818B4FF2FF73A9
:1048D00019404FF6FF7303EA02231943818370479F
:1048E0000A460021018B4FF6FB73194011430183E7
:1048F00070470A460021018B4FF6FF3319404FF6EF
:10490000FF7303EA02231943018370470A4600211B
:10491000818B4FF6FB7319401143818370470A4620
:104920000021818B4FF6FF3319404FF6FF7303EAE6
:1049300002231943818370470A460021018B4FF6F9
:104940007F7319401143018370470A460021018B90
:10495000C1F30E014FF6FF7303EA022319430183EB
:1049600070470A460021818B4FF67F73194011432F
:10497000818370470A460021818BC1F30E014FF6F7
:10498000FF7303EA02231943818370470A4600211B
:10499000018C4FF6FD7319401143018470470A469C
:1049A0000021018C4FF6F7731940114301847047C1
:1049B0000A460021018C4FF6DF7319404FF6FF7352
:1049C00003EA02131943018470470A460021018C4F
:1049D0004FF67F7319404FF6FF7303EA0213194332
:1049E000018470470A460021018C4FF6FF5319409D
:1049F0004FF6FF7303EA02231943018470470A4606
:104A00000021018C4FF2FF7319404FF6FF7303EA48
:104A100002231943018470470A460021018C4DF698
:104A2000FF7319404FF6FF7303EA02331943018401
:104A3000704730B5002301248C40A3B2048C9C4302
:104A40000484048C02FA01F5ADB22C43048430BD19
:104A500030B5002304248C40A3B2048C9C4304840E
:104A6000048C02FA01F5ADB22C43048430BD70B55C
:104A70000346002000241846183001258D40ACB2B2
:104A80001D8CA5431D8409B1082909D100EB6100E3
:104A9000056825F0700505600568154305600EE0A2
:104AA0000D1FC5F34E052844056825F4E045056053
:104AB00005684FF6FF7606EA02263543056070BDAD
:104AC00021B1028842F00202028004E002884FF61F
:104AD000FD731A400280704721B1028842F004023F
:104AE000028004E002884FF6FB731A400280704790
:104AF00021B1828842F08002828004E082884FF6F1
:104B00007F731A408280704702884FF6F7731A400D
:104B1000028002880A430280704782884FF68F73B2
:104B20001A40828082880A438280704702894FF649
:104B3000F8731A40028102890A4302817047028990
:104B40004FF67F731A40028102890A43028170473F
:104B500081847047818570478186704701877047DF
:104B600081877047A0F84010704702884FF6FF43D6
:104B70001A40028002880A43028070470146888EEC
:104B800070470146088F70470146888F704701467D
:104B9000B1F8400070470146888C70470146088D87
:104BA000704702460020138A0B400BB1012000E041
:104BB00000207047CA430282704730B50246002089
:104BC00000230024158A05EA0103958905EA0104FA
:104BD00013B10CB1012000E0002030BDCA430282B5
:104BE000704770470FB41CB5084B06AA7B44694652
:104BF0000090059800F0AFFC04460020694600F0E4
:104C0000BDFC20461CBC5DF814FB00008D090000B3
:104C10000FB4044910B503AA029800F0B5FC10BC0B
:104C20005DF814FBE40000200FB41CB5084B06AA85
:104C30007B4469460090059800F08DFC04460020F6
:104C4000694600F09BFC20461CBC5DF814FB00008C
:104C50004909000070B5044685690068C10601D5A0
:104C6000302600E02026C00707D070BDD4E901211E
:104C700030469047206A401C20626D1EF6D570BDFC
:104C800070B5044685690078C00707D170BDD4E9C6
:104C9000012120209047206A401C20626D1EF6D51D
:104CA00070BD00002DE9F04106460024106875290A
:104CB000314616A510D000F094F9002802DA4042DF
:104CC00013A507E031688A0701D512A502E049075C
:104CD00004D511A5012401E000F08CF900210A227D
:104CE00006F1240709E0B0FBF2FCB0FBF2F302FB93
:104CF0001C00303078541846491C0028F3D1234654
:104D00002A463046BDE8F04100F0A6B90000000098
:104D10002D0000002B00000020000000F0B40D4624
:104D20000188090502D5214C7C4402E01F4C7C44DB
:104D30000E34002100F1240608E002F00F071209EA
:104D4000E75D42EA03721B097754491C52EA0307E4
:104D5000F3D102780023120704D5702D06D009B1D3
:104D6000022311342246F0BC00F076B9012310343E
:104D7000F8E770B504460D462146106800F03AF990
:104D8000024629462046BDE870400023C6E7D21DF2
:104D900022F00703D3E90023C0E70368126843F059
:104DA000200303600823C3610023B7E7E239000052
:104DB0002DE9F05F894604464FF0000ADFF874B130
:104DC000FB44C0F820A02046E1688847002874D042
:104DD000252806D0D4E901219047206A401C206292
:104DE000F1E700265F462046E1688847202805460F
:104DF00007DB312D05D2781910F8200C08B10643D5
:104E0000F1E7B00701D526F00406C4F81CA000277E
:104E1000C4F818A02A2D09D0284601F01BFF38B38A
:104E200004EB8708303DC8F8185019E059F8041B06
:104E3000204604EB87029161E1688847012F05460F
:104E400018D1E069002820DA26F020061DE0D8F805
:104E5000180000EB800005EB40003038C8F818005F
:104E60002046E1688847054601F0F4FE0028EED1AF
:104E7000012F0AD02E2D08D12046E16888477F1CDB
:104E80000546022F46F02006C4DBA069002803DA9D
:104E9000404246F00106A061F00701D026F010065E
:104EA0006C2D0BD0682D09D04C2D39D06A2D35D002
:104EB000742D35D07A2D33D016E038E0E1682F46D6
:104EC00020468847B842054609D16C2F26D04FF4BA
:104ED0008060E168064320468847054604E06C2F61
:104EE0001AD04FF4807006430DB3A5F14100192884
:104EF00002D8203546F400664A46294620462660F8
:104F00004E46FBF72DF980B101280BD0F61D26F097
:104F1000070000F1080956E74020E4E78020D8E7C1
:104F20000020D6E706F104094DE7284652E7206A3B
:104F3000BDE8F09F7239000010B5431C02E010F884
:104F4000011B71B18107FAD14FF0013202C88C1AEE
:104F50008C4314EAC211F9D0C01A0A0603D0C01E4D
:104F600010BDC01A10BD0A0401D0801E10BD090278
:104F7000FCD0401E10BD4FF0000200B51346944611
:104F80009646203922BFA0E80C50A0E80C50B1F1A1
:104F90002001BFF4F7AF090728BFA0E80C5048BFB5
:104FA0000CC05DF804EB890028BF40F8042B08BF53
:104FB000704748BF20F8022B11F0804F18BF00F84F
:104FC000012B7047704770477047704710B500F06D
:104FD000C5FB006810BD10B5044600F0BFFB0460BF
:104FE00010BD09684A0501D540B27047C905FCD516
:104FF00000B2704709684A0501D5C0B27047C905BB
:10500000FCD580B2704770B50C460546012A05D024
:105010002878800600D5EA69002302E0012305E034
:105020005B1C934202D2E05C0028F9D1A869E61823
:10503000C01AA861286A184428622846FFF70AFEA9
:1050400004E0D5E9012114F8010B9047B442F8D3EC
:105050002846FFF715FE70BD2DE9F0470D4699462D
:105060009246044600F124080168880604D5E069E8
:1050700021F01001216000E00120A84201DD471B62
:1050800000E00027A1697A1902EB0900081AA06163
:105090002078C00602D42046FFF7DCFD002608E099
:1050A000D4E901211AF806009047206A401C761CBA
:1050B00020624E45F4DB2078C0060AD52046FFF773
:1050C000C9FD06E0D4E9012130209047206A401C48
:1050D0002062381EA7F10107F4DC07E0D4E90121C2
:1050E00018F805009047206A401C2062281EA5F190
:1050F0000105F3DC2046FFF7C3FD2078000602D54A
:105100000220BDE8F0870120FBE711680268006A11
:10511000530501D508700AE0D30501D5088006E0E3
:10512000130603D5C217C1E9000200E008600120A0
:10513000704770472DE9FF4F0C461E464FF0FF3772
:105140008BB0D2E90001DDF860800A908A46C1F395
:105150000A5505B93D46002108464FF00000BAF156
:10516000000F00F4400005DA00EB80004FF440012E
:1051700001EA50004FEA9059B9F1010F00DDB9463C
:105180000A9850EA4A000ED044F61050A5F2FF35B6
:1051900045432F14B8F1000F1ED07542291E1EDDA5
:1051A000C9F100021CE0B8F1010F4FF0000001D07E
:1051B000302103E0F24305E02154401CB042FBDB08
:1051C00030460022002121540B99C1F80880C1E922
:1051D00000200FB0BDE8F08FBD1B6D1CDEE74A4616
:1051E00000DA694206A800F0EDFC06AB93E8070080
:1051F00003AB83E8070050460A9900F0F1FD8DE803
:105200000700A0F500501F3800900398002D09DD1D
:1052100042F21F014A46084403A90390684601F080
:1052200050F808E0A0F500504A461F3803A9039043
:10523000684601F05AF88DE807000004000C03D01E
:105240004FF0FF30410800E01046B8F1000F03D0E6
:105250000022009215461EE0751E05D400F082FA69
:10526000303262556D1EF9D5B3460122084302D093
:1052700000227F1C04E02078302801D100227F1E0C
:10528000002A099786D01DE0112D07DA00F06AFA8E
:10529000303262556D1C50EA0102F5D1084302D04C
:1052A0000098C8B10EE00021681E05E0235C625C36
:1052B00063542254401E491C8142F7DBAB46A81BB5
:1052C000401E0990002004F80B000B98099AC0F8C2
:1052D0000880C0E9002B7CE711264FF0000859E751
:1052E0002DE9F04F88460446D21D22F0070191B007
:1052F000D1E90001CDE90A0101F02DF902460B9830
:10530000C00F01D02D2007E02068810701D52B2098
:1053100002E0202101EAC000032A099001D0072AF7
:1053200005DB03464146204600F0E0FB0BE1207818
:10533000800601D5E06900E00620B8F1650F8146DE
:1053400006D0B8F1660F18D0B8F1670F70D131E010
:105350000020B9F1110F009001DB112301E009F1E8
:1053600001030AAA01A90CA8FFF7E4FEDDE90C700D
:10537000002609F10105834647E001204B460090D5
:105380004FF000470AAA01A90CA8FFF7D3FEDDE9F8
:105390000DB00C995D46002610B909F101000D18F9
:1053A000B9EB050003D4C0F1FF3609F10105A5EB07
:1053B00009002BE0B9F1010F01DA4FF001090020DB
:1053C000B9F1110F0090484601DD112300E00346BA
:1053D0000AAA01A90CA8FFF7ADFEDDE90C704D4645
:1053E00000268346207800070AD4AB4500DA5D46E4
:1053F00001A8012D04DD411911F8011C302907D045
:105400004F4502DA17F1040F04DA012082460FE05B
:105410006D1EEEE7002F02DCED1B3E4403E0781C1E
:10542000A84200DD7D1CB81B00F1010A4FF00047C7
:105430002078000703D4AA4501DB4FF0FF3A002192
:10544000B7F1004F0DF143088DF8431024D002202E
:105450002B23002F01DA7F422D230A21021EA0F107
:10546000010000DC5FB197FBF1FC97FBF1F201FB5F
:105470001C7C17460CF1300C08F801CDEEE7A8F1C2
:10548000010003702188090501D5452100E065214F
:10549000A0F1010800F8011C09980FA9A1EB080769
:1054A000FF1D00B10120411901EBEA70A1693844E8
:1054B000081A401EA0612078C00602D42046FFF7DB
:1054C000C9FB099828B1D4E901219047206A401C02
:1054D00020622078C00622D52046FFF7BBFB1EE0E5
:1054E000002E04DBB34502DD01A8805D00E0302022
:1054F000D4E901219047206A401C2062761CAAF161
:1055000001005FEA000A0AD100F024F9C0680168CE
:10551000405CD4E901219047206A401C2062281E8B
:10552000A5F10105DCDC07E0D4E9012118F8010B45
:105530009047206A401C2062381EA7F10107F3DC67
:105540002046FFF79DFB032011B043E601694A1C8A
:1055500002610878704700B58FB0CDE901310021B4
:10556000059105497944CDE9031011466846FFF7D6
:105570001FFC0FB000BD0000E5FFFFFF0A6802F846
:10558000010B0A6070470000074B70B50D467B4465
:10559000FFF7E1FF0446284600F082FB10B14FF010
:1055A000FF3070BD204670BD87D8FFFF2DE9FF5F3B
:1055B00015468A460446DFF8AC80F8440027D8E94F
:1055C00000103E46CDE9001010E03AF816106A4689
:1055D00002A800F069FB411C07D02178890603D599
:1055E000E269391891420DD80744761C207880066C
:1055F00002D5E069B84205DDAE42E6DB3AF81600B6
:105600000028E2D1A069C01BA0612046FFF722FB61
:10561000D8E90010CDE90010002017E03AF8181082
:105620006A4602A800F040FBB0F1FF3F81460BD074
:1056300000250DF1080B05E0D4E901211BF8050058
:1056400090476D1C4D45F7D308F10100B0428046EC
:10565000E4DB206A384420622046FFF711FBBDE8F6
:10566000FF9F00008A3100002DE9F0418046D21DE5
:1056700022F007020025D2E90002F52915A614D070
:10568000011E72F1000106DA0023D0EB030063EB88
:10569000020211A608E0D8F800108B0701D50FA66A
:1056A00002E0490701D50EA601251146002408F1A4
:1056B000240704E000F056F830323A55641C50EAF2
:1056C0000102F7D12B46324621464046BDE8F04163
:1056D000FFF7C2BC000000002D0000002B000000FE
:1056E0002000000030B4002100F1240408E002F0A2
:1056F0000705D208303542EA4372DB086554491C7D
:1057000052EA0305F3D10468002310A2250708D547
:1057100004F020040C4304D0C46901230CA2641ECD
:10572000C46130BCFFF798BC10B504462146106830
:10573000FFF760FC02462046BDE810400023D1E799
:10574000D21D22F00701D1E90023CBE700000000C1
:105750003000000000487047E80F00200048704704
:10576000C80F002030B5B0F10A024FEA900E71F177
:1057700000034EEA817EB0EB0E0061EB91014FEA2F
:10578000101E4EEA017E10EB0E0041EB11114FEAA4
:10579000102E4EEA016E10EB0E0041EB11214FEA84
:1057A000104E4EEA014E10EB0E0041EB1141401835
:1057B00041F100014FEAD00040EA41704FEAD101C7
:1057C00010EB80054FEA810444EA907444EB010435
:1057D0006D1944EB0404521BA3414FF0000348BF72
:1057E0000A3200D530BD401C41F1000130BD00003F
:1057F0002DE9F04F04460D46D21D22F0070089B076
:10580000D0E9009248461746394600F0A4FE024609
:10581000F80F01D02D2307E02068810701D52B2345
:1058200002E0202101EAC0038DF820300BB10120F5
:1058300000E00020032A824601D0072A04DB294623
:10584000204600F053F93DE12078800601D40D2573
:1058500000E0E569C7F30A560D2D49DA00214FEA49
:10586000175B08464FF00000002F00F4400007DAF5
:1058700000EB80004FF4400100EBD07001EA6000C3
:105880008115012901DD4FF0FF3100224FEA850C1F
:10589000BCF1180F06D31346ACF118004FF080523C
:1058A000C24003E04FF4801323FA0CF30CF10C0C0C
:1058B000BCF1200F04D3ACF1200C09FA0CF001E08C
:1058C00007FA0CF000294FF0004801DD18B90FE08D
:1058D0000ED140450CD319EB02095F4121B9404577
:1058E00002D19F4329EA0209BBEB175F00D0761C67
:1058F0002088000502D57B48784402E07948784446
:10590000193808AA302302F80A30037C0AF1010191
:10591000002E0AF1020A53546A4602DC4FF03001AD
:1059200001E04FF031014FF001088DF8001002D076
:10593000A6F2FF3603E059EA470100D06A4E002D77
:1059400002DC2178090704D54FF002082E218DF8DA
:105950000110C44600210BE0C7F303433F01C35CC1
:10596000491C6D1E02F80830052908F1010801DA0A
:10597000002DF1DC00210CE000EB1973491C1B78B1
:105980006D1E082902F808304FEA091908F10108CC
:1059900001DA002DF0DC2178890602D514E0A8F1A7
:1059A0000108E04505DD02EB080111F8011C302972
:1059B000F5D0B8F1000F07DD02EB080111F8011C6A
:1059C0002E2901D1A8F10108002D05DD3E2102F8A4
:1059D00008106D1E08F10108407C002E02F8080036
:1059E00008F1010804DA2D20764202F8080002E0EE
:1059F0002B2002F808000A214FF47A70864208F141
:105A000001080BDB96FBF0F3303302F8083096FB0D
:105A1000F0F308F1010800FB136601E0642E0CDBD3
:105A2000642096FBF0F3303302F8083096FBF0F375
:105A300008F1010800FB136601E00A2E06DB96FB65
:105A4000F1F0303002F8080008F1010896FBF1F09F
:105A500001FB1060303002F80800A16908F101086C
:105A600008EB050202EB0A00081AA0612078C006C4
:105A700002D42046FFF7EEF8216A08AE01EB0A00D7
:105A8000206204E0D4E9012116F8010B9047BAF135
:105A9000010AF7D22078C00602D52046FFF7DAF8CF
:105AA0006E4609E016F8010B3E280FD0D4E901211B
:105AB0009047206A401C2062B8F10108F2D22046CB
:105AC000FFF7DEF809B00320BDE8F08F206A284414
:105AD000206203E0D4E90121302090476D1EEBD312
