:020000040800F2
:10000000A0110020051F00089503000897030008B1
:100010009B0300089F030008A303000800000000E2
:10002000000000000000000000000000A70300081E
:10003000A903000800000000AB030008851C0008AD
:100040001F1F00081F1F00081F1F00081F1F000898
:100050001F1F00081F1F00081F1F00081F1F000888
:100060001F1F00081F1F00081F1F00088F0D00081A
:100070001F1F00081F1F00081F1F00081F1F000868
:100080001F1F00081F1F00081F1F00081F1F000858
:100090001F1F00081F1F00081F1F00081F1F000848
:1000A0001F1F0008CB1700081F1F00081F1F000894
:1000B0005D1A0008831A00081F1F00081F1F000890
:1000C0001F1F00081F1F00081F1F00081F1F000818
:1000D0001F1F0008791E00081F1F000821110008BB
:1000E0001F1F00081F1F00081F1F000800F002F854
:1000F00000F090F80AA090E8000C82448344AAF132
:100100000107DA4501D100F085F8AFF2090EBAE82F
:100110000F0013F0010F18BFFB1A43F0010318473B
:10012000BC6A0000DC6A0000103A24BF78C878C1BD
:10013000FAD8520724BF30C830C144BF04680C60ED
:10014000704700000023002400250026103A28BF35
:1001500078C1FBD8520728BF30C148BF0B60704739
:100160006E2903F05487702904F0B582662905F0E2
:100170005E87652905F05B87672905F05887612947
:1001800005F0578703681B0A28BF41F080016929E1
:1001900003F03885642903F03585752903F032852D
:1001A0006F2904F04382782904F08182E92904F060
:1001B000DD81E42904F0DA81F52904F0D781EF2903
:1001C00004F04082F82904F080820368DB0928BF2C
:1001D00041F08001632904F09B84732904F0A0841A
:1001E000E32904F0AB84F32904F0B08400207047C5
:1001F0001FB504F07BFA04000020002105F0A4F9EB
:10020000401C60600020002105F088F9E0601FBDFF
:1002100010B510BD04F034FD1146FFF7E9FF00F002
:100220004DF804F05BFD03B4FFF7F2FF03BC01F0EF
:10023000C9FD00002DE9F04186B0142101A803F0AA
:1002400000FE00F07DFA064605F030FC044622462A
:100250000B463EA101A803F0BFFC01AA10213C20DF
:1002600001F082F901F017FD804605F08BFD05468F
:10027000384905F0A9FC044605F018FC064632464C
:100280000B4635A101A803F0A7FC01AA30212020CC
:1002900001F06AF906B0BDE8F08110B530A2002186
:1002A000042001F061F932A21021042001F05CF970
:1002B00031A22021042001F057F910BD4FF4612034
:1002C00001F08EFD4FF4612000F06DFF4FF440709F
:1002D00001F036FE01F0CAFC00F0D8FE00F056F93D
:1002E00001F064F901F083FAFFF7D7FF01F029FB71
:1002F00001F092FC28E04FF47A7001F008FD2248EA
:10030000006808B9012000E000201F49086040F69D
:10031000B83001F05FFB4FF47A6001F051FBFFF75A
:1003200089FF00F0F7FF032001F07CFC42F210711E
:100330000C1A022001F076FCA0F51C55103D224657
:10034000294612A000F088FFD5E7000025302E32A4
:100350006620560000007A4425302E326620730055
:1003600020506F776572313033206F6E202120006E
:1003700020766F6C743A00002052756E696E6720AB
:1003800074696D653A202000900121422825642C73
:1003900025642900704700BFFEE700BFFEE700BFED
:1003A000FEE700BFFEE77047704770470CB50020BE
:1003B000019000906C48006840F480306A49086001
:1003C00000BF6948006800F4003000900198401CAC
:1003D0000190009818B90198B0F5A06FF1D162486A
:1003E000006800F4003010B10120009001E000200E
:1003F00000900098012843D15C48006840F010004C
:100400005A4908600846006820F003000860084662
:10041000006840F002000860534840685249486054
:100420000846406848600846406840F4806048607C
:100430000846406820F47C1048600846406840F454
:10044000E81048600846006840F08070086000BF0F
:100450004548006800F000700028F9D04248406824
:1004600020F00300404948600846406840F0020020
:10047000486000BF3C48406800F00C000828F9D1F3
:100480000CBD10B5FFF792FF10BD10B536480068DF
:1004900040F001003449086008464068344908408B
:1004A0003149486008460068324908402E490860D2
:1004B0000846006820F4802008600846406820F460
:1004C000FE0048604FF41F008860FFF7DAFF4FF02E
:1004D00000602949086010BD10B5002100200022ED
:1004E000214B5B6803F00C0121B1042906D00829D7
:1004F00028D107E0214B224C236027E01F4B204CE2
:10050000236023E0184B5B6803F47010164B5B68A4
:1005100003F48032022303EB904022B9194B43438A
:10052000174C23600DE0104B5B6803F4003323B1DC
:10053000144B4343124C236003E0104B4343104CD5
:10054000236003E00D4B0E4C236000BF00BF064B41
:100550005B68C3F303130C4CE15C094B1B68CB4095
:10056000074C236010BD0000001002400020024034
:100570000000FFF8FFFFF6FE08ED00E000127A0031
:100580000000002000093D000400002008B5012102
:10059000042002F05FF81020ADF800008DF8030091
:1005A00003208DF802006946104801F097FD1021E4
:1005B0000E4801F040FE08BD08B50121102002F0F0
:1005C00049F84FF40050ADF8000010208DF80300FA
:1005D00003208DF802006946054801F07FFD4FF4C5
:1005E0000051034801F027FE08BD0000000801404B
:1005F00000100140F748806940F00800F549886123
:10060000F548006820F0F000F3490860F14880697F
:1006100040F40070EF4988610846C06840F40070FB
:10062000C8600846C06820F40070C860EB480068E5
:10063000EB490840E9490860084600680860084638
:10064000006820F480700860081D006820F0020037
:10065000091D08600846006820F46020086008460C
:10066000006840F4602008600846006840F480108C
:1006700008600846006820F400600860D748283009
:10068000006820F47000D5492831086008460068E9
:1006900000200860D1480C30006820F07040CF493D
:1006A0000C3108600846006840F060500860CB4894
:1006B000001D006840F00100C849091D0860084697
:1006C000006840F00800086000BFC448001D0068D2
:1006D00000F008000028F8D1C048001D006840F074
:1006E0000400BE49091D086000BFBC48001D006829
:1006F00000F004000028F8D1B8483030006820F03D
:100700001F00B649303108600846006840F0090013
:10071000086070470146B148001D006840F4800041
:10072000AE4A121D106000BFAC48001F006800F008
:1007300002000028F8D0A9484830006880B270470D
:100740002DE9FE4F0920FFF7E5FF009005F01AFBA9
:10075000019005F0ABF980464FF06632A14B05F0F1
:10076000A7F806460022A04B05F0A2F80446002296
:100770009E4B04F031FF824604F0FCFE029002988A
:10078000BDE8FE8F10B59348406940F001009149E3
:10079000486100BF9648806800F001000028F9D148
:1007A0009348406840F00F00914948608B484830BA
:1007B000086100204861C86088600846806840F091
:1007C0000200886008468068886008468068886003
:1007D00008468068886008468068886008468068A7
:1007E00040F0800088600846806840F4807088602F
:1007F0000846806840F4806088600846806840F45D
:10080000005088600B21032001F096FA10BD71485A
:10081000806940F008006F4988616F48006820F0E7
:10082000F0006D4908606B48806940F400706949C8
:1008300088610846C06840F40070C8600846C06817
:1008400020F40070C860002064490860081D00683A
:1008500040F00200091D08600846006840F48070FE
:1008600008600846006820F46020086008460068B8
:1008700040F4602008600846006840F4801008607A
:100880000846006820F4006008600846006840F4EC
:10089000000008600846006840F001000860084653
:1008A000006840F00800086000BF4C48001D006868
:1008B00000F008000028F8D14848001D006840F00A
:1008C00004004649091D086000BF4448001D006837
:1008D00000F004000028F8D1704710B5FFF797FF2B
:1008E000FFF750FF0E20434981F84400142141488E
:1008F00080F845101A2180F84610292180F8471009
:10090000362180F84810442180F84910542180F89D
:100910004A10FC2180F84B100920364908753648EA
:1009200048621021334841753449816202203149BF
:10093000087710BD70B505462E48007F00FB05F412
:100940002B48C06800287DD1B4F57A7F5AD94FF47E
:100950007A70B4FBF0F02749C8834FF47A70B4FB87
:10096000F0F100FB114060B12248C08B401C2149CE
:10097000C8834FF47A70B4FBF0F100FB11401D49BD
:1009800008844FF47A741A48806820F001001849EE
:10099000886000BF1648806800F001000028F9D187
:1009A0001348806840F00400114988600846806858
:1009B00040F020008860124848610846C4604068E2
:1009C00040F00F0048600846806840F001008860F1
:1009D00043E0000000100240000C014004240140EC
:1009E000FFFFF00066660A40000026400000B040AD
:1009F0000000024014000020800000206800002059
:100A0000C40000200120F749C8830C84F6488068A0
:100A100020F00100F449886000BFF348806800F0CE
:100A200001000028F9D1F048806820F00400EE4968
:100A300088600846806820F020008860EB484861A4
:100A4000084600E018E0C460406840F00F004860CD
:100A50000846806840F001008860E548006840F082
:100A60000200E34908600846006840F4800008601E
:100A700001F021F9DB49C86470BD2DE9FC478146CE
:100A800000244FF47A7109FB01F000EBD071C1F33F
:100A90004F0AD448C08B01287ED1B9F1020F05D08E
:100AA000B9F1030F02D0B9F1040FF5D1B9F1040F78
:100AB00027D11AE0CF48D049097850F82100CB4916
:100AC00031F814100144CB48CB4A127840F8221078
:100AD000601C84B2C348017FC7480078401C90FB6B
:100AE000F1F201FB1200C4490870BE48008CA0421C
:100AF000E0DCBC48408CBB49098C0844B9494884B7
:100B000062E0B9F1020F2BD14FF0000A1CE0B948A6
:100B1000B949097850F8210004EB0A01B34A32F8C8
:100B200011100844B349B44A127841F82200601CFD
:100B300084B2AC48017FB0480078401C90FBF1F2D1
:100B400001FB1200AC490870A648008CA042DEDC14
:100B5000A448408CA349098C0844A249488433E046
:100B6000B9F1030F30D14FF4FA7A1EE0A148A2493F
:100B7000097850F8210004EB0A019C4A32F8111060
:100B800008449C499C4A127841F82200601C84B2B7
:100B90009448017F984800E076E00078401C90FB84
:100BA000F1F201FB1200944908708E48008CA0EB12
:100BB0000A00A042DADC8B48408C8A49098CA1EB00
:100BC0000A01084487494884002449E08548408C4C
:100BD0008449097F90FBF1F081B28248243050F8BB
:100BE000240001817F49243151F82410088904F040
:100BF0004BFE05460E467F4951F8240004F044FEA2
:100C000007462A46334604F0E7FCCDE9000104F02C
:100C1000B1FC7449243151F824104860714A2432DF
:100C200052F8242051686F4A243252F82420D068A8
:100C300005F0BCF805466B48243050F824000169E3
:100C4000284604F05FFF6749243151F824104861B9
:100C50006948007810B169A002F0B2FF601C84B24C
:100C60006048007FA042B1DC00205E494884002437
:100C700007E000205F4941F824005F490870601CCC
:100C800084B2082CF5DB26E01CE05A485A49097862
:100C900050F8210004EB0A01544A32F811100144C3
:100CA0005448554A127840F82210601C84B24D48CE
:100CB000017F51480078401C90FBF1F201FB1200CB
:100CC0004D490870B4F5FA7FDFDB4648408C00F5EB
:100CD000FA7044494884BDE8FC872DE9F0478CB0A0
:100CE0004FF0000A3F48026D406A018947A002F0B8
:100CF00067FF00BF44E03B49243151F82A1048699E
:100D000004F0D4FE04460D463649243151F82A1029
:100D1000086904F0CBFE06460F463249243151F8EB
:100D20002A10486804F0C2FE804689462D492431C5
:100D300051F82A10C86804F0B9FECDE90A01294922
:100D4000243151F82A10486804F0B0FECDE9028938
:100D5000CDE90467CDE90645CDE90801DDE90A01E1
:100D6000CDE900011F48243050F82A0001782F48AF
:100D7000DDE9082302F024FF0AF1010000F0FF0A78
:100D80001848007F5045B6DC0CB0BDE8F08710B5C0
:100D90001548006800F0020018B31248C08B012803
:100DA00046D11348006820F00200114908600E483F
:100DB000806820F001000C4988600846806800F0D7
:100DC000200018B10320FFF758FE02E00420FFF7CF
:100DD00054FE00F070FF0349C96C401A01490865D0
:100DE00029E02EE01400002000000240C400002092
:100DF00008240140C408002098000020616463B406
:100E0000E6D4DABCC6CAFDB4EDCEF300B2C9BCAFBD
:100E1000B4CECAFD25642CD7DCBBA8B7D1CAB1BCFF
:100E2000E43A25642075732E0A000000986B0008D0
:100E30000120FFF722FEA148C08B401E9F49C883B6
:100E400027E09F48006800F0040010B39B48C08B67
:100E500001281BD19948008CB0F5FA7F16DC99481F
:100E6000006820F00200974908609548806820F0EB
:100E70000100934988600220FFF7FFFD00F01BFF8F
:100E80008E49C96C401A8D49086502E00120FFF7C0
:100E9000F4FD8B48406840F00F008949486010BD60
:100EA0008848006820F002008649086070472DE9F4
:100EB000F04105460E4600240027082E00DD0826D6
:100EC000002451E0285D11284CDC781CC7B2062CA8
:100ED00016DA7C482C30006804EB84021F21914014
:100EE000884378492C310860285D04EB84018840F0
:100EF00074492C310968084372492C31086031E08B
:100F00000C2C17DA6F4828300068A11F01EB810212
:100F10001F21914088436B4928310860285D04EB0C
:100F200084018840674928310968084365492831A8
:100F3000086017E0634824300068A4F10C0101EB5D
:100F400081021F21914088435E4924310860285D59
:100F500004EB840188405B492431096808435949FE
:100F600024310860601CC4B2B442ABDB5548243065
:100F7000006820F470005349243108600846016875
:100F8000781E41EA00504F492431086039464EA08E
:100F900002F016FEBDE8F0812DE9FC4705460C463F
:100FA0000026072C00DD07240A2D14DA05EB450086
:100FB000C6B24448083000680721B140884341491F
:100FC000083108600846006804FA06F108433D4904
:100FD0000831086015E0A5F10A0000EB4000C6B238
:100FE0003848001D00680721B14088433549091D74
:100FF00008600846006804FA06F108433149091DF3
:1010000008602E494431085D04F0BCFE8246344934
:1010100004F0DAFD814604F049FDCDE900012748DE
:101020004430025D29462FA002F0CAFDBDE8FC87CE
:101030002DE9F04107460D460024002608E0384619
:10104000FFF768FB0444C82000F045FE701CC6B2E0
:10105000AE42F4DB94FBF5F430480068201A10F13E
:10106000050F04DB2D480068201A05280BDD2B48EE
:10107000006804EB8000052190FBF1F0274908602F
:101080002046BDE8F08125480068FAE710B50B4915
:10109000086880470948017F426814309047074933
:1010A000496A087805498A68052190470349896A91
:1010B000087802498A680521904710BD1400002075
:1010C0000000024008240140D3D0D0A7D7AABBBB60
:1010D000CDA8B5C0CAFDC4BFA3BA2564200A0000CC
:1010E00000004041B5DA2564B8F6CDA8B5C0B2C954
:1010F000D1F9CAB1BCE4C9E8D6C3CEAA2564D6DC0E
:10110000C6DAA3ACB2C9D1F9CAB1BCE4A3BA2530DE
:101110002E3266207573A1A30A0000009C000020F7
:1011200010B540F225515A4801F0B8FCB0B158480A
:1011300001F034FCC4B257480088C82808DA554882
:1011400001880088401C534A10805348445405E0ED
:101150005048008840F400404E49088010BD70B5EA
:101160008CB006460C4615460121084601F065FA8A
:10117000304601F0D7FC0194029510200390002026
:101180000490059080200690002007900890099018
:101190004FF480500A9000200B9001A9304601F0D6
:1011A00063FD0CB070BD10B586B004460121082067
:1011B00001F050FA0121880401F059FA344801F095
:1011C000ADFA4FF48060ADF8140003208DF81600DE
:1011D00018208DF8170005A9304800F07FFF4FF464
:1011E0000060ADF8140004208DF8170005A92B4805
:1011F00000F074FF01940020ADF80800ADF80A007B
:10120000ADF80C00ADF810000C20ADF80E0001A9EF
:101210001F4801F0C6FA012280211D4801F07EFB23
:101220001F4A1B49091D1F48FFF799FF0121184854
:1012300001F043FB06B010BD70B504460D46002119
:10124000204601F03CFD2946204601F04DFD0121DC
:10125000204601F034FD70BD0FB438B505A80090EC
:101260000F48009A049902F095FC0020009000BFFE
:101270000C4801F03BFD0028FAD1094802F0C2FDFC
:10128000C4B221460748FFF7D7FF38BC5DF814FB0E
:1012900000480040A0000020E4080020000C0140AD
:1012A000AC0900201C00024070B504460E461EB179
:1012B0000120FE49086002E00020FC49086001208E
:1012C00000F009FD00251DE00020F949086001201B
:1012D00000F001FD04F0800020B10120F449091F55
:1012E000086003E00020F249091F0860012000F0B7
:1012F000F2FC0120EE49086000F0EDFC6006040EEF
:10130000681CC5B2082DDFDB0120E849086000F049
:10131000E2FC70BD70B500241CE004F1B001C8B25D
:101320000021FFF7C1FF00210846FFF7BDFF0021A4
:101330001020FFF7B9FF002508E0DE4901EBC501E9
:10134000085D0121FFF7B0FF681CC5B2802DF4DBFA
:10135000601CC4B2082CE0DB70BD10B500218D20EC
:10136000FFF7A2FF00211420FFF79EFF0021AF200E
:10137000FFF79AFF10BD10B500218D20FFF794FFF5
:1013800000211020FFF790FF0021AE20FFF78CFF17
:1013900010BD70B500240CE0002506E00020C54912
:1013A00001EBC5010855681CC5B2802DF6DB601C39
:1013B000C4B2082CF0DBFFF7ADFF70BDF0B51446EA
:1013C00000267F2801DC3F2900DDF0BD0B46CF174A
:1013D00001EB5777FF10C7F10707FAB2CF1701EB00
:1013E0005777FF10A1EBC707FDB2C5F1070701232F
:1013F000BB40DEB24CB1AF4B03EBC0039B5C33434D
:10140000AC4F07EBC007BB5408E0AA4B03EBC0038B
:101410009B5CB343A74F07EBC007BB5400BFD4E7A7
:101420002DE9F04F80460C4615461E46A346A5F111
:101430002000C5B200273EE00C2E07D105EB450089
:101440009D4901EB800010F8079004E09B4800EBF9
:10145000051010F807904FF0000A26E009F0800010
:1014600028B121464046099AFFF7A8FF09E00998EC
:1014700008B9012000E00020024621464046FFF75F
:101480009DFF4FEA49604FEA1069601CC4B2A4EBAB
:101490000B00B04205D15C4608F1010000F0FF08E6
:1014A00006E00AF1010000F0FF0ABAF1080FD5DBEF
:1014B00000BF781CC7B2B742BEDBBDE8F08F10B5E5
:1014C0000246012000E050430B1EA1F10104E1B2ED
:1014D000F9D110BD2DE9FF4F81B0074691461E4658
:1014E0000E9D4FF0000A002439E0301B401EC1B2AF
:1014F0000A20FFF7E4FFB9FBF0F00A21B0FBF1F29C
:1015000001FB1208BAF1000F16D1701EA04213DDC4
:10151000B8F1000F0ED10120AB4605EBDB7149108D
:1015200001FB04710090C8B22B4620220299FFF7FC
:1015300077FF12E04FF0010A0120AB4605EBDB71AB
:10154000491001FB04710090C8B208F13001CAB221
:101550002B460299FFF764FF00BF601CC4B2B4427F
:10156000C3DB05B0BDE8F08FF8B505460E4614465E
:1015700018E07A2D03DD002506F11000C6B23A2EE0
:1015800004DD002005460646FFF703FF012000901A
:1015900022780C2331462846FFF742FF05F1080068
:1015A000C5B2641C20780028E3D1F8BD10B54448CA
:1015B000806940F00100424988614FF00070414964
:1015C00048603F48806940F008003D4988613E48D6
:1015D00000683E4908403C490860084600683C49AC
:1015E0000843394908603648806940F004003449AE
:1015F00088613848006820F0704036490860084625
:10160000006840F00050086000202949083908604F
:10161000314800F060FB01203049C1F88C01002105
:10162000AE20FFF741FE0021D520FFF73DFE00214F
:101630005020FFF739FE0021A820FFF735FE0021DA
:101640003F20FFF731FE0021D320FFF72DFE0021C0
:101650000846FFF729FE00214020FFF725FE002164
:101660008D20FFF721FE00211420FFF71DFE002131
:101670002020FFF719FE00210220FFF715FE0021B0
:10168000A120FFF711FE0021C020FFF70DFE002171
:10169000DA20FFF709FE00211220FFF705FE0021E6
:1016A0008120FFF701FE0021EF2019E0BC0121425B
:1016B00094812142740A002036600008AA64000860
:1016C0000010024000000140000C0140FF0F00FF2D
:1016D0000020220004080140A08601000080214271
:1016E000FFF7E2FD0021D920FFF7DEFD0021F12008
:1016F000FFF7DAFD0021DB20FFF7D6FD00213020C7
:10170000FFF7D2FD0021A420FFF7CEFD0021A62087
:10171000FFF7CAFD0021AF20FFF7C6FDFFF739FE36
:1017200010BD000070B505460C464E48806940F477
:1017300000604C4988610846806940F00400886177
:101740004948006820F4704047490860084600682E
:1017500040F43040086045480580001F048043483D
:101760001038008840F4C0404049103908800846CD
:10177000008840F400600880081D008840F4805014
:10178000091D088039481830008840F40040374966
:101790001831088035482038008840F0010033496E
:1017A00020390880802031492C390880084600887B
:1017B00040F0010008804FF42F602C49143108805C
:1017C0001921032000F0B8FA70BD28481C380088A1
:1017D00026481C38008820F0010024491C39088064
:1017E000081D008820F00100091D0880704710B511
:1017F000232149F63F40FFF795FF10BD1B4A1432E5
:10180000108070472DE9FC5F82461949504604F06C
:1018100099FB009004F04AF98046164A164B04F0F2
:1018200047F806460022154B03F0D6FE044603F0A7
:10183000A1FE83461249584604F0B8FA04461149FD
:1018400004F060F90190019804F080FA0446FFF773
:10185000D5FFBDE8FC9F4FF42F6004491431088088
:101860007047000000100240040801402C2C014089
:101870000000B4426E861BF0F921094000806640EA
:1018800033B31B4500002F4530B589B005460C46E3
:101890000121042000F0EBFE0121082000F0DAFE17
:1018A000C020ADF8200018208DF8230003208DF80B
:1018B000220008A9674800F011FC4FF44070ADF811
:1018C000200008A9634800F009FCADF81850ADF8F5
:1018D00014400020ADF81A00ADF8160005A95E48C6
:1018E00001F01EFB6020ADF804000120ADF80600F9
:1018F0000020ADF80C0001A9574801F04EFB01A9EA
:10190000554801F08CFB01A9534801F0D5FB01A912
:10191000514801F01CFC08214F4801F08DFF0821BF
:101920004D4801F092FF08214B4801F09BFF082130
:10193000494801F0A0FF0121474801F04DFE09B0E0
:1019400030BD10B5002141F6FF00FFF79DFF10BD2F
:10195000B0F5C85F01DD4FF4C8503F493831088009
:101960007047B0F5C85F01DD4FF4C8503A493431D3
:1019700008807047B0F5C85F01DD4FF4C8503649A4
:101980003C3108807047B0F5C85F01DD4FF4C850A6
:1019900031494031088070474FF4C8512E4A4032D7
:1019A0001180C0F5C851121F118070474FF4C85103
:1019B000294A38321180C0F5C851121F1180704772
:1019C000C0F5C851244A403211804FF4C851121F4B
:1019D00011807047C0F5C8511F4A383211804FF44A
:1019E000C851121F118070474FF4C8501A49403136
:1019F0000880091F0880091F0880091F0880704798
:101A00001549403108800021134A3C32118070474B
:101A100011493831088000210F4A34321180704753
:101A200000210D4A40321180111F088070470021AB
:101A3000094A38321180111F08807047002006497A
:101A400040310880091F0880091F0880091F08808D
:101A500070470000000C0140000800404FF080403B
:101A6000008A00F0010018B142F2107081068884EB
:101A70004FF08040008A20F001004FF08041088242
:101A800070477748008800F0010020B142F21070E2
:101A90007349143108807248008820F001007049B1
:101AA0000880704710B56F48C06940F001006D496B
:101AB000C8610846806940F0040088616A4800688F
:101AC00020F0FF00684908600846006840F04400C4
:101AD0000860C804808940F00100C90488810020A2
:101AE00008854FF6FF7088850846008820F440700E
:101AF00008800846008820F0600008800846008BB7
:101B000040F0010008830846008B40F48070088391
:101B10000846008C20F0020008840846008C20F063
:101B2000200008840846008940F00300088142F242
:101B3000107088848006008840F0010008801C2115
:101B40000A2000F0F9F810BD10B54648C06940F011
:101B500002004449C8610846806940F00400886179
:101B60004148006820F07F403F490860084600680F
:101B700040F0884008603A48001F008840F00100AB
:101B80003749091F088000203549183108804FF671
:101B9000FF70091D088042F210703149143108802D
:101BA0002F481038008820F440702D4910390880E3
:101BB0000846008820F06000088029480830008826
:101BC00040F001002649083108800846008840F4AA
:101BD0008070088022481030008820F002002049E0
:101BE000103108800846008820F0200008801C483A
:101BF0000838008840F0030019490839088018485F
:101C00001038008840F001001549103908801D2166
:101C10000A2000F091F810BD10B5FFF743FFFFF761
:101C200093FF10BD0146022902D0032913D108E019
:101C30004FF08042928C10B242F2107293069A8456
:101C40000BE0074A1432128810B242F21072044BB1
:101C500014331A8001E0002000BF00BF704700006D
:101C60001004004000100240000801402D484FF0D1
:101C7000E0214861002088610846006940F00300C7
:101C8000086170474FF0E021086927490968491C3D
:101C9000254A116070474FF0E02080692149081AF9
:101CA00042F22831B0FBF1F01F49096801EB8101D4
:101CB00000EB410070474FF0E02080691949081A95
:101CC0000921B0FBF1F11848006840F2712250433D
:101CD00001EB0010704730B5134B19684FF0E0234B
:101CE0009B69104CE21A00BF4FF0E0239B690D4C3A
:101CF000E41A0D4B1B685B1A41F2F9556B4304EB78
:101D000003139B1A00EBC004A342EDD330BD30B5E2
:101D100004464FF47A7004FB00F52846FFF7DBFF1A
:101D200030BD0000905F0100A400002030BF70476C
:101D300072B6704762B6704770B503461F48405C84
:101D400040EA0310C2B21D484254CC1701EBD464E0
:101D50006411A40004F1E024D4F800410A46CD1730
:101D600001EBD5656D11A1EB45160125B5402C435E
:101D70000846CD1701EBD5656D11AD0005F1E025E5
:101D8000C5F8004170BD30B5C31700EBD3635C11DB
:101D90000B4B53F824300246C41700EBD464641193
:101DA000A0EB44150124AC4023430146C41700EBCB
:101DB000D4646511024C44F8253030BD00E400E0E5
:101DC00080E100E000BF704700BF4A4A128802F07D
:101DD0004002002AF9D0C2B2464B1B1D1A80704740
:101DE00010B586B00446012144F2040000F032FC34
:101DF0004FF40070ADF8140003208DF81600182081
:101E00008DF8170005A93C4800F068F94FF4806090
:101E1000ADF8140004208DF8170005A9364800F02D
:101E20005DF925208DF8000003208DF801008DF864
:101E3000020001208DF80300684600F086F8019446
:101E40000020ADF80800ADF80A00ADF80C00ADF8C0
:101E500010000C20ADF80E0001A9264800F0A1FCEE
:101E6000012240F22551234800F033FD0121214891
:101E700000F023FD06B010BD10B540F225511D48FD
:101E800000F00CFE10B31B4800F088FDC4B21B48E4
:101E9000008800F40040C8B91848008800F4804069
:101EA00060B10A2C03D000201449088020E01348B8
:101EB000008840F400401149088019E00D2C06D13B
:101EC0000E48008840F480400C49088010E00B4820
:101ED0000088C0F30D000A490C5408480088401CD3
:101EE0000649088008460088C72801DD00200880D0
:101EF00010BD00000038014000080140AC00002087
:101F0000740E00200948804709480047FEE7FEE7B5
:101F1000FEE7FEE7FEE7FEE7FEE7FEE7FEE7FEE799
:101F200004480549034A054B704700008B0400082C
:101F3000ED000008A00F0020A0110020A00F00203D
:101F400031490143314A1160704770B500210023C7
:101F50000F22C47804B32D4C246804F4E064C4F563
:101F6000E064210AC1F10403CA40447804FA03F191
:101F70008478144021430901254C0678A155047842
:101F800004F01F050124AC4005786D11AD0005F18A
:101F9000E025C5F8004109E0047804F01F0501249C
:101FA000AC401C4D0678761145F8264070BD1A4AA3
:101FB0000A400243154B1B1F1A60704739B1134A80
:101FC000121D12680243114B1B1D1A6006E00F4AD6
:101FD000121D126882430D4B1B1D1A6070470428A6
:101FE00008D14FF0E021096941F004014FF0E022EF
:101FF000116107E04FF0E021096921F004014FF081
:10200000E0221161704700000000FA050CED00E0CD
:1020100000E400E080E100E080FFFF1F10B504460F
:10202000CC48844208D10121042000F02DFB00217E
:10203000042000F029FB46E0C748844208D1012172
:10204000082000F021FB0021082000F01DFB3AE0F1
:10205000C248844208D10121102000F015FB002164
:10206000102000F011FB2EE0BD48844208D1012170
:10207000202000F009FB0021202000F005FB22E0D9
:10208000B848844208D10121402000F0FDFA002127
:10209000402000F0F9FA16E0B348844208D101214B
:1020A000802000F0F1FA0021802000F0EDFA0AE033
:1020B000AE48844207D10121801500F0E5FA0021E5
:1020C000A01500F0E1FA10BD10B50121084600F09E
:1020D000DBFA0021012000F0D7FA10BD2DE9F04114
:1020E000024600250026002000230024002791F846
:1020F00003C00CF00F0591F803C00CF0100CBCF1FC
:10210000000F03D091F802C04CEA050591F800C019
:10211000BCF1000F31D0146800202BE04FF0010C0F
:102120000CFA00F3B1F800C00CEA03069E4220D17D
:1021300083004FF00F0C0CFA03F7BC4305FA03FCC5
:102140004CEA040491F803C0BCF1280F06D14FF00B
:10215000010C0CFA00FCC2F814C00AE091F803C0AC
:10216000BCF1480F05D14FF0010C0CFA00FCC2F88D
:1021700010C0401C0828D1D31460B1F800C0BCF1D5
:10218000FF0F34DD546800202EE000F1080C4FF002
:10219000010808FA0CF3B1F800C00CEA03069E42ED
:1021A00021D183004FF00F0C0CFA03F7BC4305FA62
:1021B00003FC4CEA040491F803C0BCF1280F05D1DC
:1021C00000F1080C08FA0CF8C2F8148091F803C06A
:1021D000BCF1480F07D100F1080C4FF0010808FAD4
:1021E0000CF8C2F81080401C0828CED35460BDE81B
:1021F000F0814FF6FF710180022181700421C170CE
:1022000070470246002093680B400BB1012000E0AC
:10221000002070470146886880B27047024600205F
:10222000D3680B400BB1012000E00020704701464D
:10223000C86880B2704701617047416170470AB158
:10224000016100E041617047C16070474FF4803226
:102250000A438261816182618269826970470246B4
:102260000020434B18684FF68073184040EA021074
:1022700008433F4B186070473E49C8617047F0B54E
:102280000A46002300240021002500F00046B6F194
:10229000004F02D1364EF16901E0354E7168C0F34E
:1022A000034583B200F44016B6F5401F08D121F073
:1022B00070612F4E766826F070662D4F7E6012E0BA
:1022C00000F48016B6F5801F06D1032606FA05F441
:1022D000A14341F0706106E0460D360103FA06F6AF
:1022E000B14341F0706122B1460D360103FA06F6A2
:1022F000314300F00046B6F1004F02D11C4EF161AF
:1023000001E01B4E7160F0BD30B500228B071C0F41
:102310000F2303FA04F2164B08338C1053F82430C1
:102320009343134C08348D1044F8253023468C1009
:1023300053F824308C07240F00FA04F423430C4C88
:1023400008348D1044F8253030BD0A49DC3108606E
:102350007047000000080140000C014000100140DF
:102360000014014000180140001C01400020014001
:102370000000014000002042DF48006840F00100FA
:10238000DD49086008464068DC490840DA49486091
:1023900008460068DA490840D749086008460068DE
:1023A00020F4802008600846406820F4FE00486061
:1023B0004FF41F0088607047CF49096821F48031CD
:1023C000CD4A11601146096821F480211160B0F5F1
:1023D000803F03D0B0F5802F0ED106E0C6490968D2
:1023E00041F48031C44A116007E0C349096841F4EF
:1023F000A021C14A116000E000BF00BF704710B5C6
:1024000001460022002300204A11012A02D1BA4CC1
:10241000236806E0022A02D1B74C236A01E0B64CD9
:10242000636A01F01F02012494401C400CB101209A
:1024300000E0002010BD38B50020009000240025E9
:1024400000BF3120FFF7DBFF05460098401C0090DD
:102450000098B0F5A06F01D0002DF2D03120FFF729
:10246000CEFF08B1012400E00024204638BD01461B
:102470000020A14A106820F0F80040EAC100106076
:102480007047A04908607047024600209A4B586880
:1024900020F47C1042EA01031843974B58607047C0
:1024A00098490866704701460020934A506820F01A
:1024B00003000843506070478F48406800F00C00EC
:1024C0007047014600208C4A506820F0F000084315
:1024D0005060704701460020874A506820F4E06051
:1024E00008435060704701460020834A506820F43A
:1024F000605040EAC1005060704729B17E4A527A6C
:1025000002437D4B5A7204E07B4A527A82437A4BF3
:102510005A7270477B49D8310860704701460020E5
:10252000754A506820F440400843506070470021CD
:10253000714A20321170704A82F82010012802D0AE
:1025400004280AD104E001216B4A2032117005E011
:102550000521694A2032117000E000BF00BF7047BA
:102560006949086070476449096A0143624A116217
:102570007047654944390860704730B50021002232
:10258000002400235C4D6D6805F00C0121B1042985
:1025900005D0082923D105E05C4D056022E05B4DA4
:1025A00005601FE0544D6D6805F47012524D6D6862
:1025B00005F48034022505EB92421CB9544D554375
:1025C00005600BE04C4D6D6805F400351DB1504DB4
:1025D0005543056002E04D4D5543056002E04B4D0B
:1025E000056000BF00BF444D6D6805F0F0010909AA
:1025F000484D6B5C0568DD4045603F4D6D6805F4F6
:10260000E061090A434D6B5C4568DD4085603A4DE9
:102610006D6805F46051C90A3E4D6B5C4568DD404C
:10262000C560354D6D6805F44041890B3A4D6B5CD2
:10263000C568B5FBF3F5056130BD29B12E4A526975
:1026400002432D4B5A6104E02B4A526982432A4BC4
:102650005A61704729B1284A92690243264B9A6110
:1026600004E0254A92698243234B9A61704729B15D
:10267000214AD2690243204BDA6104E01E4AD26942
:1026800082431D4BDA61704729B11B4AD26802436D
:10269000194BDA6004E0184AD2688243164BDA60BC
:1026A000704729B1144A12690243134B1A6104E0BE
:1026B000114A12698243104B1A617047124940391E
:1026C000086070470F49C86470470B49C87170476C
:1026D0000948406A40F080700749486270470146E7
:1026E0000020054A92680A400AB1012000E000205B
:1026F0007047014988727047001002400000FFF8DF
:10270000FFFFF6FE000042428004424200127A00BF
:1027100000093D00AE000020BE00002010B50446B8
:10272000FB48844209D101218803FFF7ADFF002156
:102730004FF48040FFF7A8FF32E0F648844209D109
:1027400001214804FFF7ADFF00214FF40030FFF7EF
:10275000A8FF25E0F048844209D101218804FFF751
:10276000A0FF00214FF48020FFF79BFF18E0EB480B
:10277000844209D10121C804FFF793FF00214FF4DF
:102780000020FFF78EFF0BE0E548844208D10121CD
:102790000805FFF786FF00214FF48010FFF781FF47
:1027A00010BD2DE9F04786B005460E460024A2462E
:1027B00000BFA1460027B08900B100BF2F462C8A78
:1027C0004CF6FF700440F08804432C82AC894EF62E
:1027D000F3100440B08831890843718908430443E9
:1027E000AC81AC8A4FF6FF400440B0890443AC8210
:1027F00001A8FFF7C2FEC648874202D1DDF810A04B
:1028000001E0DDF80CA0A88900F4004040B10AEB1B
:10281000CA0000EB0A1031684900B0FBF1F807E08C
:102820000AEBCA0000EB0A1031688900B0FBF1F82E
:102830006420B8FBF0F004012009642101FB108939
:10284000A88900F4004040B1322000EBC900B0FB81
:10285000F1F000F00700044308E0322000EB09101B
:102860006421B0FBF1F000F00F0004432C8106B0AE
:10287000BDE8F0874FF41651016000218180C180CE
:1028800001810C21418100218181704710B50246F0
:102890000020108A4FF2FF0318400B884C88234316
:1028A0008C882343CC8823431843108210BD002119
:1028B000018041808180C180704721B1828942F4CA
:1028C0000052828104E082894DF6FF731A408281B2
:1028D0007047F0B50346002400260025002040F68E
:1028E0006A17B94200D100BF1846C1F3421401F083
:1028F0001F06012707FA06F5012C01D10C3004E070
:10290000022C01D1103000E014301AB107682F43B7
:10291000076002E00768AF430760F0BD1AB1838A21
:102920000B43838202E0838A8B4383827047028A4F
:102930004FF6F0731A400282028A0A4302827047FD
:1029400082894FF2FF731A40828182890A43828111
:10295000704721B1828942F00202828104E08289BB
:102960004FF6FD731A4082817047028A4FF6DF737B
:102970001A400282028A0A430282704721B1028A07
:1029800042F48042028204E0028A4BF6FF731A404E
:1029900002827047C1F3080282807047014688882E
:1029A000C0F308007047818941F0010181817047BF
:1029B000028BD2B20283028B42EA01220283704769
:1029C000028B02F47F420283028B0A430283704728
:1029D00021B1828A42F02002828204E0828A4FF68C
:1029E000DF731A408282704721B1828A42F010025E
:1029F000828204E0828A4FF6EF731A408282704727
:102A000021B1828A42F00802828204E0828A4FF673
:102A1000F7731A408282704721B1828942F40042E2
:102A2000828103E08289C2F30E028281704721B164
:102A3000828A42F40062828204E0828A4FF2FF734B
:102A40001A4082827047828A4FF6FB731A40828254
:102A5000828A0A438282704721B1828A42F002024E
:102A6000828204E0828A4FF6FD731A4082827047A8
:102A700002460020B1F5007F00D100BF13880B4053
:102A80000BB1012000E00020704701F40072B2F5A4
:102A9000007F00D100BFCA430280704770B5024674
:102AA000002400230025002040F66A16B14200D120
:102AB00000BFC1F3421501F01F03012606FA03F31C
:102AC000012D02D19689334006E0022D02D1168AEB
:102AD000334001E0968A33400C12012606FA04F4D2
:102AE0001688344013B10CB1012000E0002070BD05
:102AF00010B50022002340F66A14A14200D100BFA5
:102B00000A1201249440A3B2DC43048010BD0000EB
:102B1000003801400044004000480040004C0040A4
:102B20000050004001684FF6FE7211400160002124
:102B3000016041608160C1608D49884208D18C4943
:102B40000839496841F00F01894A083A51608AE022
:102B500087491431884208D185490839496841F0CC
:102B6000F001834A083A51607DE08149283188426A
:102B700008D17F490839496841F470617C4A083AB4
:102B8000516070E07A493C31884208D1784908396F
:102B9000496841F47041764A083A516063E07449EB
:102BA0005031884208D172490839496841F470218E
:102BB0006F4A083A516056E06D496431884208D145
:102BC0006B490839496841F47001694A083A516013
:102BD00049E067497831884208D165490839496830
:102BE00041F07061624A083A51603CE061498842B4
:102BF00006D1011F096841F00F01021F116032E088
:102C00005C491431884208D15A49091F096841F0CA
:102C1000F001584A121F116025E0564928318842B8
:102C200008D15449091F096841F47061514A121FC3
:102C3000116018E04F493C31884208D14D49091FC5
:102C4000096841F470414B4A121F11600BE0494979
:102C50005031884207D14749091F096841F4702162
:102C6000444A121F1160704710B50022026847F6EF
:102C7000F0739A430C6A8B6823430C6923434C69B5
:102C800023438C692343CC6923434C6A23438C6AD6
:102C900023431A430260CB6843600B6883604B6830
:102CA000C36010BD0021016041608160C1600161AD
:102CB00041618161C161016241628162704721B1FC
:102CC000026842F00102026004E002684FF6FE73FF
:102CD0001A40026070471AB103680B43036002E0B8
:102CE00003688B4303607047416070470146486842
:102CF00080B2704701460020002201F080531BB1D2
:102D00001C4B083B1A6802E0194B083B1A6802EAA0
:102D100001030BB1012000E00020704700F080515A
:102D200019B11449091F086002E0114908394860C7
:102D3000704701460020002201F080531BB10D4B6B
:102D4000083B1A6802E00A4B083B1A6802EA0103D2
:102D50000BB1012000E00020704700F0805119B154
:102D60000449091F086002E00149083948607047BA
:102D7000080002400804024010B50446FE488442A0
:102D800008D10121C014FFF77FFC0021E014FFF7F8
:102D90007BFCC4E0B4F1804F08D101210846FFF765
:102DA00080FC00210120FFF77CFCB8E0F34884425E
:102DB00008D101210220FFF774FC00210220FFF757
:102DC00070FCACE0EE48844208D101210420FFF7FA
:102DD00068FC00210420FFF764FCA0E0E94884427D
:102DE00008D101210820FFF75CFC00210820FFF733
:102DF00058FC94E0E448844208D101211020FFF7F8
:102E000050FC00211020FFF74CFC88E0DF48844292
:102E100008D101212020FFF744FC00212020FFF7EA
:102E200040FC7CE0DA48844208D101214014FFF7DD
:102E30002BFC00216014FFF727FC70E0D54884428A
:102E400009D10121C804FFF71FFC00214FF4002025
:102E5000FFF71AFC63E0D048844209D1012108053C
:102E6000FFF712FC00214FF48010FFF70DFC56E035
:102E7000CA48844209D101214805FFF705FC002119
:102E80004FF40010FFF700FC49E0C548844208D128
:102E900001214020FFF705FC00214020FFF701FC45
:102EA0003DE0C048844208D101218020FFF7F9FBB2
:102EB00000218020FFF7F5FB31E0BB48844208D1B8
:102EC00001218015FFF7EDFB0021A015FFF7E9FBBD
:102ED00025E0B648844209D101210804FFF7D4FB5C
:102EE00000214FF48030FFF7CFFB18E0B048844258
:102EF00009D101214804FFF7C7FB00214FF400303E
:102F0000FFF7C2FB0BE0AB48844208D101218804E3
:102F1000FFF7BAFB00214FF48020FFF7B5FB10BD8F
:102F200000220288944B98420ED0994B98420BD0C5
:102F3000B0F1804F08D0914B984205D0904B984209
:102F400002D0904B984204D14FF68F731A404B88B1
:102F50001A438D4B984207D08C4B984204D04FF6C1
:102F6000FF431A40CB881A4302808B8883850B88E5
:102F70000385814B98420BD0854B984208D08B4BF0
:102F8000984205D08A4B984202D08A4B984201D190
:102F90000B7A038601238382704770B500240022D8
:102FA0000023058C4FF6FE7635400584028C83881D
:102FB000048B4FF68F752C40B51E2C400D882C438A
:102FC000751E2A400D892A434D882A436A4DA8421E
:102FD0000BD06F4DA84208D0744DA84205D0744D57
:102FE000A84202D0734DA84213D14FF6F7752A407C
:102FF0004D892A434FF6FB752A408D882A434FF6A8
:10300000FF652B404FF6FF552B408D892B43CD8913
:103010002B4383800483CD888586028470BD70B580
:10302000002400220023058C4FF6EF7635400584FE
:10303000028C8388048B48F6FF752C404FF6FF45C1
:103040002C400D884FF6FF7606EA05252C434FF6F7
:10305000DF752A400D8906EA05152A434D8806EAE0
:1030600005152A43444DA84202D0494DA8421DD11E
:103070004FF67F752A404D894FF6FF7606EA051513
:103080002A434FF6BF752A408D8806EA05152A4364
:103090004FF6FF352B404FF2FF752B408D8906EA26
:1030A00085052B43CD8906EA85052B438380048360
:1030B000CD880587028470BD70B5002400220023EE
:1030C000058C4FF6FF6635400584028C8388848B1F
:1030D0004FF68F752C404FF6FC752C400D882C4315
:1030E0004FF6FF552A400D894FF6FF7606EA052573
:1030F0002A434D8806EA05252A431F4DA84202D0DF
:10310000234DA8421DD14FF2FF752A404D894FF63D
:10311000FF7606EA05252A434FF6FF352A408D88BB
:1031200006EA05252A434EF6FF752B404DF6FF753E
:103130002B408D8906EA05152B43CD8906EA051536
:103140002B4383808483CD888587028470BD70B5CE
:10315000002200230024058C4EF6FF7635400584BE
:10316000038C8488828B48F6FF752A404FF6FF4512
:103170002A400D8820E00000002C0140000400409F
:1031800000080040000C0040001000400014004007
:1031900000340140004C0140005001400054014007
:1031A00000180040001C004000200040004001408A
:1031B00000440140004801404FF6FF7606EA05252D
:1031C0002A434DF6FF752B400D8906EA05352B4342
:1031D0004D8806EA05352B43FA4DA84202D0FA4D38
:1031E000A84208D14BF6FF752C408D894FF6FF762B
:1031F00006EA85152C4384808283CD88A0F8405050
:10320000038470BD828B4FF2FF331A408283828B1E
:103210004FF6FF7303EA01231A4382837047F0B528
:103220000C461546002200210026078C4EF6FF7C36
:1032300007EA0C070784828B018C4FF6FF7707EAB9
:10324000043640F6FF473A404FF6FF7707EA052776
:103250003A434FF6FF7707EA03373A43D94FB8426C
:103260000ED0D94FB8420BD0B0F1804F08D0D74F15
:10327000B84205D0D64FB84202D0D64FB84206D198
:103280004DF6FF77394046F48057394305E047F65D
:10329000FF57394044F48057394382830184F0BD9D
:1032A000828B4FF6F3731A408283828B0A438283A8
:1032B0007047F0B50C461546002200210026078C09
:1032C0004FF6FF6C07EA0C070784828B018C4FF6E0
:1032D000FF7707EA04264FF60C773A404FF6FF7760
:1032E00007EA03172F433A43B64FB8420ED0B64F02
:1032F000B8420BD0B0F1804F08D0B44FB84205D0DF
:10330000B34FB84202D0B34FB84206D14FF6FF5781
:10331000394046F48077394305E04FF2FF57394092
:1033200044F48077394382830184F0BD028B4FF2ED
:10333000FF331A400283028B4FF6FF7303EA012327
:103340001A4302837047F0B50C461546002200214F
:103350000026078C4FF6EF7C07EA0C070784028BE8
:10336000018C4FF6FF7707EA041640F6FF473A4014
:103370004FF6FF7707EA03373A434FF6FF7707EA3E
:1033800005273A438F4FB8420ED08F4FB8420BD02B
:10339000B0F1804F08D08D4FB84205D08C4FB84265
:1033A00002D08C4FB84206D14FF6DF77394046F055
:1033B0001007394305E04FF65F77394044F01007B6
:1033C000394302830184F0BD028B4FF6F3731A4038
:1033D0000283028B0A4302837047F0B50C46154600
:1033E00000220021068C4FF6FE773E400684028BB9
:1033F000018C4FF60C7632407E1C06EA03162E43F3
:103400003243704EB0420ED06F4EB0420BD0B0F18E
:10341000804F08D06D4EB04205D06D4EB04202D004
:103420006C4EB04206D14FF6FD76314044F00106B5
:10343000314305E04FF6F576314044F00106314363
:1034400002830184F0BD70B505460C465D48854297
:103450000ED05D4885420BD0B5F1804F08D05B4857
:10346000854205D05A48854202D05A48854200D14B
:1034700000E000BF208850B92389A28861882846CF
:10348000FFF7ABFFE1882846FFF79EFF25E0208885
:1034900004280AD12389A28861882846FFF753FFB0
:1034A000E1882846FFF742FF17E0208808280AD164
:1034B0002389A28861882846FFF7FBFEE188284619
:1034C000FFF7EEFE09E02389A28861882846FFF70E
:1034D000A6FEE1882846FFF795FE70BD2DE9F04174
:1034E00005460C4600260127608808B9022600E040
:1034F0000026A088012801D1022700E001272088AA
:10350000A0B92389A28861882846FFF766FFE18871
:103510002846FFF759FF23893A4631462846FFF7E8
:1035200012FFE1882846FFF701FF13E02389A288F4
:1035300061882846FFF707FFE1882846FFF7F6FE77
:1035400023893A4631462846FFF747FFE188284657
:10355000FFF73AFFBDE8F0810A884B881A438B8851
:103560001A43CB881A430B891A434B891A438B8918
:103570001A43A0F8442070474FF6FF718180002164
:103580000180C1804180017270470021018041802B
:103590008180C180018141818181C1817047002189
:1035A00001804180012181800021C180018170471B
:1035B0000021018041808180C18001814181818120
:1035C00070470000002C014000340140000400401E
:1035D00000080040000C004021B1028842F00102C6
:1035E000028004E002884FF6FE731A4002807047A2
:1035F00031B1B0F8442042F40042A0F8442005E084
:10360000B0F84420C2F30E02A0F8442070471AB16B
:1036100083890B43838102E083898B4383817047D5
:103620008182704741EA0203A0F8483070471AB11E
:1036300083890B43838102E083898B4383817047B5
:1036400001894FF6F8721140018170470A46002146
:1036500001894FF68F73194011430181704730B5CE
:1036600004460D4629462046FFF7F0FF208940F02A
:103670000700208130BD2DE9F04104460D46164675
:103680001F46602D06D13B46012231462046FFF7FA
:103690005AFE05E03B46012231462046FFF79DFEDB
:1036A00029462046FFF7D2FF208940F007002081FD
:1036B000BDE8F08130B50C4600210189C9B24FF652
:1036C000FF7505EA0325154325432943018130BDD4
:1036D0002DE9F04105460E4617469846002443461C
:1036E0003A4631462846FFF7E5FF2C894FF6F87039
:1036F000044044F007044FF68F70044044F0700417
:103700002C81BDE8F081F0B504460D4616461F46F3
:103710003B46324629462046FFF7CCFF208940F43D
:1037200080402081F0BD0185828270470A460021D9
:1037300001884FF68F731940114301807047F0B52F
:103740000C4615461E460021002200230189028BEB
:10375000038C4FF6F877394021434FF6FC473A4047
:1037600040F201173A434FF6DD773B404FF6FF77C3
:1037700007EA06172F433B43018102830384F0BD10
:103780000A460021018B4FF68F73194011430183C4
:1037900070470A460021018B48F6FF7319404FF627
:1037A000FF7303EA02231943018370470A4600218D
:1037B000818B4FF68F7319401143818370470A46FE
:1037C0000021818B48F6FF7319404FF6FF7303EA1F
:1037D000022319438183704721B1028842F080029D
:1037E000028004E002884FF67F731A40028070471F
:1037F00021B1828842F00402828004E082884FF680
:10380000FB731A408280704721B1828842F008021F
:10381000828004E082884FF6F7731A4082807047F6
:1038200021B1828842F00102828004E082884FF652
:10383000FE731A40828070470A460021018B4FF6C2
:10384000F77319401143018370470A460021018B29
:103850004FF2FF7319404FF6FF7303EA0223194337
:10386000018370470A460021818B4FF6F773194098
:103870001143818370470A460021818B4FF2FF7309
:1038800019404FF6FF7303EA0223194381837047FF
:103890000A460021018B4FF6FB7319401143018347
:1038A00070470A460021018B4FF6FF3319404FF64F
:1038B000FF7303EA02231943018370470A4600217C
:1038C000818B4FF6FB7319401143818370470A4681
:1038D0000021818B4FF6FF3319404FF6FF7303EA47
:1038E00002231943818370470A460021018B4FF65A
:1038F0007F7319401143018370470A460021018BF1
:10390000C1F30E014FF6FF7303EA0223194301834B
:1039100070470A460021818B4FF67F73194011438F
:10392000818370470A460021818BC1F30E014FF657
:10393000FF7303EA02231943818370470A4600217B
:10394000018C4FF6FD7319401143018470470A46FC
:103950000021018C4FF6F773194011430184704721
:103960000A460021018C4FF6DF7319404FF6FF73B2
:1039700003EA02131943018470470A460021018CAF
:103980004FF67F7319404FF6FF7303EA0213194392
:10399000018470470A460021018C4FF6FF531940FD
:1039A0004FF6FF7303EA02231943018470470A4666
:1039B0000021018C4FF2FF7319404FF6FF7303EAA9
:1039C00002231943018470470A460021018C4DF6F9
:1039D000FF7319404FF6FF7303EA02331943018462
:1039E000704730B5002301248C40A3B2048C9C4363
:1039F0000484048C02FA01F5ADB22C43048430BD7A
:103A000030B5002304248C40A3B2048C9C4304846E
:103A1000048C02FA01F5ADB22C43048430BD70B5BC
:103A20000346002000241846183001258D40ACB212
:103A30001D8CA5431D8409B1082909D100EB610043
:103A4000056825F0700505600568154305600EE002
:103A50000D1FC5F34E052844056825F4E0450560B3
:103A600005684FF6FF7606EA02263543056070BD0D
:103A700021B1028842F00202028004E002884FF67F
:103A8000FD731A400280704721B1028842F004029F
:103A9000028004E002884FF6FB731A4002807047F0
:103AA00021B1828842F08002828004E082884FF651
:103AB0007F731A408280704702884FF6F7731A406E
:103AC000028002880A430280704782884FF68F7313
:103AD0001A40828082880A438280704702894FF6AA
:103AE000F8731A40028102890A43028170470289F1
:103AF0004FF67F731A40028102890A4302817047A0
:103B0000818470478185704781867047018770473F
:103B100081877047A0F84010704702884FF6FF4336
:103B20001A40028002880A43028070470146888E4C
:103B300070470146088F70470146888F70470146DD
:103B4000B1F8400070470146888C70470146088DE7
:103B5000704702460020138A0B400BB1012000E0A1
:103B600000207047CA430282704730B502460020E9
:103B700000230024158A05EA0103958905EA01045A
:103B800013B10CB1012000E0002030BDCA43028215
:103B9000704770470FB41CB5084B06AA7B446946B2
:103BA0000090059800F059FC04460020694600F09A
:103BB00067FC20461CBC5DF814FB0000E108000017
:103BC0000FB4044910B503AA029800F05FFC10BCC2
:103BD0005DF814FBA80000200FB41CB5084B06AA22
:103BE0007B4469460090059800F037FC04460020AD
:103BF000694600F045FC20461CBC5DF814FB000043
:103C00009D0800002DE9F041064600241068752942
:103C1000314616A510D000F066F9002802DA4042BD
:103C200013A507E031688A0701D512A502E049070C
:103C300004D511A5012401E000F05EF900210A225B
:103C400006F1240709E0B0FBF2FCB0FBF2F302FB43
:103C50001C00303078541846491C0028F3D1234604
:103C60002A463046BDE8F04100F078B90000000077
:103C70002D0000002B000000200000002DE9F05F67
:103C8000894604464FF0000ADFF874B1FB44C0F8DF
:103C900020A02046E1688847002874D0252806D057
:103CA000D4E901219047206A401C2062F1E70026F8
:103CB0005F462046E16888472028054607DB312D0E
:103CC00005D2781910F8200C08B10643F1E7B007C7
:103CD00001D526F00406C4F81CA00027C4F818A0DB
:103CE0002A2D09D0284601F012FC38B304EB8708CE
:103CF000303DC8F8185019E059F8041B204604EB71
:103D000087029161E1688847012F054618D1E06973
:103D1000002820DA26F020061DE0D8F8180000EB75
:103D2000800005EB40003038C8F818002046E168F4
:103D30008847054601F0EBFB0028EED1012F0AD0A1
:103D40002E2D08D12046E16888477F1C0546022FAA
:103D500046F02006C4DBA069002803DA404246F0A2
:103D60000106A061F00701D026F010066C2D0BD0E3
:103D7000682D09D04C2D39D06A2D35D0742D35D011
:103D80007A2D33D016E038E0E1682F462046884788
:103D9000B842054609D16C2F26D04FF48060E16807
:103DA000064320468847054604E06C2F1AD04FF49E
:103DB000807006430DB3A5F14100192802D82035C3
:103DC00046F400664A462946204626604E46FCF7E1
:103DD000C7F980B101280BD0F61D26F0070000F1CD
:103DE000080956E74020E4E78020D8E70020D6E71E
:103DF00006F104094DE7284652E7206ABDE8F09F26
:103E00000A2E000010B5431C02E010F8011B71B12E
:103E10008107FAD14FF0013202C88C1A8C4314EAA0
:103E2000C211F9D0C01A0A0603D0C01E10BDC01AB4
:103E300010BD0A0401D0801E10BD0902FCD0401E36
:103E400010BD4FF0000200B5134694469646203947
:103E500022BFA0E80C50A0E80C50B1F12001BFF443
:103E6000F7AF090728BFA0E80C5048BF0CC05DF8A9
:103E700004EB890028BF40F8042B08BF704748BFF7
:103E800020F8022B11F0804F18BF00F8012B70476B
:103E9000704770477047704770B504468569006881
:103EA000C10601D5302600E02026C00707D070BD2E
:103EB000D4E9012130469047206A401C20626D1EE3
:103EC000F6D570BD70B5044685690078C00707D186
:103ED00070BDD4E9012120209047206A401C206257
:103EE0006D1EF6D570BD09684A0501D540B2704710
:103EF000C905FCD500B2704709684A0501D5C0B2B2
:103F00007047C905FCD580B2704770B50C460546B0
:103F1000012A05D02878800600D5EA69002302E04E
:103F2000012305E05B1C934202D2E05C0028F9D13A
:103F3000A869E618C01AA861286A184428622846A9
:103F4000FFF7AAFF04E0D5E9012114F8010B90471F
:103F5000B442F8D32846FFF7B5FF70BD2DE9F0470E
:103F60000D4699469246044600F1240801688806E9
:103F700004D5E06921F01001216000E00120A84291
:103F800001DD471B00E00027A1697A1902EB090057
:103F9000081AA0612078C00602D42046FFF77CFFF3
:103FA000002608E0D4E901211AF806009047206AAB
:103FB000401C761C20624E45F4DB2078C0060AD5F2
:103FC0002046FFF769FF06E0D4E901213020904741
:103FD000206A401C2062381EA7F10107F4DC07E0CC
:103FE000D4E9012118F805009047206A401C20629E
:103FF000281EA5F10105F3DC2046FFF763FF2078BA
:10400000000602D50220BDE8F0870120FBE7116819
:104010000268006A530501D508700AE0D30501D58E
:10402000088006E0130603D5C217C1E9000200E0CC
:1040300008600120704770472DE9FF4F0C461E466F
:104040004FF0FF378BB0D2E90001DDF860800A90B5
:104050008A46C1F30A5505B93D46002108464FF08E
:104060000000BAF1000F00F4400005DA00EB800018
:104070004FF4400101EA50004FEA9059B9F1010FA5
:1040800000DDB9460A9850EA4A000ED044F61050B6
:10409000A5F2FF3545432F14B8F1000F1ED075422D
:1040A000291E1EDDC9F100021CE0B8F1010F4FF01E
:1040B000000001D0302103E0F24305E02154401C10
:1040C000B042FBDB30460022002121540B99C1F89D
:1040D0000880C1E900200FB0BDE8F08FBD1B6D1C4A
:1040E000DEE74A4600DA694206A800F033FD06AB77
:1040F00093E8070003AB83E8070050460A9900F0F5
:1041000037FE8DE80700A0F500501F380090039897
:10411000002D09DD42F21F014A46084403A903901D
:10412000684601F096F808E0A0F500504A461F38AE
:1041300003A90390684601F0A0F88DE80700000489
:10414000000C03D04FF0FF30410800E01046B8F1FA
:10415000000F03D00022009215461EE0751E05D404
:1041600000F0C8FA303262556D1EF9D5B34601220F
:10417000084302D000227F1C04E02078302801D1BF
:1041800000227F1E002A099786D01DE0112D07DA34
:1041900000F0B0FA303262556D1C50EA0102F5D1E0
:1041A000084302D00098C8B10EE00021681E05E067
:1041B000235C625C63542254401E491C8142F7DB3D
:1041C000AB46A81B401E0990002004F80B000B987A
:1041D000099AC0F80880C0E9002B7CE711264FF04F
:1041E000000859E72DE9F04F88460446D21D22F019
:1041F000070191B0D1E90001CDE90A0101F073F99D
:1042000002460B98C00F01D02D2007E020688107DF
:1042100001D52B2002E0202101EAC000032A0990E9
:1042200001D0072A05DB03464146204600F026FC64
:104230000BE12078800601D5E06900E00620B8F1A6
:10424000650F814606D0B8F1660F18D0B8F1670F38
:1042500070D131E00020B9F1110F009001DB112382
:1042600001E009F101030AAA01A90CA8FFF7E4FE85
:10427000DDE90C70002609F10105834647E00120C5
:104280004B4600904FF000470AAA01A90CA8FFF77F
:10429000D3FEDDE90DB00C995D46002610B909F199
:1042A00001000D18B9EB050003D4C0F1FF3609F188
:1042B0000105A5EB09002BE0B9F1010F01DA4FF080
:1042C00001090020B9F1110F0090484601DD1123CA
:1042D00000E003460AAA01A90CA8FFF7ADFEDDE93C
:1042E0000C704D4600268346207800070AD4AB4563
:1042F00000DA5D4601A8012D04DD411911F8011C09
:10430000302907D04F4502DA17F1040F04DA0120F3
:1043100082460FE06D1EEEE7002F02DCED1B3E44EF
:1043200003E0781CA84200DD7D1CB81B00F1010AE7
:104330004FF000472078000703D4AA4501DB4FF077
:10434000FF3A0021B7F1004F0DF143088DF84310FB
:1043500024D002202B23002F01DA7F422D230A21B3
:10436000021EA0F1010000DC5FB197FBF1FC97FB9E
:10437000F1F201FB1C7C17460CF1300C08F801CD62
:10438000EEE7A8F1010003702188090501D5452158
:1043900000E06521A0F1010800F8011C09980FA9AF
:1043A000A1EB0807FF1D00B10120411901EBEA70E4
:1043B000A1693844081A401EA0612078C00602D4C2
:1043C0002046FFF769FD099828B1D4E901219047FB
:1043D000206A401C20622078C00622D52046FFF7C4
:1043E0005BFD1EE0002E04DBB34502DD01A8805D0D
:1043F00000E03020D4E901219047206A401C20626F
:10440000761CAAF101005FEA000A0AD100F06EF9F9
:10441000C0680168405CD4E901219047206A401CD3
:104420002062281EA5F10105DCDC07E0D4E90121AA
:1044300018F8010B9047206A401C2062381EA7F133
:104440000107F3DC2046FFF73DFD032011B043E6F2
:1044500001694A1C02610878704700B58FB0CDE948
:1044600001310021059105497944CDE90310114638
:104470006846FFF703FC0FB000BD0000E5FFFFFF3B
:104480000A6802F8010B0A6070470000074B70B51C
:104490000D467B44FFF7E1FF0446284600F0C8FBC9
:1044A00010B14FF0FF3070BD204670BD33D9FFFF13
:1044B0002DE9FF5F15468A460446DFF8AC80F844D4
:1044C0000027D8E900103E46CDE9001010E03AF888
:1044D00016106A4602A800F0AFFB411C07D02178F5
:1044E000890603D5E269391891420DD80744761C34
:1044F0002078800602D5E069B84205DDAE42E6DBF1
:104500003AF816000028E2D1A069C01BA06120463D
:10451000FFF7C2FCD8E90010CDE90010002017E039
:104520003AF818106A4602A800F086FBB0F1FF3F87
:1045300081460BD000250DF1080B05E0D4E90121DF
:104540001BF8050090476D1C4D45F7D308F101009D
:10455000B0428046E4DB206A384420622046FFF700
:10456000B1FCBDE8FF9F0000EA2500002DE9F04105
:104570008046D21D22F007020025D2E90002F5296B
:1045800015A614D0011E72F1000106DA0023D0EB4B
:10459000030063EB020211A608E0D8F800108B07B5
:1045A00001D50FA602E0490701D50EA60125114647
:1045B000002408F1240704E000F09CF830323A555A
:1045C000641C50EA0102F7D12B4632462146404690
:1045D000BDE8F041FFF7C2BC000000002D00000064
:1045E0002B0000002000000030B4002100F1240462
:1045F00008E002F00705D208303542EA4372DB08D2
:104600006554491C52EA0305F3D10468002310A243
:10461000250708D504F020040C4304D0C469012305
:104620000CA2641EC46130BCFFF798BC10B50446F0
:1046300021461068FFF760FC02462046BDE81040A6
:104640000023D1E7D21D22F00701D1E90023CBE7F7
:104650000000000030000000F0B40D46018809059C
:1046600002D5214C7C4402E01F4C7C440E340021D6
:1046700000F1240608E002F00F071209E75D42EAA4
:1046800003721B097754491C52EA0307F3D10278DD
:104690000023120704D5702D06D009B1022311346E
:1046A0002246F0BCFFF75ABC01231034F8E770B57E
:1046B00004460D4621461068FFF71EFC02462946B7
:1046C0002046BDE870400023C6E7D21D22F0070354
:1046D000D3E90023C0E70368126843F020030360B6
:1046E0000823C3610023B7E74C240000004870474B
:1046F0005C0F002030B5B0F10A024FEA900E71F164
:1047000000034EEA817EB0EB0E0061EB91014FEAAF
:10471000101E4EEA017E10EB0E0041EB11114FEA24
:10472000102E4EEA016E10EB0E0041EB11214FEA04
:10473000104E4EEA014E10EB0E0041EB11414018B5
:1047400041F100014FEAD00040EA41704FEAD10147
:1047500010EB80054FEA810444EA907444EB0104B5
:104760006D1944EB0404521BA3414FF0000348BFF2
:104770000A3200D530BD401C41F1000130BD0000BF
:104780002DE9F04F04460D46D21D22F0070089B0F6
:10479000D0E9009248461746394600F0A4FE02468A
:1047A000F80F01D02D2307E02068810701D52B23C6
:1047B00002E0202101EAC0038DF820300BB1012076
:1047C00000E00020032A824601D0072A04DB2946A4
:1047D000204600F053F93DE12078800601D40D25F4
:1047E00000E0E569C7F30A560D2D49DA00214FEACA
:1047F000175B08464FF00000002F00F4400007DA76
:1048000000EB80004FF4400100EBD07001EA600043
:104810008115012901DD4FF0FF3100224FEA850C9F
:10482000BCF1180F06D31346ACF118004FF08052BC
:10483000C24003E04FF4801323FA0CF30CF10C0C8C
:10484000BCF1200F04D3ACF1200C09FA0CF001E00C
:1048500007FA0CF000294FF0004801DD18B90FE00D
:104860000ED140450CD319EB02095F4121B94045F7
:1048700002D19F4329EA0209BBEB175F00D0761CE7
:104880002088000502D57B48784402E079487844C6
:10489000193808AA302302F80A30037C0AF1010112
:1048A000002E0AF1020A53546A4602DC4FF030012E
:1048B00001E04FF031014FF001088DF8001002D0F7
:1048C000A6F2FF3603E059EA470100D06A4E002DF8
:1048D00002DC2178090704D54FF002082E218DF85B
:1048E0000110C44600210BE0C7F303433F01C35C42
:1048F000491C6D1E02F80830052908F1010801DA8B
:10490000002DF1DC00210CE000EB1973491C1B7831
:104910006D1E082902F808304FEA091908F101084C
:1049200001DA002DF0DC2178890602D514E0A8F127
:104930000108E04505DD02EB080111F8011C3029F2
:10494000F5D0B8F1000F07DD02EB080111F8011CEA
:104950002E2901D1A8F10108002D05DD3E2102F824
:1049600008106D1E08F10108407C002E02F80800B6
:1049700008F1010804DA2D20764202F8080002E06E
:104980002B2002F808000A214FF47A70864208F1C1
:1049900001080BDB96FBF0F3303302F8083096FB8E
:1049A000F0F308F1010800FB136601E0642E0CDB54
:1049B000642096FBF0F3303302F8083096FBF0F3F6
:1049C00008F1010800FB136601E00A2E06DB96FBE6
:1049D000F1F0303002F8080008F1010896FBF1F020
:1049E00001FB1060303002F80800A16908F10108ED
:1049F00008EB050202EB0A00081AA0612078C00645
:104A000002D42046FFF748FA216A08AE01EB0A00FB
:104A1000206204E0D4E9012116F8010B9047BAF1B5
:104A2000010AF7D22078C00602D52046FFF734FAF3
:104A30006E4609E016F8010B3E280FD0D4E901219B
:104A40009047206A401C2062B8F10108F2D220464B
:104A5000FFF738FA09B00320BDE8F08F206A284438
:104A6000206203E0D4E90121302090476D1EEBD392
:104A7000F8E700006322000002FCFFFF2DE9F0418F
:104A80001F46044603260168072A01F4006004DB80
:104A900008B116A505E016A503E008B115A500E0CC
:104AA00015A521F010002060A069C01EA0610FB103
:104AB000401EA0612046FFF7EFF94FB1D4E9012174
:104AC00038469047206A401C2062C01C206206E0E5
:104AD000206AFAE7D4E9012115F8010B9047761E08
:104AE000F8D22046FFF7EEF9BDE8F0814E414E00C6
:104AF0006E616E00494E4600696E660010B54369EE
:104B000013B1AFF3008001E0FFF7FFF9012010BD02
:104B1000127800F124010A7000224A700122EDE7A8
:104B200011684FF0FF32E9E710B5436913B1AFF3F5
:104B3000008001E0FFF7BCFC012010BD128800F1ED
:104B4000240182840022C2840122EDE711684FF023
:104B5000FF32E9E72DE9F047814616468AB033482F
:104B600078440DC88DE80D0030487844801C03ACB3
:104B70000DC884E80D0041F69B300844372190FBB6
:104B8000F1F290FBF1F5A5F1800501FB12041B3C4D
:104B900002D56442012000E00020DFF890A08046AA
:104BA0000027FA44AAF1BE0A0DE0E00709D0324618
:104BB000684607EB47010AEB810100F05EFB8DE8D8
:104BC000070064107F1C002CEFD1184F7F44AC3FCE
:104BD00018E0E80714D007EB04100DF1180A90E86C
:104BE0000E008AE80E00C068F04201D198190890C2
:104BF000324606A903A800F040FB03AB83E8070098
:104C00006D10641C002DE4D132466946B8F1000FE6
:104C100003A802D000F01DFB01E000F02EFBC9E963
:104C20000001C9F808200AB0BDE8F0871C20000088
:104C3000007B00F08000704770B516460C460546B4
:104C400000F044F8036893F80101012806D0FF2C16
:104C50000FD8185D68B101202C7070BDD3F8070122
:104C60003246214603F2071303442846BDE870404C
:104C700018474FF0FF3070BD004870473C0F0020D0
:104C80007546FFF7F9FFAE4605006946534620F02A
:104C90000700854618B020B5FDF742F9BDE8204071
:104CA0004FF000064FF000074FF000084FF0000BE8
:104CB00021F00701AC46ACE8C009ACE8C009ACE89B
:104CC000C009ACE8C0098D467047000010B5FFF779
:104CD0000DFD001D10BD00BF7108000010B5044699
:104CE000AFF300802046BDE81040FBF79CBA0000FF
:104CF0004FF0013C50F8042B51F8043B9A4221D16B
:104D0000A2EB0C03934313EACC1317D150F8042BF6
:104D100051F8043B9A4215D1A2EB0C03934313EADA
:104D2000CC130BD150F8042B51F8043B9A4209D113
:104D3000A2EB0C03934313EACC13DBD04FF000003B
:104D4000704700BFD01A01BAB1FA81F101F0180121
:104D500022FA01F0CB40C1F12001DBB2C0B2C01A8F
:104D60002CFA01F3D11A914311EAC311E6D170472D
:104D70005FEA400C08BF91F0000F4FEA8C234FEA26
:104D8000C12243EA51514FEA1C5018BF00F5F040D0
:104D90004FEA300018BF41F000415FEA6C5C00F060
:104DA0002980BCF1FF3F08BF40F080407047130CE2
:104DB00006BF12044FF0100C4FF0000C130E04BF8E
:104DC00012020CF1080C130F04BF12010CF1040CB9
:104DD000930F04BF92000CF1020CD30F04BF5200DA
:104DE0000CF1010C11464FF00002A0F11F00A0EBE6
:104DF0000C00704711F0004F08BF704731F00041C0
:104E00003FF4D5AF0B0C06BF09044FF0100C4FF068
:104E1000000C0B0E04BF09020CF1080C0B0F04BFB1
:104E200009010CF1040C8B0F04BF89000CF1020C7A
:104E3000CB0F04BF49000CF1010CCCF12003A0EB17
:104E40000C0022FA03F302FA0CF241EA030100F12A
:104E50000100704720F07F4C80EA030023F07F4779
:104E6000ACEB070303F57C5300F0004003F1FF03B4
:104E70002DE980494FEA154B09B44FEA144325EA5E
:104E80000B4E24EA03480FF2042606EB13274908C9
:104E90003E785FEA320203FB0667C7F5000707FBAF
:104EA00006F64FEA54374FEAD64606F1020607FBEC
:104EB000066CCCF1005C4FEA1C472CEA074C07FB60
:104EC00006F40CFB06F504EB15464FEA961634BFC4
:104ED00000204FF000404FEAD13706FB07FC4FEAB5
:104EE0001C4C0CFB0BF7D21B03FB0CF761EB07010F
:104EF0000CFB0EF7B0EB074072EB17420CFB08F708
:104F000034BFA2EB0742B2EB074261EB17414FEA15
:104F10000C444FEA910706FB07FC4FEA1C4C0CFBC4
:104F20000BF7B0EBC74072EB573203FB0CF734BF03
:104F3000A2EBC742B2EBC74261EB57310CFB0EF755
:104F4000B0EBC70072EB57720CFB08F734BFA2EB53
:104F5000C702B2EBC70261EB5771039F4FEA816151
:104F600041EA921104EBCC044FEAD1374FEA826256
:104F700006FB07FC42EA90124FEA80604FEA1C4CA5
:104F80000CFB0BF7D21B03FB0CF761EB07010CFBCF
:104F90000EF7B0EB074072EB17420CFB08F734BF7B
:104FA000A2EB0742B2EB074261EB17414FEA8C5587
:104FB0004FEA910704EB9C2406FB07FC4FEA1C4CCC
:104FC0000CFB0BF7B0EBC74072EB573203FB0CF74F
:104FD00034BFA2EBC742B2EBC74261EB57310CFBC7
:104FE0000EF7B0EBC70072EB57720CFB08F734BF3B
:104FF000A2EBC702B2EBC70261EB577115EB4C2570
:105000004FEA816141EA92114FEA82624FEAD13759
:1050100042EA901206FB07FC44F100044FEA80606C
:105020004FEA1C4C0CFB0BF7D21B03FB0CF761EB9C
:1050300007010CFB0EF7B0EB074072EB17420CFBBD
:1050400008F734BFA2EB0742B2EB074261EB17410E
:1050500015EB1C154FEA813141EA92414FEA823249
:1050600042EA90424FEA80304FEA0C7644F1000465
:1050700048EA03434EEA0B484FF0000EB2EB080C2F
:1050800071EB030724BF624639464EEB0E0E4FF01C
:10509000000B0018524149414BEB0B0BB2EB080CD3
:1050A00071EB03077BF1000B24BF624639464EEBE0
:1050B0000E0E4FF0000B0018524149414BEB0B0B09
:1050C000B2EB080C71EB03077BF1000B24BF6246C7
:1050D00039464EEB0E0E51EA020718BF46F00106A4
:1050E00016EB0E7655F1000254F1000103D5BDE830
:1050F0008901BDE80088BDE88901BDE80048B6190E
:10510000524141EB0101A3F10103704780807F7E92
:105110007D7C7B7A7978777676757473727171702D
:105120006F6E6E6D6C6C6B6A6A69686867666665DF
:105130006464636362616160605F5F5E5E5D5D5C6D
:105140005C5B5B5A5A5959585857575656555555DE
:105150005454535352525251515050504F4F4F4E3E
:105160004E4D4D4D4C4C4C4B4B4B4A4A4A4949498C
:1051700048484847474747464646454545444444CE
:10518000444343434342424242414141002B26D4DF
:10519000770021D01CB54FEA370703B44FF0100059
:1051A0004FF010014FF000000FBCBDE810400BF1B4
:1051B000010BBBF1010F08BF5FEA170722BF12F115
:1051C000010211F101014FF0004143F1000300F031
:1051D000004043EA00007047F9D35708DAE746EA8F
:1051E000064613F1400F4FEA16461FDD13F1200F5C
:1051F000DFBF16430A46002120335B42C8D0C3F10B
:10520000200746EA064602FA07F74FEA164646EA3C
:105210000706C3F1200722FA03F201FA07F721FA81
:1052200003F14FF0000342EA0702B1E746EA020643
:1052300046EA06464FEA164646EA0106BCBF46EA7B
:105240000646360C4FF000034FF000024FF000010D
:105250009EE72DE9C048934630B491E8380007C86E
:1052600031EA400C48BF34EA430C03D5FFF7F2FDA6
:10527000FFF78CFFF0BCBDE800882DE9C0489346DD
:1052800030B491E8380007C810F0804F08BF13F021
:10529000804F03D100F005F8FFF778FFF0BCBDE8C0
:1052A000008820F07F4780EA030023F07F4C07EB63
:1052B0000C03A3F57C5300F00040A3F1FE0392F031
:1052C000000F00F0B38095F0000F00F077802DE91B
:1052D00001494FEA11404FEA144621EA004800FB19
:1052E00006FC24EA064708FB06F607FB08F800FB65
:1052F00007F718EB06484CEB164C4FEA124B18EB2D
:1053000007484FEA15464CEB174022EA0B4E0BFBC1
:1053100006FC25EA06470EFB06F607FB0EFE0BFB16
:1053200007F71EEB064E4CEB164C4FF000061EEB3B
:10533000074E4CEB174B18EB0B0840F1000018EB35
:105340000E0B58EB000840F100008F1A4FF00001DF
:105350003CBFC943661B14BFB5EB040C00213CBF26
:10536000C943F61B4FEA17444EEA8E0E27EA04455E
:105370004FEA1C4704FB07622CEA074C05FB07F7C2
:105380000CFB05F604FB0CFC16EB074642EB174240
:1053900016EB0C4642EB1C421BEB060658EB0202D6
:1053A000414146EA9E0601D5BDE80189B619524140
:1053B00041EB0101A3F10103BDE801894FEA144566
:1053C0004FEA114724EA054621EA074C05FB07F49A
:1053D00006FB07F70CFB06F105FB0CFC11EB074184
:1053E00044EB17444FEA124711EB0C4144EB1C44C9
:1053F00022EA074C05FB07F206FB07F70CFB06F653
:1054000005FB0CFC16EB074642EB174216EB0C466D
:1054100042EB1C456A1854F1000148BF7047B619A9
:10542000524141EB0101A3F10103704795F0000FD8
:1054300037D04FEA11424FEA144721EA024624EAE4
:10544000074C02FB07F106FB07F70CFB06F402FB17
:105450000CFC14EB074441EB17414FEA154714EBE2
:105460000C4441EB1C4125EA074C02FB07F506FB07
:1054700007F70CFB06F602FB0CFC16EB074645EBA8
:10548000174516EB0C4645EB1C42121951F1000171
:1054900048BF7047B619524141EB0101A3F1010326
:1054A00070474FEA14454FEA114724EA054621EABE
:1054B000074C05FB07F106FB07F70CFB06F24FF064
:1054C000000605FB0CFC12EB074241EB174112EB07
:1054D0000C4251EB1C4148BF7047921841EB01014F
:1054E000A3F101037047490050EAC12018BF04200E
:1054F0004A0D18BF40F0010040F2FF72B2EB515F5D
:1055000008BF40F00200012808BF0520704730386E
:105510000A2801D2012070470020704710B50029E9
:105520000AD00878002807D005487844FFF7E0FB48
:10553000002801D0002010BD0248784410BD0000B2
:10554000D2160000CA16000010B500290AD008784B
:10555000002807D005487844FFF7CAFB002801D08F
:10556000002010BD0248784410BD0000C2160000A3
:10557000BA16000021F00042A2F16052B2F5801F7D
:1055800001F0004328BFD2F17F6C0BD95FEA001C09
:1055900043EAC20242EB507018BF704728BF20F0A8
:1055A00001007047B2F5801FBCBF184670474FEA34
:1055B000410C1CF5001F02D2084600F0BEBC70B5BD
:1055C00000F020FA00000089FFF7F6BF4FF000401E
:1055D000A0F58000704700002DE9C04130B4DFF82D
:1055E000A0C23CEA111418BF3CEA131400F0EC808E
:1055F00081EA03051CEA111444EAD57418BF1CEAB9
:10560000131500F0C780A4EB05044FF0004545EAF0
:10561000C12145EAC32341EA505143EA525304F100
:105620007F74994204F500344FEAC0204FEAC22249
:1056300008BF904200F09C804FEA13650FF24016BD
:10564000765D4FEA134506FB05F7C7F1807706FB49
:1056500007F74FEAD737A7FB03687642C8F58038CB
:10566000A7FB06CE38BFA8F1010807FB08E64FF0FC
:10567000000EA6FB028CE6FB03CEDCF1000CCEF1A3
:10568000004E38BFAEF1010EA6FB0C584FF00007DC
:105690004FF00005E6FB0E87A1FB08C6A0FB07CE76
:1056A00016EB0E0645F10005E1FB076515F1E04E2E
:1056B0007EBFA4F580345FEA46066D4116F180078F
:1056C00045F100054FEA17274FEA066647EA0567E6
:1056D000A6F1DE46B6F1805F4FEA15251FD93846A0
:1056E00024F0010C05EBC471BCF1FE6F01EB0C1151
:1056F00002D8F0BCBDE8008124425CBF01F5801EE9
:105700009EEAC47F02D4F0BCBDE80081244238D4B4
:10571000F0BCA1F1C041BDE8004100F0C1B94FEAC1
:10572000D22242EA43524FEAD323A7FB02864FEA32
:10573000D02040EA415007FB03661EEA0E0F4FEAF5
:10574000D12105FB026658BFA6EB0056B6EB00560A
:105750004FEA520E4EEAC37E18EB0E0E56EB530E76
:10576000BDD518EB02085E417F1C55F10005B6E778
:105770004FF480154FF000074FF000064FF000087F
:10578000ADE7F0BC4FF0000001F1C04101F0004175
:10579000BDE8008111EA0C1F0CEA131500D00CE0E3
:1057A00013EA0C1F00F025804FF00000F0BC81EAE6
:1057B000030101F00041BDE80081F0BCBDE80041FB
:1057C00081EA030100F06CB9F0BCBDE8004170B59E
:1057D00000F018F9097EFC3E00F007B881EA0301E9
:1057E0004FF0000001F00041704781EA030100F032
:1057F00057B9F0BCBDE800414FF0000021497047A7
:10580000FFFDFBF9F7F5F4F2F0EEEDEBE9E8E6E485
:10581000E3E1E0DEDDDBDAD8D7D5D4D3D1D0CFCD0C
:10582000CCCBCAC8C7C6C5C4C2C1C0BFBEBDBCBB45
:10583000BAB9B8B7B6B5B4B3B2B1B0AFAEADACAB40
:10584000AAA9A8A8A7A6A5A4A3A3A2A1A09F9F9E1A
:105850009D9C9C9B9A9999989797969595949393CC
:10586000929191908F8F8E8E8D8C8C8B8B8A898963
:1058700088888787868585848483838282818180E6
:105880000000FF070000F87FB0FA80F310FA03F180
:105890000AD0C3F11D0303F580634FEA41504FEA7C
:1058A000035202EBD12170474FF000007047000017
:1058B000DFF848C170B51CEA111E1EBF1CEA1315A3
:1058C0009EEA0C0F95EA0C0F00F06F8081EA03044A
:1058D00023EA4C134EEAD47E21EA4C1141F48011A4
:1058E00043F48013AE44A1FB024CA0FB0365AEF170
:1058F0007F7E361955EB0C05A1FB034C4CF10003E0
:10590000A0FB021C16EB0C06654153F10003094293
:1059100018BF46F0010613F4007F0BD14FEA0331A4
:105920004FEA0530340341EA155140EA16506FF052
:1059300003020AE04FEAC3214FEAC520F40241EA1C
:10594000555140EA56506FF0020202EB2E4201EB35
:10595000025585EACE710AD05FEA440C18BF24F0E4
:10596000004450F1000041F1000120EAD47040F2FF
:10597000FE7C624500D270BDA84214BF4FF0804447
:105980004FF04044002E08BF0024BEF1806FA8BF36
:10599000A1F1C041BDE8704080F282804FF000006C
:1059A00001F1C04101F0004170479EEA0C0F0CEA82
:1059B000131518BF95EA0C0F06D04FF0000081EACE
:1059C000030E0EF0004170BD00F01CF88900013E8E
:1059D00000F007B800F009B84FEA430C5FEA5C5CDE
:1059E00008D081EA030100F05BB84FEA410C5FEA9E
:1059F0005C5CF6D14FF00000014970470000FF07E2
:105A00000000F87F0EF1020E2EF0030E5EF8046B1C
:105A1000364205D4012A43EB030515F5001F12D8C1
:105A2000012841EB010C1CF5001F0CD80ED14FEAE8
:105A3000D17C15F5001F0CEB4C0C0CF1020C08BFCF
:105A40004CEBD37C04E04FF0080C01E04FEAD37C30
:105A50000CEB4C0526FA05F606F00706B6F1040C29
:105A600006D20EEB860CBDE870404CF0010C60478E
:105A7000DFE80CF0090B02024FF000414FF000008C
:105A8000A1F5002170BD19461046012851EB010413
:105A900018BFD4F5001484BF002001F0004170BD90
:105AA0000808A0F500114FEA3101704743004FEAA2
:105AB000D30C4FEA3C0C43401FBF40070CF1605130
:105AC00013F0FE4F70471CF0006F03D100200CF064
:105AD000004170470CF0004343EA507010B540EAB3
