:020000040800F2
:10000000D01F0020E9470008DD050008DF050008D3
:10001000E3050008E7050008EB0500080000000004
:10002000000000000000000000000000EF050008D4
:10003000F105000800000000F3050008AD450008C8
:100040000348000803480008034800080348000864
:100050000348000803480008034800080348000854
:100060000348000803480008034800081F0D000863
:100070000348000803480008034800080348000834
:100080000348000803480008034800080348000824
:100090000348000803480008034800080348000814
:1000A00003480008EB15000803480008034800084F
:1000B000F91600081F170008034800080348000845
:1000C00003480008034800080348000803480008E4
:1000D000034800085D470008034800082510000891
:1000E00003480008034800080348000800F002F82D
:1000F00000F090F80AA090E8000C82448344AAF132
:100100000107DA4501D100F085F8AFF2090EBAE82F
:100110000F0013F0010F18BFFB1A43F0010318473B
:1001200084A20000A4A20000103A24BF78C878C1BD
:10013000FAD8520724BF30C830C144BF04680C60ED
:10014000704700000023002400250026103A28BF35
:1001500078C1FBD8520728BF30C148BF0B60704739
:100160006E2905F02785702905F0C182662908F0FF
:100170002684652908F02384672908F020846129F2
:1001800008F01F8403681B0A28BF41F08001692919
:1001900005F03282642905F02F82752905F02C8242
:1001A0006F2906F01780782905F08D82E92905F07E
:1001B000B187E42905F0AE87F52905F0AB87EF2973
:1001C00006F01480F82905F08C820368DB0928BF4B
:1001D00041F08001632906F04B82732906F05082BA
:1001E000E32906F05B82F32906F060820020704765
:1001F0001FB506F027F804000020002107F0ECFAF4
:10020000401C60600020002107F0D0FAE0601FBDB4
:1002100010B510BD06F0E4FA1146FFF7E9FF00F053
:100220002DF906F00BFB03B4FFF7F2FF03BC04F05B
:100230003BFA000010B5044600BF4021C94804F055
:10024000D5FD0028F9D02146C64804F0CBFD10BDED
:10025000F0B589B006460F4615461C2D01DD09B0E4
:10026000F0BD002101AAE81C115488208DF804007B
:100270008DF805608DF80650002405E0395DE01C1E
:1002800001AA1154601CC4B2AC42F7DB00240AE09E
:1002900001A9E81C085C095D0844C1B201AAE81C78
:1002A0001154601CC4B2E81C8442F1DB002405E058
:1002B00001A9085DFFF7BEFF601CC4B2281D84427F
:1002C000F6DB00BFCBE72DE9FE4304460D4617469B
:1002D0001E46DDE90A89200A8DF80000E0B28DF89B
:1002E0000100280A8DF80200E8B28DF80300380AF0
:1002F0008DF80400F8B28DF80500300A8DF806007C
:10030000F0B28DF807004FEA18208DF8080008F0C9
:10031000FF008DF809004FEA19208DF80A0009F056
:10032000FF008DF80B000C226946A120FFF790FF1B
:10033000BDE8FE832DE9F04F87B004460D46164612
:100340001F46DDE911ABDDF840904FF0000806E0F4
:1003500000200DF8080008F1010000F0FF08B8F1D6
:100360001C0FF5DB200A8DF80000E0B28DF80100CB
:10037000280A8DF80200E8B28DF80300300A8DF8E3
:100380000400F0B28DF80500380A8DF80600F8B2C6
:100390008DF807004FEA19208DF8080009F0FF00DA
:1003A0008DF809004FEA1A208DF80A000AF0FF00C4
:1003B0008DF80B004FEA1B208DF812000BF0FF00A8
:1003C0008DF813001398000A8DF814001398C0B22A
:1003D0008DF815001498000A8DF816001498C0B214
:1003E0008DF817001C226946AF20FFF731FF07B0D8
:1003F000BDE8F08F2DE9F04186B0142101A805F089
:1004000098FA00F0C3F9064607F03AFF0446224680
:100410000B4655A101A805F0B1F801AA10213C2016
:1004200000F0B3FF04F0CBF8804608F00DF9054664
:100430004F4907F0BFFF044607F022FF0646324649
:100440000B464CA101A805F099F801AA3021202003
:1004500000F09BFF06B0BDE8F08110B547A2002177
:10046000042000F092FF49A21021042000F08DFF2B
:1004700048A22021042000F088FF10BD96B0494812
:1004800004F020F94FF4612000F00FFE4FF44070AB
:1004900004F0C8F904F07EF800F06BFD00F04AF9B2
:1004A00000F095FF01F0B3F8FFF7D7FF01F019F95D
:1004B00001F000FA01F0B1FA02E03BA005F052F8B9
:1004C00003F0E1F80028F8D14AE03A48006808B99A
:1004D000012000E0002037490860FFF78BFF00F0A3
:1004E0009BFE00BF13AA14A915A803F019F9002850
:1004F000F8D101F026FB824610AA11A912A801F03A
:1005000073FB0DAA0EA90FA801F046FB0CA804F07E
:100510001FF8139807F0B4FE04460D46149807F030
:10052000AFFE06460F46159807F0AAFE06AAC3C2FC
:10053000CDE90A45BDF93400BDF93810BDF93C20BC
:10054000BDF94030CDE90132CDE90310BDF94400D9
:100550000090BDF94830524617A00C9905F002F8FA
:10056000B3E700000038014025302E3266205600E7
:1005700000007A4425302E326620730020506F77B9
:100580006572313033206F6E2021200020766F6C31
:10059000743A00002052756E696E672074696D654B
:1005A0003A20200020A10700444D50204552524FD0
:1005B00052200A00900121422825642C25642C2514
:1005C000642C25642C25642C25642C25642C25643E
:1005D0002C25662C25662C2566290000704700BF57
:1005E000FEE700BFFEE700BFFEE700BFFEE7704783
:1005F000704770470CB50020019000904848006893
:1006000040F480304649086000BF4548006800F467
:10061000003000900198401C0190009818B9019892
:10062000B0F5A06FF1D13E48006800F4003010B181
:100630000120009001E0002000900098012843D1A3
:100640003848006840F010003649086008460068E5
:1006500020F0030008600846006840F002000860CF
:100660002F4840682E494860084640684860084660
:10067000406840F4806048600846406820F47C1080
:1006800048600846406840F4E81048600846006842
:1006900040F08070086000BF2148006800F00070E2
:1006A0000028F9D01E48406820F003001C4948602B
:1006B0000846406840F00200486000BF18484068A3
:1006C00000F00C000828F9D10CBD10B5FFF792FF1F
:1006D00010BD10B51248006840F0010010490860D4
:1006E00008464068104908400D49486008460068BF
:1006F0000E4908400A4908600846006820F4802036
:1007000008600846406820F4FE0048604FF41F006F
:100710008860FFF7DAFF4FF000600549086010BD00
:1007200000100240002002400000FFF8FFFFF6FE2C
:1007300008ED00E008B50121042004F0F4F91020D0
:10074000ADF800008DF8030003208DF80200694623
:10075000034804F0A7F81021014804F02EF908BD61
:10076000000801400146FE48006840F48000FC4A51
:10077000106000BFFA480838006800F00200002846
:10078000F8D0F7484430006880B270472DE9FE4F3A
:100790000920FFF7E7FF009007F056FF019007F0F0
:1007A0006FFD80464FF06632EE4B07F08FFA06463B
:1007B0000022ED4B07F08AFA04460022EB4B07F0CB
:1007C00003F9824607F01EF802900298BDE8FE8FFA
:1007D00010B5E748406940F00100E549486100BFB5
:1007E000E448806800F001000028F9D1E148406841
:1007F00040F00F00DF494860D948443008610020CC
:100800004861C86088600846806840F002008860DF
:100810000846806888600846806888600846806866
:1008200088600846806888600846806840F08000DC
:1008300088600846806840F4807088600846806858
:1008400040F4806088600846806840F4005088600A
:100850000B21032003F0FEFE10BDC548806940F067
:100860000800C3498861C448006820F0F000C2490C
:100870000860BF48806940F40070BD49886108463F
:10088000C06840F40070C8600846C06820F400707A
:10089000C8600020B249091F0860081D006840F0C8
:1008A0000200091D08600846006840F48070086076
:1008B0000846006820F4602008600846006840F49C
:1008C000602008600846006840F480100860084610
:1008D000006820F4006008600846006840F40000EA
:1008E00008600846006840F001000860084600689B
:1008F00040F00800086000BF9948006800F0080058
:100900000028F9D19648006840F004009449086036
:1009100000BF9348006800F004000028F9D1704738
:1009200010B5FFF79AFFFFF753FF0E20934981F8A8
:1009300044001421914880F845101A2180F846108F
:10094000292180F84710362180F84810442180F88A
:100950004910542180F84A10FC2180F84B100920DE
:100960008649087586484862102184484175854942
:10097000816202208149087710BD70B505467F4825
:10098000007F00FB05F47B48C06800287CD1B4F5EB
:100990007A7F41D94FF47A70B4FBF0F07749C8837D
:1009A0004FF47A70B4FBF0F100FB114060B1734872
:1009B000C08B401C7149C8834FF47A70B4FBF0F1CE
:1009C00000FB11406D4908844FF47A7469488068CF
:1009D00020F001006749886000BF6648806800F029
:1009E00001000028F9D16348806840F004006149A3
:1009F00088600846806840F020008860624848614E
:100A00000846C460406840F00F00486008468068AF
:100A100040F00100886028E001205849C8830C8418
:100A20005448806820F001005249886000BF514856
:100A3000806800F001000028F9D14E48806820F05D
:100A400004004C4988600846806820F020008860D7
:100A50004D4848610846C460406840F00F00486057
:100A60000846806840F0010088603D48006840F01A
:100A700002003B4908600846006840F480000860B6
:100A800003F0ADFD3D49C86470BD2DE9FC478146CA
:100A900000244FF47A7109FB01F000EBD071C1F32F
:100AA0004F0A3648C08B012874D1B9F1020F05D026
:100AB000B9F1030F02D0B9F1040FF5D1B9F1040F68
:100AC00027D11AE031483249097850F821002E49DF
:100AD00031F8141001442D482D4A127840F82210A4
:100AE000601C84B22548017F29480078401C90FB97
:100AF000F1F201FB1200264908702048008CA04248
:100B0000E0DC1E48408C1D49098C08441B49488480
:100B10007CE0B9F1020F47D14FF0000A1CE01B48FE
:100B20001B49097850F8210004EB0A01164A32F8F3
:100B3000111008441549164A127841F82200601C29
:100B400084B20E48017F12480078401C90FBF1F2FD
:100B500001FB12000E4908700848008CA0421AE000
:100B60000824014066660A40000026400000B040AC
:100B70000010024000000240000C01400000002074
:100B80006C00002054000020E8000020E80800204D
:100B9000840000209AE0C2DCFE48408CFD49098CAC
:100BA0000844FC49488431E0B9F1030F2ED14FF4D9
:100BB000FA7A1CE0F848F949097850F8210004EB6A
:100BC0000A01F74A32F811100844F349F34A12783F
:100BD00041F82200601C84B2EE48017FEF480078A3
:100BE000401C90FBF1F201FB1200EC490870E9484F
:100BF000008CA0EB0A00A042DCDCE648408CE54912
:100C0000098CA1EB0A010844E2494884002449E028
:100C1000E048408CDF49097F90FBF1F081B2DD486C
:100C2000243050F824000181DA49243151F824108D
:100C3000088907F038F805460E46D74951F82400D0
:100C400007F031F807462A46334606F0BDFECDE9E7
:100C5000000106F0D7FDCF49243151F82410486037
:100C6000CC4A243252F824205168CA4A243252F81D
:100C70002420D06807F030FD0546C648243050F8DF
:100C800024000169284607F027FBC249243151F8A6
:100C900024104861C148007810B1C2A004F062FC81
:100CA000601C84B2BB48007FA042B1DC0020B9497F
:100CB0004884002407E00020B74941F82400B749E0
:100CC0000870601C84B2082CF5DB26E01CE0B248FA
:100CD000B249097850F8210004EB0A01B04A32F811
:100CE00011100144AC48AD4A127840F82210601C43
:100CF00084B2A848017FA9480078401C90FBF1F21B
:100D000001FB1200A5490870B4F5FA7FDFDBA148AA
:100D1000408C00F5FA709F494884BDE8FC8710B507
:100D2000A448006800F0020060B39A48C08B012814
:100D30001FD1A148006820F002009F4908609D482B
:100D4000806820F001009B4988600846806800F0B8
:100D5000200018B10320FFF798FE02E00420FFF7FF
:100D600094FE03F03CFC8B49C96C401A8949086524
:100D700002E00120FFF789FE8648C08B401E8549AE
:100D8000C88327E08B48006800F0040010B3814856
:100D9000C08B01281BD17F48008CB0F5FA7F16DC90
:100DA0008548006820F00200834908608148806817
:100DB00020F001007F4988600220FFF766FE03F003
:100DC0000EFC7449C96C401A7249086502E00120A2
:100DD000FFF75BFE7748406840F00F0075494860B8
:100DE00010BD7548006820F0020073490860704724
:100DF0002DE9F04105460E4600240027082E00DDAF
:100E00000826002451E0285D11284CDC781CC7B26C
:100E1000062C16DA68482C30006804EB84021F2187
:100E20009140884364492C310860285D04EB8401BB
:100E3000884061492C31096808435F492C310860BA
:100E400031E00C2C17DA5C4828300068A11F01EB58
:100E500081021F2191408843574928310860285D4D
:100E600004EB8401884054492831096808435249F9
:100E70002831086017E0504824300068A4F10C01C4
:100E800001EB81021F21914088434B4924310860C6
:100E9000285D04EB840188404749243109680843F0
:100EA000454924310860601CC4B2B442ABDB4248FF
:100EB0002430006820F470003F492431086008465F
:100EC0000168781E41EA00503B49243108603946E8
:100ED0003AA004F047FBBDE8F0812DE9FC47054648
:100EE0000C460026072C00DD07240A2D14DA05EB3A
:100EF0004500C6B23048083000680721B140884339
:100F00002D49083108600846006804FA06F10843D4
:100F100029490831086015E0A5F10A0000EB4000FE
:100F2000C6B22548001D00680721B1408843224908
:100F3000091D08600846006804FA06F108431E49C6
:100F4000091D086013494431085D07F07DFB8246A6
:100F5000204907F02FFA814607F092F9CDE9000108
:100F60000C484430025D29461BA004F0FBFABDE8A2
:100F7000FC8710B50749086880470648017F42682A
:100F8000143090470349496A087802498A68052164
:100F900090473DE000000020E80800208400002089
:100FA000E8000020616463B4E6D4DABCC6CAFDB4CC
:100FB000EDCEF3000000024008240140D3D0D0A7BA
:100FC000D7AABBBBCDA8B5C0CAFDC4BFA3BA256410
:100FD000200A000000004041B5DA2564B8F6CDA82B
:100FE000B5C0B2C9D1F9CAB1BCE4C9E8D6C3CEAA6A
:100FF0002564D6DCC6DAA3ACB2C9D1F9CAB1BCE467
:10100000A3BA25302E3266207573A1A30A00000012
:101010000349896A087802498A680521904710BD0A
:101020000000002010B540F225515A4803F0A5FEFB
:10103000B0B1584803F09CFEC4B257480088C82895
:1010400008DA554801880088401C534A10805348EC
:10105000445405E05048008840F400404E49088060
:1010600010BD70B58CB006460C46154601210846E9
:1010700003F04CFD304603F0C7FE019402951020AA
:101080000390002004900590802006900020079097
:10109000089009904FF480500A9000200B9001A90D
:1010A000304603F053FF0CB070BD10B586B0044657
:1010B0000121082003F037FD0121880403F040FDE1
:1010C000344803F06FFD4FF48060ADF81400032046
:1010D0008DF8160018208DF8170005A9304803F088
:1010E000E1FB4FF40060ADF8140004208DF8170008
:1010F00005A92B4803F0D6FB01940020ADF80800A9
:10110000ADF80A00ADF80C00ADF810000C20ADF8F9
:101110000E0001A91F4803F088FD012280211D480F
:1011200003F01DFE1F4A1B49091D1F48FFF799FFC9
:101130000121184803F0E2FD06B010BD70B5044669
:101140000D460021204603F01FFF2946204603F0EC
:1011500027FF0121204603F017FF70BD0FB438B5FB
:1011600005A800900F48009A049904F0E5F90020C2
:10117000009000BF0C4803F015FF0028FAD1094881
:1011800004F0B0FBC4B221460748FFF7D7FF38BCD4
:101190005DF814FB004800408C0000200809002086
:1011A000000C0140D00900201C00024070B504462C
:1011B0000E461EB10120D649086002E00020D44945
:1011C0000860012003F01BFA00251DE00020D14932
:1011D0000860012003F013FA04F0800020B1012020
:1011E000CC49091F086003E00020CA49091F0860B4
:1011F000012003F004FA0120C649086003F0FFF95A
:101200006006040E681CC5B2082DDFDB0120C04952
:10121000086003F0F4F970BD70B500241CE004F11F
:10122000B001C8B20021FFF7C1FF00210846FFF757
:10123000BDFF00211020FFF7B9FF002508E0B649E7
:1012400001EBC501085D0121FFF7B0FF681CC5B2C5
:10125000802DF4DB601CC4B2082CE0DB70BD70B5DF
:1012600000240CE0002506E00020AB4901EBC5019D
:101270000855681CC5B2802DF6DB601CC4B2082C72
:10128000F0DBFFF7C9FF70BDF0B5144600267F28DC
:1012900001DC3F2900DDF0BD0B46CF1701EB57778E
:1012A000FF10C7F10707FAB2CF1701EB5777FF100E
:1012B000A1EBC707FDB2C5F107070123BB40DEB2B2
:1012C0004CB1954B03EBC0039B5C3343924F07EB50
:1012D000C007BB5408E0904B03EBC0039B5CB343D7
:1012E0008D4F07EBC007BB5400BFD4E72DE9F04F8B
:1012F00080460C4615461E46A346A5F12000C5B201
:1013000000273EE00C2E07D105EB4500834901EB99
:10131000800010F8079004E0814800EB051010F8F9
:1013200007904FF0000A26E009F0800028B121461E
:101330004046099AFFF7A8FF09E0099808B901207B
:1013400000E00020024621464046FFF79DFF4FEA9D
:1013500049604FEA1069601CC4B2A4EB0B00B042B4
:1013600005D15C4608F1010000F0FF0806E00AF133
:10137000010000F0FF0ABAF1080FD5DB00BF781CAE
:10138000C7B2B742BEDBBDE8F08FF8B505460E46E2
:10139000144618E07A2D03DD002506F11000C6B2D0
:1013A0003A2E04DD002005460646FFF758FF0120CF
:1013B000009022780C2331462846FFF797FF05F16D
:1013C0000800C5B2641C20780028E3D1F8BD10B530
:1013D0005448806940F00100524988614FF0007024
:1013E000514948604F48806940F008004D49886184
:1013F0004E4800684E4908404C490860084600685D
:101400004C490843494908604648806940F0040057
:10141000444988614848006820F0704046490860A7
:101420000846006840F0005008600020394908393B
:101430000860424803F0E3F801204149C1F88C01FB
:101440000021AE20FFF7B2FE0021D520FFF7AEFE4F
:1014500000215020FFF7AAFE0021A820FFF7A6FEDA
:1014600000213F20FFF7A2FE0021D320FFF79EFEC0
:1014700000210846FFF79AFE00214020FFF796FE64
:1014800000218D20FFF792FE00211420FFF78EFE31
:1014900000212020FFF78AFE00210220FFF786FEB0
:1014A0000021A120FFF782FE0021C020FFF77EFE71
:1014B0000021DA20FFF77AFE00211220FFF776FEE6
:1014C00000218120FFF772FE0021EF20FFF76EFE62
:1014D0000021D920FFF76AFE0021F120FFF766FE08
:1014E0000021DB20FFF762FE00213020FFF75EFEC7
:1014F0000021A420FFF75AFE0021A620FFF756FE88
:101500000021AF20FFF752FEFFF7A9FE10BD00003B
:10151000BC01214294812142980A0020B68A000829
:101520002A8F00080010024000000140000C01401A
:10153000FF0F00FF0020220004080140A0860100E8
:101540000080214270B505460C463448806940F45D
:101550000060324988610846806940F00400886173
:101560002F48006820F470402D4908600846006844
:1015700040F4304008602B480580001F0480294853
:101580001038008840F4C0402649103908800846C9
:10159000008840F400600880081D008840F48050F6
:1015A000091D08801F481830008840F400401D497C
:1015B000183108801B482038008840F00100194984
:1015C00020390880802017492C3908800846008877
:1015D00040F0010008804FF42F6012491431088058
:1015E0001921032003F036F870BD0E481C3800881E
:1015F0000C481C38008820F001000A491C3908807A
:10160000081D008820F00100091D0880704710B5F2
:10161000232149F63F40FFF795FF10BD001002401F
:10162000040801402C2C014030B589B005460C4619
:101630000121042003F084FA0121082003F073FA49
:10164000C020ADF8200018208DF8230003208DF86D
:10165000220008A9264803F025F94FF44070ADF8A0
:10166000200008A9224803F01DF9ADF81850ADF884
:1016700014400020ADF81A00ADF8160005A91D4869
:1016800003F098FC6020ADF804000120ADF80600DE
:101690000020ADF80C0001A9164803F0C8FC01A910
:1016A000144803F006FD01A9124803F04FFD01A9FB
:1016B000104803F096FD08210E4803F0E1FE0821D2
:1016C0000C4803F0E6FE08210A4803F0EFFE08216B
:1016D000084803F0F4FE0121064803F0C5FE09B0F6
:1016E00030BD10B5002141F6FF00FFF79DFF10BD92
:1016F000000C0140000800404FF08040008A00F0DC
:10170000010018B142F21070810688844FF08040C9
:10171000008A20F001004FF080410882704777482E
:10172000008800F0010020B142F2107073491431BA
:1017300008807248008820F00100704908807047D6
:1017400010B56F48C06940F001006D49C861084696
:10175000806940F0040088616A48006820F0FF005A
:10176000684908600846006840F044000860C80402
:10177000808940F00100C9048881002008854FF667
:10178000FF7088850846008820F44070088008466D
:10179000008820F0600008800846008B40F00100BF
:1017A00008830846008B40F4807008830846008C4C
:1017B00020F0020008840846008C20F020000884F5
:1017C0000846008940F00300088142F210708884C6
:1017D0008006008840F0010008801C210A2002F0E9
:1017E00039FF10BD10B54648C06940F002004449B9
:1017F000C8610846806940F004008861414800687B
:1018000020F07F403F4908600846006840F088406B
:1018100008603A48001F008840F001003749091F5E
:10182000088000203549183108804FF6FF70091DE7
:10183000088042F210703149143108802F48103866
:10184000008820F440702D4910390880084600882F
:1018500020F06000088029480830008840F001002E
:101860002649083108800846008840F480700880C6
:1018700022481030008820F00200204910310880F2
:101880000846008820F0200008801C48083800889E
:1018900040F00300194908390880184810380088BA
:1018A00040F001001549103908801D210A2002F07E
:1018B000D1FE10BD10B5FFF743FFFFF793FF10BD3A
:1018C0000146022902D0032913D108E04FF08042DB
:1018D000928C10B242F2107293069A840BE0074A7F
:1018E0001432128810B242F21072044B14331A8070
:1018F00001E0002000BF00BF70470000100400405E
:10190000001002400008014070B505460C4600F08A
:10191000EDF9D02000F094FA00F025FA18B100F0AB
:1019200003FA012070BD284600F08AFA00F01BFA85
:10193000204600F085FA00F016FA18B100F0F4F92C
:101940000120EFE700F0F0F90020EBE770B5044666
:101950000025BC2C01DB012510E0622C01DB0225F7
:101960000CE02A2C01DB032508E0142C01DB042504
:1019700004E00A2C01DB052500E0062529461A2093
:10198000FFF7C2FF70BD70B50446B4F57A7F01DD84
:101990004FF47A74042C00DA04244FF47A7090FB2C
:1019A000F4F0401EC5B229461920FFF7ADFF0546E9
:1019B000264604EBD671C1F34F00FFF7C7FF70BD99
:1019C00070B5044600F092F9D02000F039FA00F02A
:1019D000CAF9204600F034FA00F0C5F900F086F9A3
:1019E000D12000F02DFA00F0BEF9002000F051FAED
:1019F000054600F099F9284670BD10B50446E0068A
:101A0000010E1C20FFF780FF10BD10B50446E00654
:101A1000010E1B20FFF778FF10BD38B501210846E5
:101A200003F081F80121042003F07DF84FF40060F9
:101A3000ADF8000010208DF8030003208DF802009F
:101A40006946954802F02EFF0121944802F0B7FF45
:101A500000209349086000F032F980216B20FFF7E5
:101A600053FF642002F0E7FD00216B20FFF74CFFDD
:101A70000320FFF7CAFF0020FFF7BFFF3220FFF768
:101A800082FF00213820FFF73FFF00216A20FFF787
:101A90003BFF00212320FFF737FF80213720FFF78E
:101AA00033FF7520FFF78CFF0446682C0BD1012112
:101AB0006B20FFF729FF00216C20FFF725FF322064
:101AC000FFF761FF01E0012038BD0020FCE72DE9B0
:101AD000F04106460F4614461D4600F007F9002166
:101AE00041EA4601C8B200F0ABF900F03CF920B180
:101AF00000F01AF90120BDE8F081384600F0A0F9A5
:101B000000F031F900F0F2F8012101EB4601C8B212
:101B100000F096F900F027F90DE0012C04D1002027
:101B200000F0B7F9287003E0012000F0B2F9287046
:101B3000601EC4B26D1C002CEFD100F0F5F800203F
:101B4000D9E72DE9F84F6B46022241216820FFF7C3
:101B5000BEFF9DF801009DF8001040EA01200FFA39
:101B600080FA504606F088F8804600224D4B05F07A
:101B70002BFF06464C4A4D4B05F076FE044605F019
:101B800041FE83464A49584606F0A6FD044606F043
:101B900007FD00B2BDE8F88F2DE9FC4104460D4673
:101BA00016466B46062243216820FFF790FF074642
:101BB000BFB99DF801009DF8001040EA012000B275
:101BC00020809DF803009DF8021040EA012000B239
:101BD00028809DF805009DF8041040EA012000B21D
:101BE00030803846BDE8FC812DE9FC4104460D46B5
:101BF00016466B4606223B216820FFF768FF074622
:101C0000BFB99DF801009DF8001040EA012000B224
:101C100020809DF803009DF8021040EA012000B2E8
:101C200028809DF805009DF8041040EA012000B2CC
:101C300030803846BDE8FC812DE9F04105460E466E
:101C40001746984600F052F8002141EA4501C8B213
:101C500000F0F6F800F087F820B100F065F80120F8
:101C6000BDE8F081304600F0EBF800F07CF800248D
:101C70000CE018F8040000F0E3F800F074F818B174
:101C800000F052F80120EBE7601CC4B2BC42F0DB6C
:101C900000F04AF80020E3E70008014000023000AD
:101CA000AC01214200407540A4703D0AD743424038
:101CB0000000C84210B5022002F0A1FC10BD08B51A
:101CC0000121082002F02FFF1820ADF8000010209D
:101CD0008DF8030003208DF802006946854802F064
:101CE000E1FD1821834802F068FE08BD10B5814867
:101CF000006820F470207F4908600846006840F4BE
:101D00004030086001207C4908607C49C1F88C01A2
:101D1000FFF7D0FF002078490860FFF7CBFF0020D5
:101D20007649C1F88C0110BD10B57248006820F4E6
:101D30007020704908600846006840F44030086030
:101D400000206D49091F08606C49C1F89001FFF738
:101D5000B1FF01206849091F08606849C1F8900176
:101D6000FFF7A8FF10BD10B500246248006820F4FA
:101D70007020604908600846006840F40020086050
:101D800001205D490860FFF795FF01205B49C1F81C
:101D90008C01FFF78FFF07E0601CC4B2FA2C03DD53
:101DA000FFF7C2FF012010BD5348803800680028AB
:101DB000F2D15149091F086000BFF4E710B50020B7
:101DC0004D49091F08604B48006820F470204949BC
:101DD00008600846006840F4403008600020474929
:101DE000C1F89001FFF766FF01204349091F086011
:101DF000FFF760FF00204149C1F88C0110BD10B50C
:101E000000203D49091F08603A48006820F470200E
:101E1000384908600846006840F4403008600120F6
:101E20003649C1F89001FFF745FF01203249091FEB
:101E30000860FFF73FFF00203049C1F88C0110BD5A
:101E400070B504462B48006820F4702029490860CA
:101E50000846006840F44030086000202649091F09
:101E60000860002512E0E009234908606006040EBE
:101E700001202249C1F88C01FFF71CFF00201E49F8
:101E8000091F0860FFF716FF681CC5B2082DEADBC2
:101E900070BD70B5054600241648006820F4702017
:101EA000144908600846006840F4002008600026D5
:101EB00015E000201049091F0860FFF7FBFE012014
:101EC0000E49C1F88C016006040E0B48803800688A
:101ED00008B1601CC4B2FFF7EDFE701CC6B2082E3C
:101EE000E7DB15B9FFF78BFF01E0FFF767FF20463F
:101EF00070BD0000000C0140908121420080214211
:101F000038B50446FC4890F82400C0B114B1022052
:101F1000009001E000200090F74A1268D17BF64A59
:101F2000526810786B460122FFF786FE10B14FF021
:101F3000FF3038BD9DF80010EF48417423E0EE48B3
:101F4000807A10B94FF0FF30F3E724B1EA48407CC3
:101F500008B10020EDE714B10120009001E000205D
:101F60000090E54A1268D17BE34A526810786B46CC
:101F70000122FFF761FE10B14FF0FF30D9E79DF865
:101F80000010DD4841740020D3E738B50446DA4834
:101F900090F82300A04201D1002038BD14B13020B8
:101FA000009001E000200090D348807C20B19DF893
:101FB000000040F002000090CF4890F8220020B1CD
:101FC0009DF8000040F080000090CB4A1268117D1F
:101FD000C94A526810786B460122FFF72DFE10B1F6
:101FE0004FF0FF30D9E7C44880F823400020D4E701
:101FF00038B5044604F0700010B10120009005E0EF
:1020000014B10020009001E040200090BA4A12680C
:10201000917CB94A526810786B460122FFF70CFE9A
:1020200020B10021B4488172481E38BD9DF80000DF
:1020300020F04001B04801730020009004F04000FF
:1020400020B99DF8000040F00400009004F020004A
:1020500020B99DF8000040F00200009004F010004C
:1020600020B99DF8000040F00100009004F0080045
:1020700020B99DF8000040F0380000909E4A126898
:10208000D17C9D4A526810786B460122FFF7D4FD3F
:1020900020B1002198488172481EC6E724B1082C5F
:1020A00002D00020FFF771FF934884720021017570
:1020B000322002F0C0FA0020B7E738B504468E4857
:1020C000807CA04201D1002038BD002C46D08A4A35
:1020D00012681179884A526810786B460122FFF71E
:1020E000F6FC10B14FF0FF30EEE79DF8000020F055
:1020F00020000090804A126811797F4A5268107857
:102100006B460122FFF798FD10B14FF0FF30DBE77F
:10211000032002F090FA02200090774890F8220005
:1021200020B19DF8000040F080000090724890F8C7
:10213000230020B19DF8000040F0300000906E4A6E
:102140001268117D6C4A526810786B460122FFF7C5
:1021500073FD002851D04FF0FF30B5E7664A126892
:102160001179654A526810786B460122FFF7AFFC7F
:1021700010B14FF0FF30A7E75F48807A00F0010010
:1021800028B19DF8000040F02000009004E09DF888
:10219000000020F020000090574A12681179564A3A
:1021A000526810786B460122FFF746FD10B14FF0E0
:1021B000FF3089E7032002F03EFA4F4890F82200F2
:1021C00010B18020009001E0002000904A4890F873
:1021D000230020B19DF8000040F030000090464AF6
:1021E0001268117D444A526810786B460122FFF74D
:1021F00023FD10B14FF0FF3066E73F4884740020A4
:1022000062E708B53C48807A10B94FF0FF3008BD4E
:1022100000200090384A1268D17B374A5268107803
:102220006B460122FFF708FD10B14FF0FF30EEE7DB
:10223000314A12685179304A526810786B4601224F
:10224000FFF7FAFC10B14FF0FF30E0E72A4A1268BE
:102250001179294A526810786B460122FFF7ECFC8D
:1022600010B14FF0FF30D2E7234890F82400002847
:1022700055D00C200090204A126811791E4A5268ED
:1022800010786B460122FFF7D7FC10B14FF0FF30FA
:10229000BDE7322002F0CFF9C02000901648807AC6
:1022A00000F0010020B19DF8000040F020000090F7
:1022B000114A12681179104A526810786B4601224F
:1022C000FFF7BAFC10B14FF0FF30A0E70A48407C9E
:1022D00010B10220009001E000200090064A126830
:1022E000D17B054A526810786B460122FFF7A4FCA7
:1022F00020B14FF0FF308AE79000002000200090CE
:10230000F74A12685179F64A526810786B460122F2
:10231000FFF792FC002855D04FF0FF3077E70420FC
:102320000090EF4A12681179ED4A526810786B46B6
:102330000122FFF781FC10B14FF0FF3067E7E8485A
:10234000807C20B9E648807A00F0010010B9402076
:10235000009001E060200090E14A12681179E04AA3
:10236000526810786B460122FFF766FC10B14FF0FF
:10237000FF304CE7322002F05EF9D948407C10B1C2
:102380000120009001E000200090D54A1268D17B26
:10239000D34A526810786B460122FFF74DFC10B10A
:1023A0004FF0FF3033E7CE4A12685179CC4A526879
:1023B0001078CB4B10330122FFF73EFC10B14FF0E9
:1023C000FF3024E7002022E770B50446002624F001
:1023D0000104C34890F8240008B1002070BDC04833
:1023E000807A10B94FF0FF30F8E7BD48057C807A5D
:1023F0002040BB4908740846007CA04202D04FF040
:10240000FF3600E0002614B9B548007D18B1012060
:10241000FFF776FD02E00020FFF772FD3CB1FFF709
:10242000F0FE20B1AE4805744FF0FF30D6E73046DD
:10243000D4E738B50446AA48807A10B94FF0FF3087
:1024400038BDBC2C02DB0120009015E0622C02DBC1
:102450000220009010E02A2C02DB032000900BE009
:10246000142C02DB0420009006E00A2C02DB05207D
:10247000009001E0062000909948C07A9DF8001075
:10248000884201D10020DBE7954A12689178944A8E
:10249000526810786B460122FFF7CEFB10B14FF067
:1024A000FF30CDE79DF800108D48C1720020C7E7CE
:1024B00038B50446282C02DD4FF0FF3038BDDCB9BA
:1024C0000020FFF762FD00208DF8000007208DF846
:1024D0000100834A1268917C814A526810786B46E9
:1024E0000222FFF7A9FB10B14FF0FF30E6E7002111
:1024F0007B4801750020E1E70120FFF746FD202021
:102500008DF80000012C06D100208DF80100052077
:10251000FFF78FFF17E0052C06DC01208DF8010086
:102520000520FFF786FF0EE0142C06DC02208DF854
:1025300001000A20FFF77DFF05E003208DF8010070
:102540001420FFF776FF9DF80100072101EB8010B2
:10255000C0B28DF80100624A1268917C604A5268EC
:1025600010786B460222FFF767FB10B14FF0FF3087
:10257000A4E708215A4881720021017301210175E5
:102580000020FFF721FF002098E738B504465448A3
:10259000807A10B94FF0FF3038BD514890F82400D0
:1025A00010B14FF0FF30F7E74D48007D50B134B126
:1025B000282C04DCE0B2FFF77BFF0020ECE70020D2
:1025C000FFF776FF042C01DA042404E0B4F57A7FE7
:1025D00001DD4FF47A744FF47A7090FBF4F0401EF2
:1025E000C0B200903E4A126851783D4A5268107855
:1025F0006B460122FFF720FB10B14FF0FF30CBE715
:102600009DF80000401C4FF47A7191FBF0F081B20C
:102610003348C1810146C9894810FFF70AFF0020ED
:10262000BAE738B504462E48807A10B94FF0FF302B
:1026300038BD022C06D0042C07D0082C08D0102C52
:102640000CD108E0002000900BE00820009008E08A
:102650001020009005E01820009002E04FF0FF30BD
:10266000E6E700BF1E48407A9DF80010B0EBE10F8E
:1026700001D10020DCE71A4A1268D179184A526861
:1026800010786B460122FFF7D7FA10B14FF0FF30F8
:10269000CEE79DF80000C110114841720020C7E745
:1026A00038B504460E48807A10B94FF0FF3038BD77
:1026B000FA2C09D0B4F5FA7F09D0B4F57A7F09D0A5
:1026C000B4F5FA6F0ED108E0002000900DE008206C
:1026D00000900AE01020009007E01820009004E02D
:1026E000900000204FF0FF30E1E700BFF648007A8D
:1026F0009DF80010B0EBE10F01D10020D7E7F24ABE
:1027000012689179F04A526810786B460122FFF7FF
:1027100093FA10B14FF0FF30C9E79DF80000C010E8
:10272000E94908720020C2E71CB580208DF800003E
:10273000E54A1268917CE44A526810786B4601229F
:10274000FFF77AFA10B14FF0FF301CBD642001F0A2
:1027500072FF00208DF80000DB4A1268917CDA4A93
:10276000526810786B460122FFF766FA10B14FF0FD
:10277000FF30EAE7D44A1268917DD34A5268107854
:102780006B460622FFF7A3F910B14FF0FF30DCE7EC
:102790009DF80500C007400F9DF8031001F00101EE
:1027A00040EA41009DF8011001F0010140EA0104F6
:1027B00094B1012C03D10121C348C17431E0022C32
:1027C00003D10021C048C1742BE02146BFA002F014
:1027D000C9FE4FF0FF30B8E7BB4A1268D178BA4A59
:1027E000526810786B460122FFF771F910B14FF073
:1027F000FF30AAE79DF8000000F00F042CB9BD4897
:1028000002F0B0FE4FF0FF309FE7042C06D1BAA0D3
:1028100002F0A8FE0121AC48C17402E00021AA48E0
:10282000C174FF21A8488172FF20A7490872FF21C7
:10283000A5484172C1724FF6FF71C181FF21017439
:1028400081740121017380F82210002180F8231087
:10285000417501751630016041608160163880F85D
:10286000241080F82510C1844FF4FA60FFF718FF98
:1028700010B14FF0FF3068E70220FFF7D2FE10B131
:102880004FF0FF3061E72A20FFF7D3FD10B14FF082
:10289000FF305AE73220FFF778FE10B14FF0FF30DB
:1028A00053E70020FFF790FD10B14FF0FF304CE7E9
:1028B0000020FFF702FC10B14FF0FF3045E7002089
:1028C000FFF796FB002040E7704701467E48007AFC
:1028D00030B1012807D0022809D003280FD10AE01F
:1028E000FA2008800EE04FF4FA7008800AE04FF4F6
:1028F0007A70088006E04FF4FA60088002E0002059
:10290000088000BF00BF0020704701466E48407A33
:1029100030B1012807D0022808D003280CD108E0E4
:10292000022008700BE00420087008E008200870FE
:1029300005E01020087002E04FF0FF30704700BF44
:102940006148C07C18B108784006000E087000206D
:10295000F4E701465C48C07A082817D2DFE800F0A7
:102960001704070A0D101318BC20088013E062201A
:10297000088010E02A2008800DE0142008800AE07A
:102980000A20088007E00520088004E000BF00BF9F
:102990000020088000BF00BF0020704701464A4861
:1029A00090F8240010B14FF0FF3070474648C089BE
:1029B00008800020F9E701464348007A30B1012839
:1029C00007D0022808D003280CD108E0524808603C
:1029D0000BE05248086008E05148086005E05148A3
:1029E000086002E04FF0FF30704700BF0020FBE7B7
:1029F00001463548407A30B1012808D002280AD073
:102A0000032810D10BE04FF4804008800EE041F61F
:102A10009C7008800AE04FF48050088006E04FF474
:102A20000060088002E04FF0FF30704700BF26488A
:102A3000C07C10B10888401008800020F5E70146EE
:102A40002148007C087000207047F8B504460F4606
:102A500016461D4890F8240010B94FF0FF30F8BD1D
:102A60001948807A10B94FF0FF30F8E7164A12681B
:102A7000917A154A526810786B460222FFF727F8C0
:102A800010B14FF0FF30EAE79DF801009DF800100B
:102A900040EA0125A54203DA00203070401EDEE73F
:102AA000094840684088B5EB600F48DD064A126867
:102AB000517C054A526810786B460122FFF707F8EF
:102AC00090B34FF0FF30CAE790000020556E737549
:102AD00070706F7274656420736F6674776172656D
:102AE0002070726F64756374207265762025642E81
:102AF0000A00000054A3000848616C662073656EEC
:102B00007369746976697479207061727420666F74
:102B1000756E642E0A00000000000343000083422B
:102B20003333034233338341FFE79DF8000000F065
:102B3000100020B1FFF765FB6FF001008FE7E2B2F4
:102B4000FC4B1B68D97AFB4B5B6818783B46FEF759
:102B5000BEFF10B14FF0FF3081E795FBF4F0401E4F
:102B6000307000207BE77CB50546F249496808785B
:102B700001AB04220D21FEF7AAFF08B107207CBD9E
:102B80009DF80700C0F301109DF8041001F0E0016A
:102B900040EAE1008DF800009DF80700C0F38100D5
:102BA0009DF8051001F0E00140EAE1008DF8010018
:102BB0009DF8070000F003009DF8061001F0E00109
:102BC00040EAE1008DF8020000241CE01DF804003A
:102BD00018B9002045F8240013E0D74845F8240030
:102BE00006E055F82400D54905F076FD45F82400A7
:102BF0001DF80400401EC0B20DF804000028F0D1FA
:102C000000BF601CC4B2032CE0DB0020B7E72DE955
:102C1000FE4F06460F4600256846FFF7A4FF002436
:102C200042E056F8240057F82410A0EB010ABAF14C
:102C3000000F01DB514601E0CAF10001084605F032
:102C4000EBFC83464FF08F4105F0B4FB80465DF806
:102C50002400002105F070FC16D05DF824104046D9
:102C600005F0A8FB82464FF07E5105F033FE814609
:102C700029F0004AB248416A504605F0F9FD12D2E7
:102C80000120A04005430EE0AD48C169404605F073
:102C9000EFFC05D3AA48016A404605F0E9FD02D2DF
:102CA0000120A0400543641C032CBADB2846BDE884
:102CB000FE8F2DE9FC5F06460F4600259D494968B9
:102CC000087801AB03220D21FEF701FF10B10720A8
:102CD000BDE8FC9F9DF8040000F01F008DF8040083
:102CE0009DF8050000F01F008DF805009DF8060016
:102CF00000F01F008DF80600002456E056F824006E
:102D000057F82410A0EB010BBBF1000F01DB594673
:102D100001E0CBF10001084605F07EFC4FF08F4149
:102D2000009005F047FB814601A8005D68B3844927
:102D3000086805F089FC83465946824805F03AFB4D
:102D4000804604E08049404605F0C6FC804601A864
:102D5000005D401EC0B201A908550028F2D14146CD
:102D6000484605F027FB83464FF07E5105F0B2FD43
:102D700082462AF0004B72488169584605F078FD7A
:102D800012D20120A04005430EE06D48016948467B
:102D900005F06EFC05D36A484169484605F068FDB8
:102DA00002D20120A0400543641C032CA6DB284668
:102DB0008EE72DE9F04F87B005460C46914601207D
:102DC0008DF8100000208DF811005A4A1268917C8D
:102DD000584A5268107804AB0222FEF72DFF20B14A
:102DE0004FF0FF3007B0BDE8F08FC82001F023FCA2
:102DF00000208DF810004F4A1268D17B4D4A52686E
:102E0000107804AB0122FEF717FF10B14FF0FF302E
:102E1000E8E7484A12685179464A5268107804AB8C
:102E20000122FEF709FF10B14FF0FF30DAE7414A07
:102E30001268917C3F4A5268107804AB0122FEF779
:102E4000FBFE10B14FF0FF30CCE73A4A1268D17D5B
:102E5000384A5268107804AB0122FEF7EDFE10B13B
:102E60004FF0FF30BEE7334A12681179314A526899
:102E7000107804AB0122FEF7DFFE10B14FF0FF30F7
:102E8000B0E70C208DF810002A4A12681179294AFF
:102E90005268107804AB0122FEF7CEFE10B14FF05D
:102EA000FF309FE70F2001F0C6FB2248806A407A7E
:102EB0008DF810001F4A126891781E4A52681078E7
:102EC00004AB0122FEF7B8FE10B14FF0FF3089E7E6
:102ED0001848806A007A8DF81000164A12685178F6
:102EE000144A5268107804AB0122FEF7A5FE10B117
:102EF0004FF0FF3076E7B9F1000F07D00D48806A38
:102F0000807A40F0E0008DF8100004E00948806A03
:102F1000807A8DF81000074A12689179054A526844
:102F2000107804AB0122FEF787FE78B14FF0FF3036
:102F300058E70000900000207B14AE3E1D5A843FED
:102F40004495000800B04C4554E3853FB9F1000FAB
:102F500007D0F748806AC07A40F0E0008DF8100092
:102F600003E0F448C07A8DF81000F14A1268D17974
:102F7000EF4A5268107804AB0122FEF75DFE10B1F3
:102F80004FF0FF302EE7B9F1000F02D0C82001F05A
:102F900052FB40208DF81000E54A12681179E44A8E
:102FA0005268107804AB0122FEF746FE10B14FF0D4
:102FB000FF3017E778208DF81000DD4A126851794C
:102FC000DB4A5268107804AB0122FEF735FE10B1DF
:102FD0004FF0FF3006E7D749888901F02CFB00202D
:102FE0008DF81000D24A12685179D14A526810788F
:102FF00004AB0122FEF720FE10B14FF0FF30F1E6E6
:10300000CB4A1268917ACA4A5268107804AB0222FD
:10301000FEF75DFD10B14FF0FF30E3E69DF81100C3
:103020009DF8101040EA012B0C209BFBF0F0C6B27B
:103030000020A86068602860A06060602060824610
:1030400065E0BB4A1268D17AB94A5268107804AB7D
:103050000C22FEF73CFD10B14FF0FF30C2E69DF8A8
:1030600011009DF8101040EA012000B2ADF80800F0
:103070009DF813009DF8121040EA012000B2ADF84F
:103080000A009DF815009DF8141040EA012000B2D6
:10309000ADF80C00BDF90810206808442060BDF9A7
:1030A0000A10606808446060BDF90C10A06808440C
:1030B000A0609DF817009DF8161040EA012000B2AC
:1030C000ADF800009DF819009DF8181040EA0120A5
:1030D00000B2ADF802009DF81B009DF81A1040EAFE
:1030E000012000B2ADF80400BDF9001028680844C2
:1030F0002860BDF90210686808446860BDF90410D2
:10310000A8680844A8600AF1010000F0FF0AB2456F
:1031100097DB8848D0F800C02868C117090441EA45
:103120001041070462460023384602F0E0F93246B7
:103130000023CDE9020102F0DAF928607D48D0F8D9
:1031400000C06868C117090441EA104107046246DB
:103150000023384602F0CBF932460023CDE90201C4
:1031600002F0C5F968607348D0F800C0A868C117BC
:10317000090441EA1041070462460023384602F080
:10318000B6F932460023CDE9020102F0B0F9A86099
:103190006848D0F804C02168C817000440EA114804
:1031A0000F04624600233846414602F0A0F9324639
:1031B0000023CDE9020102F09AF920605D48D0F8C1
:1031C00004C06068C117090441EA1041070462465F
:1031D0000023384602F08BF932460023CDE9020184
:1031E00002F085F960605348D0F804C0A068C117A8
:1031F000090441EA1041070462460023384602F000
:1032000076F932460023CDE9020102F070F9A060A0
:10321000A068002804DDA068A0F58030A06003E06D
:10322000A06800F58030A0600020DBE538B50446DA
:103230003F4890F82400A04201D1002038BD24B3BB
:103240003B4890F8250010B94FF0FF30F6E700201A
:10325000FEF756FE0020FEF730FF3549C88CFFF719
:1032600094F9002000903249496808786B460122A1
:103270002321FEF7E1FC01212D4880F824100120D4
:10328000FEF73EFEFEF7BDFF13E00020FEF738FE1E
:103290002748007C00902649496808786B4601223F
:1032A0002321FEF7C9FC0021214880F82410FEF7F5
:1032B000A8FF0020C2E72DE9F04F8DB083460F46EE
:1032C00002200C901A4890F8240020B10020FFF74B
:1032D000ADFF012600E0002603A8FFF7F6FA05A8D7
:1032E000FFF713FB01A8FFF734FB02A8FFF756FB1B
:1032F0000F4890F80AA004A8FFF7A1FB002407E0FC
:10330000002239465846FFF754FD00B902E0641C1C
:10331000022CF5DB00BF022C01D100252CE000249B
:103320000BE0012206A909A8FFF743FD20B906E03A
:103330009000002044950008641C022CF1DB00BFC3
:10334000022C01D1002517E006A93846FFF75FFCE3
:1033500000F0FF0809A95846FFF7ABFC00F0FF0991
:103360000025B9F1000F01D145F00105B8F1000FBA
:1033700001D145F0020500BFFF20F8490872FF2186
:10338000F6484172C1724FF6FF71C181FF2181720F
:10339000017401210173BDF80C00FFF781F99DF85C
:1033A0001400FFF73EF9BDF80400FFF742F8BDF83E
:1033B0000800FFF7EAF85046FEF71AFE9DF81000E5
:1033C000FFF702F816B10120FFF730FF28460DB0D5
:1033D000BDE8F08FF8B504460D46164616B94FF015
:1033E000FF30F8BDDD48807A10B94FF0FF30F8E7C4
:1033F00020128DF80000E0B28DF801009DF8010068
:103400002844D64949684989884202DD4FF0FF3097
:10341000E7E7D24A1268117ED04A526810786B46AC
:103420000222FEF709FC10B14FF0FF30D9E7EAB2F3
:10343000CA4B1B68597DC94B5B6818783346FEF749
:10344000FBFB10B14FF0FF30CBE70020C9E7F8B528
:1034500004460D46164616B94FF0FF30F8BDBF487A
:10346000807A10B94FF0FF30F8E720128DF8000095
:10347000E0B28DF801009DF801002844B749496881
:103480004989884202DD4FF0FF30E7E7B34A12680E
:10349000117EB24A526810786B460222FEF7CCFBCE
:1034A00010B14FF0FF30D9E7EAB2AC4B1B68597D41
:1034B000AA4B5B6818783346FEF709FB10B14FF052
:1034C000FF30CBE70020C9E72DE9F04385B0054682
:1034D0000E4690469946A14890F8250020B14FF03D
:1034E000FF3005B0BDE8F08316B94FF0FF30F8E7C4
:1034F000002423E0281B102801DD102000E0281BF9
:1035000087B2321939462046FFF764FF10B14FF0F9
:10351000FF30E6E701AA39462046FFF798FF10B1D1
:103520004FF0FF30DDE730193A4601A902F0AEF95D
:1035300010B16FF00100D4E7E01984B2AC42D9DBDE
:103540004FEA28208DF8000008F0FF008DF80100F8
:10355000824A1268917E814A526810786B46022234
:10356000FEF76AFB10B14FF0FF30BAE701217B484C
:1035700080F82510A0F826900020B2E770B588B03A
:1035800002A905A8FFF797FE0446032C3ED101A827
:10359000FFF711FA059805F03FF80646019905F086
:1035A0009BF8054604F0FCFF0590069805F034F8FA
:1035B0000646019905F090F8054604F0F1FF0690E3
:1035C000079805F029F80646019905F085F80546A3
:1035D00004F0E6FF079005A800F055FA6846FFF7EB
:1035E00007FABDF80010029848430290BDF8001099
:1035F000039848430390BDF8001004984843049092
:1036000002A800F0D3FA002008B070BD0120FBE74B
:10361000014691F90020002A01DD00201EE091F909
:103620000020002A01DA042018E091F90120002A84
:1036300001DD012012E091F90120002A01DA0520C4
:103640000CE091F90220002A01DD022006E091F948
:103650000220002A01DA062000E00720704710B59A
:1036600004462046FFF7D4FF0346E01CFFF7D0FFD7
:1036700043EAC00083B2A01DFFF7CAFF43EA8010EF
:1036800083B2184610BD70B50024FEF718FBFFF793
:103690004BF8002840D17820FEF7AAFCC4B20CB148
:1036A000012070BD7820FEF78FFEC4B20CB102205D
:1036B000F7E76420FEF769FFC4B20CB10320F0E71E
:1036C00000F046F9C4B20CB10420EAE72448FFF741
:1036D000C6FF054600F046F9C4B20CB10520E0E78C
:1036E00040F2731000F0FBFCC4B20CB10620D8E726
:1036F000642000F0F1FAC4B20CB10720D1E7FFF763
:103700003DFF04460CB10820CBE70120FFF78EFDFA
:10371000C4B21CB10920C4E70A20C2E70020C0E7F8
:103720002DE9F04F99B004460D4616464FF07E57EE
:103730004FF000084FF000094FF0000A12A813A93B
:1037400018AB0EAACDE9001014A916A800F017FEB8
:1037500040B1012019B0BDE8F08F000090000020BA
:10376000BC000020BDF84C0000F4807000287CD024
:103770000E9804F051FF83464FF09D4104F01AFE6D
:1037800007460F9804F048FF83464FF09D4104F030
:1037900011FE8046109804F03FFF83464FF09D4194
:1037A00004F008FE8146119804F036FF83464FF07E
:1037B0009D4104F0FFFD824639464FF0804004F001
:1037C0008BFF4946059004F087FF414607904FF074
:1037D000404004F081FF5146059004F07DFF0690C3
:1037E000079904F079FD834604F04AFDCDE908010C
:1037F00003F0AEFC4FF06632544BCDE90A0104F001
:1038000065FACDE90C0103F0FDFF206049464FF059
:10381000804004F061FF4946029004F05DFF41469C
:1038200004904FF0404004F057FF4146029004F0EE
:1038300053FF0390049905F04DF883464FF07E51F5
:1038400004F04AFD059004F01BFDCDE9080139465E
:103850004FF0804004F040FF4146039004F03CFFED
:10386000494604904FF0804000E06AE004F034FFE5
:103870005146039004F030FF8346049904F02CFD78
:10388000059004F0FDFCCDE90601DDE9082303F015
:10389000A7FE4FF066322D4BCDE90A0104F016FA6F
:1038A000CDE90C0103F0AEFF28605146504604F00C
:1038B00013FF49460490484604F00EFF414603902A
:1038C000404604F009FF39460190384604F004FFF1
:1038D0000090019904F000FD0290039904F0FAFFB2
:1038E0008346049904F0F6FF059004F0C9FCCDE985
:1038F00008015146384604F0EFFE49460490404620
:1039000004F0EAFE0390049904F0E6FC4FF08041D5
:10391000059004F0E1FE834604F0B2FCCDE9060117
:10392000DDE9082303F05CFE4FF06632074BCDE97A
:103930000A0104F0CBF9CDE90C0103F063FF30601C
:1039400001E0022006E7002004E7000066A64C40E4
:1039500010B5C8234FF48062F74940F6F630FFF700
:10396000B3FD10BD10B586B00446F4A00068039006
:10397000F3A000680290F3A000680190F2A0006834
:10398000009004F0030003A9085C8DF8140003A85C
:10399000C4F3C101405C8DF8150003A8C4F3811184
:1039A000405C8DF8160004F0030002A9085C8DF855
:1039B000100002A8C4F3C101405C8DF8110002A8F8
:1039C000C4F38111405C8DF8120005AA032140F276
:1039D0002640FFF7FFFC18B14FF0FF3006B010BDD6
:1039E00004AA032140F22A40FFF7F4FC10B14FF083
:1039F000FF30F3E7019805900098049004F004006C
:103A000058B19DF8140040F001008DF814009DF8A5
:103A1000100040F001008DF8100004F0200058B1B3
:103A20009DF8150040F001008DF815009DF811007B
:103A300040F001008DF8110004F4807058B19DF839
:103A4000160040F001008DF816009DF8120040F0BD
:103A500001008DF8120005AA03214FF48860FFF7DA
:103A6000B9FC10B14FF0FF30B8E704AA032140F2CF
:103A70003140FFF7AFFC10B14FF0FF30AEE7B34875
:103A800004810020AAE71FB50446B048007A00F080
:103A9000030054F820000190AC48007A00F00400C4
:103AA00010B1019840420190A848007AC0F3C100CB
:103AB00054F820000290A548007A00F0200010B1D0
:103AC000029840420290A148007AC0F3811054F855
:103AD000200003909D48008900F4807010B1039885
:103AE000404203909A49019880FB0101800F40EA0F
:103AF000810001909649029880FB0110820042EA01
:103B0000917002909249039880FB0110820042EA72
:103B1000917003900198000E8DF800000198000C40
:103B20008DF801000198000A8DF802000198C0B2DA
:103B30008DF803006A4604214FF47470FFF74AFCC5
:103B400018B14FF0FF3004B010BD0298000E8DF890
:103B500000000298000C8DF801000298000A8DF810
:103B600002000298C0B28DF803006A4604214FF4A7
:103B70007570FFF72FFC10B14FF0FF30E3E70398AB
:103B8000000E8DF800000398000C8DF801000398DA
:103B9000000A8DF802000398C0B28DF803006A464F
:103BA00004214FF47670FFF715FCCCE770B588B0B0
:103BB000064601A8FEF71CFFBDF804000021C9035A
:103BC00041EA5045C4036148007A00F0030056F80A
:103BD000200005905D48007A00F0040010B10598BF
:103BE000404205905948007AC0F3C10056F82000C1
:103BF00006905648007A00F0200010B10698404226
:103C000006905248007AC0F3811056F820000790C1
:103C10004E48008900F4807010B107984042079028
:103C20000598C117A0FB042301FB043100FB05101C
:103C3000810041EA927005900698C117A0FB042309
:103C400001FB043100FB0510810041EA92700690EF
:103C50000798C117A0FB042301FB043100FB0510EA
:103C6000810041EA927007900598000E8DF80800D7
:103C70000598000C8DF809000598000A8DF80A00D7
:103C80000598C0B28DF80B000698000E8DF80C0058
:103C90000698000C8DF80D000698000A8DF80E00AD
:103CA0000698C0B28DF80F000798000E8DF810002E
:103CB0000798000C8DF811000798000A8DF8120083
:103CC0000798C0B28DF8130002AA0C214FF425709A
:103CD000FFF780FB08B070BD30B585B004461DA26B
:103CE00007CA02AB07C3C82C03DD4FF0FF3005B095
:103CF00030BDC82090FBF4F0401E85B2280A8DF834
:103D00000000E8B28DF801006A46022140F2162058
:103D1000FFF760FB10B14FF0FF30E8E702AA0C217B
:103D200040F6C120FFF756FB10B14FF0FF30DEE741
:103D3000064884810020DAE76C9500084CCD6C00C1
:103D40000CC92C003656760026466600980E0020D8
:103D500009E3CA02FEF2ABC4AAF1DFDFBBAFDFDFCB
:103D60002DE9FC4706460F4606F0070010B1B7F5EF
:103D7000C86F03DD4FF0FF30BDE8FC87384604F024
:103D800063FC8146FE4904F015FB80466846FEF759
:103D9000BCFD9DF80000022806D0042816D0082893
:103DA00026D0102848D135E04FF08D41404604F030
:103DB00093FC814604F010FC84B2F249404604F0C2
:103DC0008BFC814604F008FC85B238E04FF08C4152
:103DD000404604F081FC814604F0FEFB84B2EA49CF
:103DE000404604F079FC814604F0F6FB85B226E0FB
:103DF0004FF08B41404604F06FFC814604F0ECFB31
:103E000084B2E249404604F067FC814604F0E4FBDA
:103E100085B214E04FF08A41404604F05DFC8146D3
:103E200004F0DAFB84B2DA49404604F055FC8146DE
:103E300004F0D2FB85B202E04FF0FF309CE700BFF8
:103E400020128DF80400E0B28DF8050028128DF8DC
:103E50000600E8B28DF8070006F00100A0B101AA43
:103E600002214FF4EA70FFF7B5FA10B14FF0FF30BE
:103E700082E70DF1060202214FF49270FFF7AAFAD1
:103E800010B14FF0FF3077E706F00200A0B101AAB1
:103E900002214FF4EC70FFF79DFA10B14FF0FF30A4
:103EA0006AE70DF1060202214FF49470FFF792FACF
:103EB00010B14FF0FF305FE706F00400A0B101AA97
:103EC00002214FF4EE70FFF785FA10B14FF0FF308A
:103ED00052E70DF1060202214FF49670FFF77AFACD
:103EE00010B14FF0FF3047E7002045E738B50446F2
:103EF0000020009004F0010020B19DF8000040F087
:103F00003000009004F0020020B19DF8000040F065
:103F10000C00009004F0040020B19DF8000040F077
:103F2000030000906A4601214FF4A470FFF752FA93
:103F300038BD38B50446012C01DA012402E0042C16
:103F400000DD0424601EC0B200906A46012140F2E8
:103F50004F10FFF73FFA38BD38B50446052094FBF3
:103F6000F0F085B228128DF80000E8B28DF801005B
:103F70006A4602214FF4EF70FFF72CFA38BD38B5CE
:103F80000446052094FBF0F085B228128DF800005D
:103F9000E8B28DF801006A4602214FF4ED70FFF798
:103FA00019FA38BDF8B505460E464FF47A7095FB00
:103FB000F0F000FB06F4200E8DF80000200C8DF8C8
:103FC0000100200A8DF80200E0B28DF803006A4675
:103FD00004214FF4AE70FFF7FDF9F8BD38B5044683
:103FE000052094FBF0F084B220128DF80000E0B2BE
:103FF0008DF801006A4602214FF4AD70FFF7EAF92F
:1040000038BD38B50446052094FBF0F084B2201288
:104010008DF80000E0B28DF801006A4602214FF4ED
:10402000AC70FFF7D7F938BD38B5044664B120202D
:104030008DF8000028208DF8010030208DF8020056
:1040400038208DF8030004E0A3220421684601F023
:1040500068FC6A46042140F69E20FFF7BBF9FEF794
:10406000D0F838BD38B5044664B1C0208DF80000E2
:10407000C2208DF80100C4208DF80200C6208DF802
:10408000030004E08B220421684601F04AFC6A46E2
:10409000042140F69820FFF79DF9FEF7B2F838BDED
:1040A0003EB504466CB13BA1D1E900208968CDE959
:1040B000002002916A4609214FF49760FFF78AF9C0
:1040C0003EBD37A2D2E900109268CDE9010200910D
:1040D0006A4609214FF49760FFF77CF9F0E73EB597
:1040E000044602208DF80000CA208DF80100E3206C
:1040F0008DF8020009208DF803006A46042168202B
:10410000FFF768F9A3208DF8000004F0400048B1E3
:10411000C0208DF80100C8208DF80200C2208DF863
:10412000030006E0A3208DF801008DF802008DF851
:10413000030004F4C07048B1C4208DF80400CC2002
:104140008DF80500C6208DF8060006E0A3208DF846
:1041500004008DF805008DF80600A3208DF80700F7
:104160008DF808008DF809006A460A2140F6A7205C
:10417000FFF730F904F00300D8B1202016E000006A
:1041800000004843000040460000C0450000404594
:104190000000C044B8AAB38DB4980D355D0000008E
:1041A000B8AAAAAAB088C3C5C70000008DF800004D
:1041B00002E0D8208DF800006A46012140F6B620C2
:1041C000FFF708F904F0200018B10120FFF768FF9D
:1041D00002E00020FFF764FF04F4C07008B304F4A9
:1041E000807060B1B2208DF800008B208DF8010046
:1041F000B6208DF802009B208DF803000BE0B02064
:104200008DF8000080208DF80100B4208DF80200A8
:1042100090208DF803006A46042140F6A220FFF7A3
:10422000D9F804F0010020B3F8208DF800006A46A8
:1042300001214FF40B60FFF7CDF8FA210720FFF7BB
:104240008FFD0720FFF752FE0120FFF772FE64206A
:10425000FFF782FE4FF4FA70FFF791FEC821BA48CB
:10426000FFF7A0FE2820FFF7B9FE0A20FFF7C9FEDE
:1042700008E0D8208DF800006A4601214FF40B6059
:10428000FFF7A8F804F0020018B1D9208DF800005B
:1042900002E0D8208DF800006A46012140F23D700E
:1042A000FFF798F804F0040018B10120FFF7DAFED8
:1042B00002E00020FFF7D6FE04F0100018B1012044
:1042C000FFF7B2FE02E00020FFF7AEFE44F0080068
:1042D0009E494881FDF795FF00209C49887304F0B2
:1042E000400018B10846807B801D887304F4C070BC
:1042F00020B19648807B801D9449887304F0140097
:1043000020B19248807B10309049887304F00300FC
:1043100020B18E48807B001D8C49887300203EBDF3
:104320002DE9F0410446E07800F0C006E07800F0A6
:104330003F05607800F0010098B1EF102846E917BA
:1043400005EB5171C910A5EBC101491C01F0FF0833
:104350007E48006820B17D48414602683846904753
:1043600000BF607800F0080030B17848406818B1AC
:10437000B011764A516888470020BDE8F0812DE9E8
:10438000F04F8DB00746884615469946DDE9166B15
:104390000024002030806D49887B5A4605A9FEF72D
:1043A00054FB18B1601E0DB0BDE8F08F6748807AED
:1043B00000F01400002867D09DF8140000069DF856
:1043C000151040EA01409DF8161040EA01209DF8C2
:1043D0001710084328609DF8180000069DF8191072
:1043E00040EA01409DF81A1040EA01209DF81B1098
:1043F000084368609DF81C0000069DF81D1040EA07
:1044000001409DF81E1040EA01209DF81F1008434E
:10441000A8609DF8200000069DF8211040EA0140A8
:104420009DF8221040EA01209DF823100843E8601F
:1044300004F11000C4B228680014019068680014E8
:104440000290A86800140390E86800140490019892
:104450004043029901FB0100039901FB010004990B
:1044600001FB010ABAF1706F02DBBAF1885F05DD6A
:10447000FDF7C7FE00203080401E94E7B6F900002B
:1044800040F48070308000BF3048807A00F04000F7
:1044900020B305A9601C085C095D40EA012000B258
:1044A000A8F8000005A9E01C095C05AAA01C105C86
:1044B00041EA002000B2A8F8020005A9601D095CCD
:1044C000201D105C41EA002000B2A8F80400A01DE5
:1044D000C4B2B6F9000040F0080030801B484089A3
:1044E00000F4C07008B305A9601C085C095D40EACF
:1044F000012000B2388005A9E01C095C05AAA01CB7
:10450000105C41EA002000B2788005A9601D095CBA
:10451000201D105C41EA002000B2B880A01DC4B28A
:10452000B6F9000040F0700030800848807A00F052
:10453000030018B105A90819FFF7F2FE4846FEF777
:10454000C3F900202FE7000009E3CA02980E0020FB
:1045500038B5044614B94FF0FF3038BD6A4604211F
:104560004FF45870FEF773FF10B14FF0FF30F4E7CF
:104570009DF8000000069DF8011040EA01409DF8FA
:10458000021040EA01209DF803100843206000203B
:10459000E3E700002D484FF0E021486100208861EA
:1045A0000846006940F00300086170474FF0E021C1
:1045B000086927490968491C254A116070474FF06E
:1045C000E02080692149081A42F22831B0FBF1F05D
:1045D0001F49096801EB810100EB410070474FF072
:1045E000E02080691949081A0921B0FBF1F1184847
:1045F000006840F27122504301EB0010704730B563
:10460000134B19684FF0E0239B69104CE21A00BF6E
:104610004FF0E0239B690D4CE41A0D4B1B685B1AAD
:1046200041F2F9556B4304EB03139B1A00EBC004F2
:10463000A342EDD330BD30B504464FF47A7004FB8D
:1046400000F52846FFF7DBFF30BD0000905F01005A
:10465000C800002070B503461248405C40EA0310D1
:10466000C2B210484254CC1701EBD4646411A400C8
:1046700004F1E024D4F800410A46CD1701EBD565DA
:104680006D11A1EB45160125B5402C430846CD1709
:1046900001EBD5656D11AD0005F1E025C5F80041D0
:1046A00070BD000000E400E000BF704700BF4A4A50
:1046B000128802F04002002AF9D0C2B2464B1B1DFC
:1046C0001A80704710B586B00446012144F20400F8
:1046D00000F029FA4FF40070ADF8140003208DF8B3
:1046E000160018208DF8170005A93C4800F0DAF8EC
:1046F0004FF48060ADF8140004208DF8170005A970
:10470000364800F0CFF825208DF8000003208DF802
:1047100001008DF8020001208DF80300684600F0CA
:1047200086F801940020ADF80800ADF80A00ADF855
:104730000C00ADF810000C20ADF80E0001A92648C1
:1047400000F073FA012240F22551234800F0E2FA0A
:104750000121214800F0D2FA06B010BD10B540F298
:1047600025511D4800F009FB10B31B4800F000FB69
:10477000C4B21B48008800F40040C8B9184800883B
:1047800000F4804060B10A2C03D000201449088056
:1047900020E01348008840F400401149088019E0E7
:1047A0000D2C06D10E48008840F480400C4908804A
:1047B00010E00B480088C0F30D000A490C5408486B
:1047C0000088401C0649088008460088C72801DD8B
:1047D0000020088010BD00000038014000080140A2
:1047E000D0000020A80E0020094880470948004753
:1047F000FEE7FEE7FEE7FEE7FEE7FEE7FEE7FEE791
:10480000FEE7FEE704480549034A054B70470000F0
:10481000D3060008ED000008D00F0020D01F0020B4
:10482000D00F00201B4901431B4A1160704770B52F
:10483000002100230F22C47804B3174C246804F429
:10484000E064C4F5E064210AC1F10403CA4044787D
:1048500004FA03F184781440214309010F4C0678CF
:10486000A155047804F01F050124AC4005786D11B2
:10487000AD0005F1E025C5F8004109E0047804F039
:104880001F050124AC40064D0678761145F82640F8
:1048900070BD00000000FA050CED00E000E400E04F
:1048A00080E100E02DE9F0410246002500260020CD
:1048B00000230024002791F803C00CF00F0591F8A5
:1048C00003C00CF0100CBCF1000F03D091F802C033
:1048D0004CEA050591F800C0BCF1000F31D0146816
:1048E00000202BE04FF0010C0CFA00F3B1F800C0EF
:1048F0000CEA03069E4220D183004FF00F0C0CFA05
:1049000003F7BC4305FA03FC4CEA040491F803C026
:10491000BCF1280F06D14FF0010C0CFA00FCC2F8D4
:1049200014C00AE091F803C0BCF1480F05D14FF064
:10493000010C0CFA00FCC2F810C0401C0828D1D3AE
:104940001460B1F800C0BCF1FF0F34DD54680020E2
:104950002EE000F1080C4FF0010808FA0CF3B1F852
:1049600000C00CEA03069E4221D183004FF00F0CD9
:104970000CFA03F7BC4305FA03FC4CEA040491F873
:1049800003C0BCF1280F05D100F1080C08FA0CF89F
:10499000C2F8148091F803C0BCF1480F07D100F1B0
:1049A000080C4FF0010808FA0CF8C2F81080401CFF
:1049B0000828CED35460BDE8F08101617047F0B59E
:1049C0000A46002300240021002500F00046B6F12D
:1049D000004F02D11C4EF16901E01B4E7168C0F31B
:1049E000034583B200F44016B6F5401F08D121F00C
:1049F0007061154E766826F07066134F7E6012E087
:104A000000F48016B6F5801F06D1032606FA05F4D9
:104A1000A14341F0706106E0460D360103FA06F647
:104A2000B14341F0706122B1460D360103FA06F63A
:104A3000314300F00046B6F1004F02D1024EF16161
:104A400001E0014E7160F0BD0000014030B5002171
:104A50000022002400234E4D6D6805F00C0121B1A9
:104A6000042905D0082923D105E04A4D056022E03C
:104A7000484D05601FE0464D6D6805F47012444DC9
:104A80006D6805F48034022505EB92421CB9424D55
:104A9000554305600BE03E4D6D6805F400351DB1D2
:104AA0003D4D5543056002E03A4D5543056002E037
:104AB000384D056000BF00BF354D6D6805F0F00151
:104AC0000909364D6B5C0568DD404560304D6D6809
:104AD00005F4E061090A314D6B5C4568DD40856095
:104AE0002B4D6D6805F46051C90A2C4D6B5C45680F
:104AF000DD40C560264D6D6805F44041890B284DA9
:104B00006B5CC568B5FBF3F5056130BD29B1204A82
:104B1000526902431E4B5A6104E01D4A52698243A6
:104B20001B4B5A61704729B1194A92690243184BCD
:104B30009A6104E0164A92698243154B9A61704764
:104B400029B1134AD2690243114BDA6104E0104AD9
:104B5000D26982430E4BDA61704729B10C4AD268A0
:104B600002430B4BDA6004E0094AD2688243084BE7
:104B7000DA60704729B1064A12690243044B1A6190
:104B800004E0034A12698243014B1A617047000036
:104B90000010024000127A0000093D00D2000020FF
:104BA000E200002010B504468948844209D1012161
:104BB0008803FFF7D2FF00214FF48040FFF7CDFFBD
:104BC00032E08448844209D101214804FFF7D2FF32
:104BD00000214FF40030FFF7CDFF25E07E488442EE
:104BE00009D101218804FFF7C5FF00214FF480207F
:104BF000FFF7C0FF18E07948844209D10121C804B9
:104C0000FFF7B8FF00214FF40020FFF7B3FF0BE0E0
:104C10007348844208D101210805FFF7ABFF00214A
:104C20004FF48010FFF7A6FF10BD2DE9F04786B0C6
:104C300005460E460024A24600BFA1460027B089C3
:104C400000B100BF2F462C8A4CF6FF700440F0885C
:104C500004432C82AC894EF6F3100440B0883189AD
:104C60000843718908430443AC81AC8A4FF6FF4086
:104C70000440B0890443AC8201A8FFF7E7FE544822
:104C8000874202D1DDF810A001E0DDF80CA0A88970
:104C900000F4004040B10AEBCA0000EB0A10316892
:104CA0004900B0FBF1F807E00AEBCA0000EB0A107C
:104CB00031688900B0FBF1F86420B8FBF0F0040122
:104CC0002009642101FB1089A88900F4004040B14B
:104CD000322000EBC900B0FBF1F000F00700044304
:104CE00008E0322000EB09106421B0FBF1F000F085
:104CF0000F0004432C8106B0BDE8F08721B1828902
:104D000042F40052828104E082894DF6FF731A401A
:104D100082817047F0B5034600240026002500205C
:104D200040F66A17B94200D100BF1846C1F34214D9
:104D300001F01F06012707FA06F5012C01D10C30FE
:104D400004E0022C01D1103000E014301AB10768E1
:104D50002F43076002E00768AF430760F0BD1AB158
:104D6000838A0B43838202E0838A8B43838270476A
:104D700001468888C0F30800704770B502460024D9
:104D800000230025002040F66A16B14200D100BF82
:104D9000C1F3421501F01F03012606FA03F3012DAA
:104DA00002D19689334006E0022D02D1168A3340A3
:104DB00001E0968A33400C12012606FA04F41688A4
:104DC000344013B10CB1012000E0002070BD0000A0
:104DD000003801400044004000480040004C0040C2
:104DE00000500040C1F30802828070470246002054
:104DF000B1F5007F00D100BF13880B400BB101203B
:104E000000E000207047000001684FF6FE7211407C
:104E100001600021016041608160C1606349884296
:104E200008D162490839496841F00F015F4A083AE0
:104E300051608AE05D491431884208D15B490839E4
:104E4000496841F0F001594A083A51607DE05749FC
:104E50002831884208D155490839496841F47061C0
:104E6000524A083A516070E050493C31884208D1BA
:104E70004E490839496841F470414C4A083A51603A
:104E800063E04A495031884208D1484908394968A5
:104E900041F47021454A083A516056E04349643173
:104EA000884208D141490839496841F470013F4AB4
:104EB000083A516049E03D497831884208D13B4980
:104EC0000839496841F07061384A083A51603CE05D
:104ED0003749884206D1011F096841F00F01021FBE
:104EE000116032E032491431884208D13049091F3B
:104EF000096841F0F0012E4A121F116025E02C498B
:104F00002831884208D12A49091F096841F4706193
:104F1000274A121F116018E025493C31884208D108
:104F20002349091F096841F47041214A121F116089
:104F30000BE01F495031884207D11D49091F0968FC
:104F400041F470211A4A121F1160704710B50022F7
:104F5000026847F6F0739A430C6A8B6823430C6926
:104F600023434C6923438C692343CC6923434C6A14
:104F700023438C6A23431A430260CB6843600B6867
:104F800083604B68C36010BD21B1026842F001022A
:104F9000026004E002684FF6FE731A400260704738
:104FA000416070470146486880B27047080002407F
:104FB0000804024000220288FE4B98420ED0FE4BAD
:104FC00098420BD0B0F1804F08D0FC4B984205D0EE
:104FD000FB4B984202D0FB4B984204D14FF68F73A3
:104FE0001A404B881A43F84B984207D0F74B984227
:104FF00004D04FF6FF431A40CB881A4302808B88B7
:1050000083850B880385EB4B98420BD0EA4B984283
:1050100008D0EF4B984205D0EE4B984202D0EE4BB1
:10502000984201D10B7A038601238382704770B5C1
:10503000002400220023058C4FF6FE7635400584BF
:10504000028C8388048B4FF68F752C40B51E2C4044
:105050000D882C43751E2A400D892A434D882A430A
:10506000D44DA8420BD0D44DA84208D0D84DA84268
:1050700005D0D84DA84202D0D74DA84213D14FF643
:10508000F7752A404D892A434FF6FB752A408D88D3
:105090002A434FF6FF652B404FF6FF552B408D8975
:1050A0002B43CD892B4383800483CD88858602845E
:1050B00070BD70B5002400220023058C4FF6EF76FA
:1050C00035400584028C8388048B48F6FF752C409C
:1050D0004FF6FF452C400D884FF6FF7606EA052572
:1050E0002C434FF6DF752A400D8906EA05152A4341
:1050F0004D8806EA05152A43AE4DA84202D0AE4DB2
:10510000A8421DD14FF67F752A404D894FF6FF7694
:1051100006EA05152A434FF6BF752A408D8806EA30
:1051200005152A434FF6FF352B404FF2FF752B40F4
:105130008D8906EA85052B43CD8906EA85052B4333
:1051400083800483CD880587028470BD70B50024F8
:1051500000220023058C4FF6FF6635400584028C43
:105160008388848B4FF68F752C404FF6FC752C404E
:105170000D882C434FF6FF552A400D894FF6FF76D8
:1051800006EA05252A434D8806EA05252A43894D66
:10519000A84202D0884DA8421DD14FF2FF752A4087
:1051A0004D894FF6FF7606EA05252A434FF6FF356F
:1051B0002A408D8806EA05252A434EF6FF752B40C6
:1051C0004DF6FF752B408D8906EA05152B43CD89D9
:1051D00006EA05152B4383808483CD888587028466
:1051E00070BD70B5002200230024058C4EF6FF76BA
:1051F00035400584038C8488828B48F6FF752A40ED
:105200004FF6FF452A400D884FF6FF7606EA052542
:105210002A434DF6FF752B400D8906EA05352B43D1
:105220004D8806EA05352B43624DA84202D0624DF7
:10523000A84208D14BF6FF752C408D894FF6FF76BA
:1052400006EA85152C4384808283CD88A0F84050DF
:10525000038470BDF0B50C461546002200210026DF
:10526000078C4EF6FF7C07EA0C070784828B018CC3
:105270004FF6FF7707EA043640F6FF473A404FF60D
:10528000FF7707EA05273A434FF6FF7707EA033728
:105290003A43484FB8420ED0474FB8420BD0B0F116
:1052A000804F08D0454FB84205D0454FB84202D094
:1052B000444FB84206D14DF6FF77394046F4805747
:1052C000394305E047F6FF57394044F480573943E6
:1052D00082830184F0BDF0B50C4615460022002102
:1052E0000026078C4FF6FF6C07EA0C070784828BB9
:1052F000018C4FF6FF7707EA04264FF60C773A4009
:105300004FF6FF7707EA03172F433A43294FB84276
:105310000ED0294FB8420BD0B0F1804F08D0274FA4
:10532000B84205D0264FB84202D0264FB84206D127
:105330004FF6FF57394046F48077394305E04FF286
:10534000FF57394044F48077394382830184F0BDAC
:10535000F0B50C461546002200210026078C4FF6BA
:10536000EF7C07EA0C070784028B018C4FF6FF776E
:1053700007EA041640F6FF473A404FF6FF7707EA80
:1053800003373A434FF6FF7707EA05273A43094FB9
:10539000B8420ED0084FB8420BD0B0F1804F08D0C1
:1053A000064FB84205D0064FB84202D0054FB8426A
:1053B0001BD113E0002C01400034014000040040E8
:1053C00000080040000C00400010004000140040A5
:1053D0000040014000440140004801404FF6DF77A3
:1053E000394046F01007394305E04FF65F77394002
:1053F00044F01007394302830184F0BDF0B50C4638
:10540000154600220021068C4FF6FE773E400684AA
:10541000028B018C4FF60C7632407E1C06EA031696
:105420002E4332432C4EB0420ED02C4EB0420BD005
:10543000B0F1804F08D02A4EB04205D0294EB0427C
:1054400002D0294EB04206D14FF6FD76314044F0ED
:105450000106314305E04FF6F576314044F0010690
:10546000314302830184F0BD21B1028842F0010280
:10547000028004E002884FF6FE731A4002807047F3
:105480000A460021018B4FF6F7731940114301833F
:1054900070470A460021018B4FF2FF7319404FF607
:1054A000FF7303EA02231943018370470A46002170
:1054B000818B4FF6F77319401143818370470A4679
:1054C0000021818B4FF2FF7319404FF6FF7303EAFF
:1054D0000223194381837047002C014000340140AE
:1054E0000004004000080040000C0040704710B568
:1054F0004C1084EA530404D54042C1F1000138BF86
:10550000491E1B4204D55242C3F1000338BF5B1E43
:1055100000F03AFA14F0804F04D04042C1F100018B
:1055200038BF491E14F0004F04D05242C3F10003AB
:1055300038BF5B1E10BD00000FB41CB5084B06AA97
:105540007B4469460090059800F05BFD044600200E
:10555000694600F069FD20461CBC5DF814FB0000A4
:10556000E50A00000FB4044910B503AA029800F040
:1055700061FD10BC5DF814FBCC0000200FB41CB51D
:10558000084B06AA7B4469460090059800F039FD57
:1055900004460020694600F047FD20461CBC5DF82B
:1055A00014FB0000A10A000070B50446856900687C
:1055B000C10601D5302600E02026C00707D070BD07
:1055C000D4E9012130469047206A401C20626D1EBC
:1055D000F6D570BD70B5044685690078C00707D15F
:1055E00070BDD4E9012120209047206A401C206230
:1055F0006D1EF6D570BD00002DE9F0410646002471
:1056000010687529314616A510D000F03FFA002821
:1056100002DA404213A507E031688A0701D512A5D6
:1056200002E0490704D511A5012401E000F037FA92
:1056300000210A2206F1240709E0B0FBF2FCB0FBCE
:10564000F2F302FB1C00303078541846491C002845
:10565000F3D123462A463046BDE8F04100F051BA66
:10566000000000002D0000002B00000020000000C2
:10567000F0B40D460188090502D5214C7C4402E0B6
:105680001F4C7C440E34002100F1240608E002F097
:105690000F071209E75D42EA03721B097754491CA0
:1056A00052EA0307F3D102780023120704D5702DC4
:1056B00006D009B1022311342246F0BC00F021BA11
:1056C00001231034F8E770B504460D4621461068F2
:1056D00000F0E5F9024629462046BDE87040002367
:1056E000C6E7D21D22F00703D3E90023C0E7036811
:1056F000126843F0200303600823C3610023B7E767
:10570000E24A00002DE9F05F894604464FF0000AA6
:10571000DFF874B1FB44C0F820A02046E168884758
:10572000002874D0252806D0D4E901219047206AAA
:10573000401C2062F1E700265F462046E16888476A
:105740002028054607DB312D05D2781910F8200CEA
:1057500008B10643F1E7B00701D526F00406C4F806
:105760001CA00027C4F818A02A2D09D0284601F053
:10577000E7FC38B304EB8708303DC8F8185019E04F
:1057800059F8041B204604EB87029161E1688847C1
:10579000012F054618D1E069002820DA26F02006FE
:1057A0001DE0D8F8180000EB800005EB4000303811
:1057B000C8F818002046E1688847054601F0C0FC9B
:1057C0000028EED1012F0AD02E2D08D12046E16805
:1057D00088477F1C0546022F46F02006C4DBA069DF
:1057E000002803DA404246F00106A061F00701D02C
:1057F00026F010066C2D0BD0682D09D04C2D39D019
:105800006A2D35D0742D35D07A2D33D016E038E09E
:10581000E1682F4620468847B842054609D16C2FDB
:1058200026D04FF48060E16806432046884705464D
:1058300004E06C2F1AD04FF4807006430DB3A5F12D
:105840004100192802D8203546F400664A46294608
:10585000204626604E46FAF783FC80B101280BD023
:10586000F61D26F0070000F1080956E74020E4E79E
:105870008020D8E70020D6E706F104094DE7284646
:1058800052E7206ABDE8F09F724A000040EA010337
:1058900010B59B070FD1042A0DD310C808C9121FD9
:1058A0009C42F8D020BA19BA884201D9012010BD13
:1058B0004FF0FF3010BD1AB1D30703D0521C07E0E0
:1058C000002010BD10F8013B11F8014B1B1B07D144
:1058D00010F8013B11F8014B1B1B01D1921EF1D1B5
:1058E000184610BD10B5431C02E010F8011B71B141
:1058F0008107FAD14FF0013202C88C1A8C4314EAA6
:10590000C211F9D0C01A0A0603D0C01E10BDC01AB9
:1059100010BD0A0401D0801E10BD0902FCD0401E3B
:1059200010BD02F0FF0343EA032242EA024200F004
:1059300069BC4FF0000200B51346944696462039E4
:1059400022BFA0E80C50A0E80C50B1F12001BFF438
:10595000F7AF090728BFA0E80C5048BF0CC05DF89E
:1059600004EB890028BF40F8042B08BF704748BFEC
:1059700020F8022B11F0804F18BF00F8012B704760
:10598000704770477047704753EA020C00F0698017
:105990002DE9F04B4FF00006002B1FBFB3FA83F543
:1059A00003FA05F424FA05F65E4012BF1643B2FA74
:1059B00082F502FA05F4C5F120051EBF22FA05FCA6
:1059C00044EA0C04203556EA044C4FEA144418BF4C
:1059D000641C4FF000084FF00009904271EB030C7B
:1059E00039D3002919BFB1FA81F701FA07F6B0FAE5
:1059F00080F700FA07F6C7F120071EBF20FA07FC60
:105A000046EA0C062037B6FBF4FCA7EB0507103F6F
:105A100007F01F0BCBF120060CFA0BFB2CFA06F655
:105A200044BFB3460026202FA4BF5E464FF0000BB4
:105A30005BEA060C08BF4FF0010B19EB0B09ABFB3F
:105A4000027C48EB0608C01B06FB02CC0BFB03CC18
:105A500071EB0C01C1E70B46024641464846BDE8E2
:105A6000F08B13B54FF000004FF00001AFF3008052
:105A7000BDE81C40704710B500F0E8FB006810BDA1
:105A800010B5044600F0E2FB046010BD09684A0549
:105A900001D540B27047C905FCD500B2704709680E
:105AA0004A0501D5C0B27047C905FCD580B2704720
:105AB00070B50C460546012A05D02878800600D529
:105AC000EA69002302E0012305E05B1C934202D255
:105AD000E05C0028F9D1A869E618C01AA861286A14
